{
  "address": "0x4E06FBDb972F3473C4CD838156156F7B7dA0405D",
  "abi": [
    {
      "inputs": [
        {
          "internalType": "contract SmartWalletFactory",
          "name": "_factory",
          "type": "address"
        }
      ],
      "stateMutability": "nonpayable",
      "type": "constructor"
    },
    {
      "inputs": [
        {
          "internalType": "address",
          "name": "_owner",
          "type": "address"
        }
      ],
      "name": "createWallet",
      "outputs": [
        {
          "internalType": "contract IWallet",
          "name": "",
          "type": "address"
        }
      ],
      "stateMutability": "payable",
      "type": "function"
    },
    {
      "inputs": [
        {
          "internalType": "address",
          "name": "_owner",
          "type": "address"
        },
        {
          "internalType": "uint256",
          "name": "_nonce",
          "type": "uint256"
        }
      ],
      "name": "walletAddress",
      "outputs": [
        {
          "internalType": "address",
          "name": "",
          "type": "address"
        }
      ],
      "stateMutability": "view",
      "type": "function"
    }
  ],
  "transactionHash": "0x3fc255a71537203c17cf3387f63669e69ed36f4a9fdd1112bfef2b07e44fa389",
  "args": [
    "0x798e5A9A79f6229AB8792B5a98f2b49B1b3a3cF6"
  ],
  "numDeployments": 4,
  "solcInputHash": "8c50756010c7e473e0a0f6af455cd156",
  "bytecode": "0x608060405234801561001057600080fd5b50604051611d02380380611d0283398101604081905261002f916100fa565b60405161003b906100ed565b604051809103906000f080158015610057573d6000803e3d6000fd5b50600180546001600160a01b0319166001600160a01b03929092169182179055604051636fc0109960e11b81526000600482015263df80213290602401600060405180830381600087803b1580156100ae57600080fd5b505af11580156100c2573d6000803e3d6000fd5b5050600080546001600160a01b0319166001600160a01b0394909416939093179092555061012a9050565b611827806104db83390190565b60006020828403121561010c57600080fd5b81516001600160a01b038116811461012357600080fd5b9392505050565b6103a2806101396000396000f3fe6080604052600436106100295760003560e01c80631238ac7c1461002e578063b054a9e81461006a575b600080fd5b34801561003a57600080fd5b5061004e610049366004610264565b61007d565b6040516001600160a01b03909116815260200160405180910390f35b61004e610078366004610290565b610164565b60008054600154604080516001600160a01b0387811660248084019190915283518084039091018152604490920183526020820180517bffffffffffffffffffffffffffffffffffffffffffffffffffffffff16636fc0109960e11b17905291517fd1e64ad70000000000000000000000000000000000000000000000000000000081529382169363d1e64ad79361011c9316919087906004016102f3565b602060405180830381865afa158015610139573d6000803e3d6000fd5b505050506040513d601f19601f8201168201806040525081019061015d9190610325565b9392505050565b60008054600154604080516001600160a01b0386811660248084019190915283518084039091018152604490920183526020820180517bffffffffffffffffffffffffffffffffffffffffffffffffffffffff16636fc0109960e11b17905291517feebc8e190000000000000000000000000000000000000000000000000000000081529382169363eebc8e1993349361020393911691600401610342565b60206040518083038185885af1158015610221573d6000803e3d6000fd5b50505050506040513d601f19601f820116820180604052508101906102469190610325565b92915050565b6001600160a01b038116811461026157600080fd5b50565b6000806040838503121561027757600080fd5b82356102828161024c565b946020939093013593505050565b6000602082840312156102a257600080fd5b813561015d8161024c565b6000815180845260005b818110156102d3576020818501810151868301820152016102b7565b506000602082860101526020601f19601f83011685010191505092915050565b6001600160a01b038416815260606020820152600061031560608301856102ad565b9050826040830152949350505050565b60006020828403121561033757600080fd5b815161015d8161024c565b6001600160a01b038316815260406020820152600061036460408301846102ad565b94935050505056fea2646970667358221220d7e8e0c91ab42c701134a74e73c4151484cb51e2c8cc5068d0e6f2bbf2c1b62b64736f6c6343000811003360a06040523060805234801561001457600080fd5b506080516117db61004c600039600081816103be01528181610448015281816105150152818161059a015261065b01526117db6000f3fe6080604052600436106100b55760003560e01c806372d87c8f116100695780638da5cb5b1161004e5780638da5cb5b146101c8578063affed0e0146101f5578063df8021321461023e57600080fd5b806372d87c8f146101935780638901e25b146101b357600080fd5b80633659cfe61161009a5780633659cfe61461014b5780634f1ef2861461016b57806352d1902d1461017e57600080fd5b80631b8b921d146100f6578063252f5a171461011857600080fd5b366100f15760405134815233907f3317af6e3247959c45cb6051f9153437a9072683e21eda1f9b52c5bcec0e89c29060200160405180910390a2005b600080fd5b34801561010257600080fd5b50610116610111366004611399565b61025e565b005b34801561012457600080fd5b506101386101333660046113ec565b610270565b6040519081526020015b60405180910390f35b34801561015757600080fd5b50610116610166366004611405565b6103b4565b610116610179366004611436565b61050b565b34801561018a57600080fd5b5061013861064e565b34801561019f57600080fd5b506101166101ae3660046114f8565b610713565b3480156101bf57600080fd5b5061011661088e565b3480156101d457600080fd5b506101dd6109ad565b6040516001600160a01b039091168152602001610142565b34801561020157600080fd5b507f3c344650e40c6608a176dc19a4b7c111d92b7e4d03081787ac55837ca120d11b54600160a01b90046bffffffffffffffffffffffff16610138565b34801561024a57600080fd5b50610116610259366004611405565b6109e0565b61026b8360008484610b09565b505050565b60006102b16040518060400160405280600581526020017f736363636300000000000000000000000000000000000000000000000000000081525030610c0d565b50604080518082018252600b81527f454344534157616c6c657400000000000000000000000000000000000000000060209182015281518083018352600581527f302e302e310000000000000000000000000000000000000000000000000000009082015281517f8b73c3c69bb8fe3d512ecc4cf759cc79239f7b179b0ffacaa9a75d522b39400f818301527fa493ff226186ed9712809d71f428d7f274876a4f2b9236f1762ec84b059ae32b818401527fae209a0b48f21c054280f2455d32cf309387644879d9acbd8ffc199163811885606082015260808101939093523060a0808501919091528251808503909101815260c0909301909152815191012090565b6001600160a01b037f00000000000000000000000000000000000000000000000000000000000000001630036104465760405162461bcd60e51b815260206004820152602c60248201527f46756e6374696f6e206d7573742062652063616c6c6564207468726f7567682060448201526b19195b1959d85d1958d85b1b60a21b60648201526084015b60405180910390fd5b7f00000000000000000000000000000000000000000000000000000000000000006001600160a01b0316610478610c80565b6001600160a01b0316146104e35760405162461bcd60e51b815260206004820152602c60248201527f46756e6374696f6e206d7573742062652063616c6c6564207468726f7567682060448201526b6163746976652070726f787960a01b606482015260840161043d565b6104ec81610ca8565b6040805160008082526020820190925261050891839190610cb4565b50565b6001600160a01b037f00000000000000000000000000000000000000000000000000000000000000001630036105985760405162461bcd60e51b815260206004820152602c60248201527f46756e6374696f6e206d7573742062652063616c6c6564207468726f7567682060448201526b19195b1959d85d1958d85b1b60a21b606482015260840161043d565b7f00000000000000000000000000000000000000000000000000000000000000006001600160a01b03166105ca610c80565b6001600160a01b0316146106355760405162461bcd60e51b815260206004820152602c60248201527f46756e6374696f6e206d7573742062652063616c6c6564207468726f7567682060448201526b6163746976652070726f787960a01b606482015260840161043d565b61063e82610ca8565b61064a82826001610cb4565b5050565b6000306001600160a01b037f000000000000000000000000000000000000000000000000000000000000000016146106ee5760405162461bcd60e51b815260206004820152603860248201527f555550535570677261646561626c653a206d757374206e6f742062652063616c60448201527f6c6564207468726f7567682064656c656761746563616c6c0000000000000000606482015260840161043d565b507f360894a13ba1a3210667c828492db98dca3e2076cc3735a920a3ca505d382bbc90565b61071b610e54565b60005b63ffffffff81168411156108875784848263ffffffff1681811061074457610744611592565b905060200281019061075691906115a8565b602001354710156107cf5760405162461bcd60e51b815260206004820152602c60248201527f536d61727457616c6c65743a20696e73756666696369656e742062617365206160448201527f737365742062616c616e63650000000000000000000000000000000000000000606482015260840161043d565b61087585858363ffffffff168181106107ea576107ea611592565b90506020028101906107fc91906115a8565b61080a906020810190611405565b86868463ffffffff1681811061082257610822611592565b905060200281019061083491906115a8565b6020013587878563ffffffff1681811061085057610850611592565b905060200281019061086291906115a8565b6108709060408101906115c8565b610b09565b8061087f81611625565b91505061071e565b5050505050565b600054610100900460ff16158080156108ae5750600054600160ff909116105b806108c85750303b1580156108c8575060005460ff166001145b61093a5760405162461bcd60e51b815260206004820152602e60248201527f496e697469616c697a61626c653a20636f6e747261637420697320616c72656160448201527f647920696e697469616c697a6564000000000000000000000000000000000000606482015260840161043d565b6000805460ff19166001179055801561095d576000805461ff0019166101001790555b610965610ec9565b8015610508576000805461ff0019169055604051600181527f7f26b83ff96e1f2b6a682f133852f6798a09c465da95921460cefb38474024989060200160405180910390a150565b60007f3c344650e40c6608a176dc19a4b7c111d92b7e4d03081787ac55837ca120d11b5b546001600160a01b0316919050565b600054610100900460ff1615808015610a005750600054600160ff909116105b80610a1a5750303b158015610a1a575060005460ff166001145b610a8c5760405162461bcd60e51b815260206004820152602e60248201527f496e697469616c697a61626c653a20636f6e747261637420697320616c72656160448201527f647920696e697469616c697a6564000000000000000000000000000000000000606482015260840161043d565b6000805460ff191660011790558015610aaf576000805461ff0019166101001790555b610ab7610ec9565b610ac082610f72565b801561064a576000805461ff0019169055604051600181527f7f26b83ff96e1f2b6a682f133852f6798a09c465da95921460cefb38474024989060200160405180910390a15050565b600073c39d95f6156b2ecb9977bcc75ca677a80e06c60d9050600080866001600160a01b031686868686604051602001610b4593929190611648565b60408051601f1981840301815290829052610b5f91611692565b60006040518083038185875af1925050503d8060008114610b9c576040519150601f19603f3d011682016040523d82523d6000602084013e610ba1565b606091505b50909250905080610bb181611039565b876001600160a01b03167f202ca0633e9bf52b1d9ffc5784badd7db89fdd8a05bea524c99853429017f7ae888888604051610bee939291906116a4565b60405180910390a282610c0357815160208301fd5b5050505050505050565b61064a8282604051602401610c23929190611706565b60408051601f198184030181529190526020810180517bffffffffffffffffffffffffffffffffffffffffffffffffffffffff167f319af333000000000000000000000000000000000000000000000000000000001790526110a6565b60007f360894a13ba1a3210667c828492db98dca3e2076cc3735a920a3ca505d382bbc6109d1565b33301461050857600080fd5b7f4910fdfa16fed3260ed0e7147f7cc6da11a60208b5b9406d12a635614ffd91435460ff1615610ce75761026b836110af565b826001600160a01b03166352d1902d6040518163ffffffff1660e01b8152600401602060405180830381865afa925050508015610d41575060408051601f3d908101601f19168201909252610d3e91810190611731565b60015b610db35760405162461bcd60e51b815260206004820152602e60248201527f45524331393637557067726164653a206e657720696d706c656d656e7461746960448201527f6f6e206973206e6f742055555053000000000000000000000000000000000000606482015260840161043d565b7f360894a13ba1a3210667c828492db98dca3e2076cc3735a920a3ca505d382bbc8114610e485760405162461bcd60e51b815260206004820152602960248201527f45524331393637557067726164653a20756e737570706f727465642070726f7860448201527f6961626c65555549440000000000000000000000000000000000000000000000606482015260840161043d565b5061026b838383611153565b7f3c344650e40c6608a176dc19a4b7c111d92b7e4d03081787ac55837ca120d11b8054600160a01b90046bffffffffffffffffffffffff16906014610e988361174a565b91906101000a8154816bffffffffffffffffffffffff02191690836bffffffffffffffffffffffff16021790555050565b600054610100900460ff16610f345760405162461bcd60e51b815260206004820152602b60248201527f496e697469616c697a61626c653a20636f6e7472616374206973206e6f74206960448201526a6e697469616c697a696e6760a81b606482015260840161043d565b4715610f705760405147815233907f3317af6e3247959c45cb6051f9153437a9072683e21eda1f9b52c5bcec0e89c29060200160405180910390a25b565b600054610100900460ff16610fdd5760405162461bcd60e51b815260206004820152602b60248201527f496e697469616c697a61626c653a20636f6e7472616374206973206e6f74206960448201526a6e697469616c697a696e6760a81b606482015260840161043d565b807f3c344650e40c6608a176dc19a4b7c111d92b7e4d03081787ac55837ca120d11b5b80547fffffffffffffffffffffffff0000000000000000000000000000000000000000166001600160a01b039290921691909117905550565b6105088160405160240161104d919061176b565b60408051601f198184030181529190526020810180517bffffffffffffffffffffffffffffffffffffffffffffffffffffffff167f41304fac000000000000000000000000000000000000000000000000000000001790525b6105088161117e565b6001600160a01b0381163b61112c5760405162461bcd60e51b815260206004820152602d60248201527f455243313936373a206e657720696d706c656d656e746174696f6e206973206e60448201527f6f74206120636f6e747261637400000000000000000000000000000000000000606482015260840161043d565b807f360894a13ba1a3210667c828492db98dca3e2076cc3735a920a3ca505d382bbc611000565b61115c8361119f565b6000825111806111695750805b1561026b5761117883836111df565b50505050565b60006a636f6e736f6c652e6c6f679050600080835160208501845afa505050565b6111a8816110af565b6040516001600160a01b038216907fbc7cd75a20ee27fd9adebab32041f755214dbc6bffa90cc0225b39da2e5c2d3b90600090a250565b60606001600160a01b0383163b61125e5760405162461bcd60e51b815260206004820152602660248201527f416464726573733a2064656c65676174652063616c6c20746f206e6f6e2d636f60448201527f6e74726163740000000000000000000000000000000000000000000000000000606482015260840161043d565b600080846001600160a01b0316846040516112799190611692565b600060405180830381855af49150503d80600081146112b4576040519150601f19603f3d011682016040523d82523d6000602084013e6112b9565b606091505b50915091506112e1828260405180606001604052806027815260200161177f602791396112ea565b95945050505050565b606083156112f9575081611303565b611303838361130a565b9392505050565b81511561131a5781518083602001fd5b8060405162461bcd60e51b815260040161043d919061176b565b80356001600160a01b038116811461134b57600080fd5b919050565b60008083601f84011261136257600080fd5b50813567ffffffffffffffff81111561137a57600080fd5b60208301915083602082850101111561139257600080fd5b9250929050565b6000806000604084860312156113ae57600080fd5b6113b784611334565b9250602084013567ffffffffffffffff8111156113d357600080fd5b6113df86828701611350565b9497909650939450505050565b6000602082840312156113fe57600080fd5b5035919050565b60006020828403121561141757600080fd5b61130382611334565b634e487b7160e01b600052604160045260246000fd5b6000806040838503121561144957600080fd5b61145283611334565b9150602083013567ffffffffffffffff8082111561146f57600080fd5b818501915085601f83011261148357600080fd5b81358181111561149557611495611420565b604051601f8201601f19908116603f011681019083821181831017156114bd576114bd611420565b816040528281528860208487010111156114d657600080fd5b8260208601602083013760006020848301015280955050505050509250929050565b6000806000806040858703121561150e57600080fd5b843567ffffffffffffffff8082111561152657600080fd5b818701915087601f83011261153a57600080fd5b81358181111561154957600080fd5b8860208260051b850101111561155e57600080fd5b60209283019650945090860135908082111561157957600080fd5b5061158687828801611350565b95989497509550505050565b634e487b7160e01b600052603260045260246000fd5b60008235605e198336030181126115be57600080fd5b9190910192915050565b6000808335601e198436030181126115df57600080fd5b83018035915067ffffffffffffffff8211156115fa57600080fd5b60200191503681900382131561139257600080fd5b634e487b7160e01b600052601160045260246000fd5b600063ffffffff80831681810361163e5761163e61160f565b6001019392505050565b8284823760609190911b6bffffffffffffffffffffffff19169101908152601401919050565b60005b83811015611689578181015183820152602001611671565b50506000910152565b600082516115be81846020870161166e565b83815260406020820152816040820152818360608301376000818301606090810191909152601f909201601f1916010192915050565b600081518084526116f281602086016020860161166e565b601f01601f19169290920160200192915050565b60408152600061171960408301856116da565b90506001600160a01b03831660208301529392505050565b60006020828403121561174357600080fd5b5051919050565b60006bffffffffffffffffffffffff80831681810361163e5761163e61160f565b60208152600061130360208301846116da56fe416464726573733a206c6f772d6c6576656c2064656c65676174652063616c6c206661696c6564a26469706673582212206007a7140d8c8a466d5e2227a6f05b9a6c6e9459645be3309af8c6c8d123022764736f6c63430008110033",
  "devdoc": {
    "kind": "dev",
    "methods": {},
    "version": 1
  },
  "userdoc": {
    "kind": "user",
    "methods": {},
    "version": 1
  },
  "storageLayout": {
    "storage": [
      {
        "astId": 3555,
        "contract": "contracts/ECDSAWalletFactory.sol:ECDSAWalletFactory",
        "label": "factory",
        "offset": 0,
        "slot": "0",
        "type": "t_contract(SmartWalletFactory)4086"
      },
      {
        "astId": 3558,
        "contract": "contracts/ECDSAWalletFactory.sol:ECDSAWalletFactory",
        "label": "wallet",
        "offset": 0,
        "slot": "1",
        "type": "t_contract(ECDSAWallet)3548"
      }
    ],
    "types": {
      "t_contract(ECDSAWallet)3548": {
        "encoding": "inplace",
        "label": "contract ECDSAWallet",
        "numberOfBytes": "20"
      },
      "t_contract(SmartWalletFactory)4086": {
        "encoding": "inplace",
        "label": "contract SmartWalletFactory",
        "numberOfBytes": "20"
      }
    }
  }
}