{
  "address": "0x7db8033a94b5F12ff34880D509e782220C2c40D4",
  "abi": [
    {
      "inputs": [
        {
          "internalType": "contract SmartWalletFactory",
          "name": "_factory",
          "type": "address"
        },
        {
          "internalType": "address",
          "name": "_permit2",
          "type": "address"
        }
      ],
      "stateMutability": "nonpayable",
      "type": "constructor"
    },
    {
      "anonymous": false,
      "inputs": [
        {
          "indexed": true,
          "internalType": "address",
          "name": "previousOwner",
          "type": "address"
        },
        {
          "indexed": true,
          "internalType": "address",
          "name": "newOwner",
          "type": "address"
        }
      ],
      "name": "OwnershipTransferred",
      "type": "event"
    },
    {
      "inputs": [],
      "name": "PERMIT2",
      "outputs": [
        {
          "internalType": "contract IPermit2",
          "name": "",
          "type": "address"
        }
      ],
      "stateMutability": "view",
      "type": "function"
    },
    {
      "inputs": [
        {
          "internalType": "address",
          "name": "_owner",
          "type": "address"
        }
      ],
      "name": "createWallet",
      "outputs": [
        {
          "internalType": "contract IWallet",
          "name": "",
          "type": "address"
        }
      ],
      "stateMutability": "payable",
      "type": "function"
    },
    {
      "inputs": [
        {
          "internalType": "uint256",
          "name": "_amount",
          "type": "uint256"
        },
        {
          "internalType": "address",
          "name": "_token",
          "type": "address"
        },
        {
          "internalType": "address",
          "name": "_owner",
          "type": "address"
        },
        {
          "internalType": "address",
          "name": "_user",
          "type": "address"
        },
        {
          "components": [
            {
              "components": [
                {
                  "internalType": "address",
                  "name": "token",
                  "type": "address"
                },
                {
                  "internalType": "uint256",
                  "name": "amount",
                  "type": "uint256"
                }
              ],
              "internalType": "struct ISignatureTransfer.TokenPermissions",
              "name": "permitted",
              "type": "tuple"
            },
            {
              "internalType": "uint256",
              "name": "nonce",
              "type": "uint256"
            },
            {
              "internalType": "uint256",
              "name": "deadline",
              "type": "uint256"
            }
          ],
          "internalType": "struct ISignatureTransfer.PermitTransferFrom",
          "name": "_permit",
          "type": "tuple"
        },
        {
          "internalType": "bytes",
          "name": "_signature",
          "type": "bytes"
        }
      ],
      "name": "deposit",
      "outputs": [],
      "stateMutability": "nonpayable",
      "type": "function"
    },
    {
      "inputs": [],
      "name": "owner",
      "outputs": [
        {
          "internalType": "address",
          "name": "",
          "type": "address"
        }
      ],
      "stateMutability": "view",
      "type": "function"
    },
    {
      "inputs": [],
      "name": "renounceOwnership",
      "outputs": [],
      "stateMutability": "nonpayable",
      "type": "function"
    },
    {
      "inputs": [
        {
          "internalType": "address",
          "name": "",
          "type": "address"
        },
        {
          "internalType": "address",
          "name": "",
          "type": "address"
        }
      ],
      "name": "tokenBalancesByUser",
      "outputs": [
        {
          "internalType": "uint256",
          "name": "",
          "type": "uint256"
        }
      ],
      "stateMutability": "view",
      "type": "function"
    },
    {
      "inputs": [
        {
          "internalType": "address",
          "name": "newOwner",
          "type": "address"
        }
      ],
      "name": "transferOwnership",
      "outputs": [],
      "stateMutability": "nonpayable",
      "type": "function"
    },
    {
      "inputs": [
        {
          "internalType": "address",
          "name": "_owner",
          "type": "address"
        },
        {
          "internalType": "uint256",
          "name": "_nonce",
          "type": "uint256"
        }
      ],
      "name": "walletAddress",
      "outputs": [
        {
          "internalType": "address",
          "name": "",
          "type": "address"
        }
      ],
      "stateMutability": "view",
      "type": "function"
    }
  ],
  "transactionHash": "0x4806b4a1f3ed94fc877786127d9ba09e75b77869357b435c9085618364c437d3",
  "args": [
    "0x6831823A1DD41BB3D1700306f953146C0F5C7e9C",
    "0x89b5B5d93245f543D53CC55923DF841349a65169"
  ],
  "numDeployments": 11,
  "solcInputHash": "e44f6f6494b00081c747a2d2eaa1b9cc",
  "bytecode": "0x6080346101a1576129e8906001600160401b03601f38849003908101601f1916830190828211848310176101a657808491604096879485528339810103126101a15781516001600160a01b038082169390918490036101a15760200151918183168093036101a157600080546001600160a01b031980821633908117845588519196939593919284167f8be0079c531659141344cd1fd0a4f28419497f9722a3daafe3b4186f6b6457e08780a37ffeed45b61d43f452c933000e813412318e408c352e137cba26cfbe202b355c3a600555856003541617600355611bd4808201908282108583111761018d57908291610e148339039084f08015610183571680846002541617600255803b1561017f57908280926024885180968193636fc0109960e11b83528160048401525af1801561017557610150575b505050600154161760015551610c5790816101bd8239f35b821161016157508352388080610138565b634e487b7160e01b81526041600452602490fd5b86513d84823e3d90fd5b8280fd5b86513d85823e3d90fd5b634e487b7160e01b86526041600452602486fd5b600080fd5b634e487b7160e01b600052604160045260246000fdfe608080604052600436101561001357600080fd5b600090813560e01c9081631238ac7c146109bc575080636afdd85014610995578063715018a61461092f5780638d00e14e146108e45780638da5cb5b146108be578063b054a9e8146107c0578063e30fcaad146101625763f2fde38b1461007957600080fd5b3461015f57602036600319011261015f57610092610a62565b61009a610a93565b6001600160a01b038091169081156100f5576000548273ffffffffffffffffffffffffffffffffffffffff19821617600055167f8be0079c531659141344cd1fd0a4f28419497f9722a3daafe3b4186f6b6457e0600080a380f35b608460405162461bcd60e51b815260206004820152602660248201527f4f776e61626c653a206e6577206f776e657220697320746865207a65726f206160448201527f64647265737300000000000000000000000000000000000000000000000000006064820152fd5b80fd5b503461015f5761012036600319011261015f5761017d610a7d565b6044356001600160a01b03811681036107bc57606435906001600160a01b038216820361077c57608036608319011261077c5767ffffffffffffffff610104351161077c573660236101043501121561077c5767ffffffffffffffff61010435600401351161077c5736602461010435600401356101043501011161077c576001600160a01b03821684526006602052604084206001600160a01b03841685526020526040842080549060043582018092116107a857556001600160a01b0360035416604051916040830183811067ffffffffffffffff821117610794576040523083526004356020840152600554906040519081602081011067ffffffffffffffff60208401111761078057906001600160a01b0388949392602083016040521681526001600160a01b03604051916020830193845251166040820152604081526102c881610aeb565b51902090604051936102d985610b07565b605385527f5769746e657373207769746e65737329546f6b656e5065726d697373696f6e7360208601527f286164647265737320746f6b656e2c75696e7432353620616d6f756e7429576960408601527f746e6573732861646472657373207573657229000000000000000000000000006060860152813b1561077c57604051947f137c29fe000000000000000000000000000000000000000000000000000000008652608435936001600160a01b038516850361077857866104058793602093848499976001600160a01b03869916600487015260a435602487015260c435604487015260e43560648701526001600160a01b038151166084870152015160a48501526001600160a01b038c1660c485015260e4840152610140610104840152610144830190610b45565b60031982820301610124830152610104356004810135808352906024018483013760046101043501358181018401859052601f01601f1916010301925af1801561076d5761073d575b506104c260206001600160a01b03600154166001600160a01b03600254169060405191636fc0109960e11b848401526001600160a01b03861660248401526024835261049983610aeb565b60405180958194829363d1e64ad760e01b84526004840152606060248401526064830190610b45565b6000604483015203915afa908115610731576000916106e8575b50906001600160a01b031683526006602052604083206001600160a01b038316600052602052604060002080549060043582039182116106d457556040516001600160a01b0360208201927fa9059cbb00000000000000000000000000000000000000000000000000000000845216602482015260043560448201526044815261056581610b07565b60405191604083019083821067ffffffffffffffff8311176106a95785928392604052602085527f5361666545524332303a206c6f772d6c6576656c2063616c6c206661696c656460208601525190826001600160a01b0387165af13d156106bf573d9067ffffffffffffffff82116106a9576001600160a01b0361060c94604051936105fc6020601f19601f8401160186610b23565b84523d87602086013e5b16610b85565b805180610617578280f35b81602091810103126106a557602001518015908115036106a55761063b5738808280f35b608460405162461bcd60e51b815260206004820152602a60248201527f5361666545524332303a204552433230206f7065726174696f6e20646964206e60448201527f6f742073756363656564000000000000000000000000000000000000000000006064820152fd5b5080fd5b634e487b7160e01b600052604160045260246000fd5b9161060c926001600160a01b03606092610606565b602485634e487b7160e01b81526011600452fd5b6020813d602011610729575b8161070160209383610b23565b810103126106a55751906001600160a01b038216820361015f57506001600160a01b036104dc565b3d91506106f4565b6040513d6000823e3d90fd5b67ffffffffffffffff819492941161075957604052913861044e565b602482634e487b7160e01b81526041600452fd5b6040513d86823e3d90fd5b8580fd5b8380fd5b602488634e487b7160e01b81526041600452fd5b602487634e487b7160e01b81526041600452fd5b602486634e487b7160e01b81526011600452fd5b8280fd5b506020908160031936011261015f57610856906107db610a62565b90836001600160a01b0392836001541684600254168560405193636fc0109960e11b868601521660248401526024835261081483610aeb565b6040518097819482937feebc8e190000000000000000000000000000000000000000000000000000000084526004840152604060248401526044830190610b45565b039134905af19283156108b1578193610875575b505060405191168152f35b909192508381813d83116108aa575b61088e8183610b23565b810103126106a5575190828216820361015f575090388061086a565b503d610884565b50604051903d90823e3d90fd5b503461015f578060031936011261015f576001600160a01b036020915416604051908152f35b503461015f57604036600319011261015f576040602091610903610a62565b61090b610a7d565b6001600160a01b039182168352600685528383209116825283522054604051908152f35b503461015f578060031936011261015f57610948610a93565b806001600160a01b03815473ffffffffffffffffffffffffffffffffffffffff1981168355167f8be0079c531659141344cd1fd0a4f28419497f9722a3daafe3b4186f6b6457e08280a380f35b503461015f578060031936011261015f5760206001600160a01b0360035416604051908152f35b9050346106a55760403660031901126106a557610a3e906109db610a62565b926001600160a01b03938492836001541684600254166020978894636fc0109960e11b8686015216602484015260248352610a1583610aeb565b60405180978194829363d1e64ad760e01b84526004840152606060248401526064830190610b45565b602435604483015203915afa9283156108b157819361087557505060405191168152f35b600435906001600160a01b0382168203610a7857565b600080fd5b602435906001600160a01b0382168203610a7857565b6001600160a01b03600054163303610aa757565b606460405162461bcd60e51b815260206004820152602060248201527f4f776e61626c653a2063616c6c6572206973206e6f7420746865206f776e65726044820152fd5b6060810190811067ffffffffffffffff8211176106a957604052565b6080810190811067ffffffffffffffff8211176106a957604052565b90601f8019910116810190811067ffffffffffffffff8211176106a957604052565b919082519283825260005b848110610b71575050826000602080949584010152601f8019910116010190565b602081830181015184830182015201610b50565b91929015610be65750815115610b99575090565b3b15610ba25790565b606460405162461bcd60e51b815260206004820152601d60248201527f416464726573733a2063616c6c20746f206e6f6e2d636f6e74726163740000006044820152fd5b825190915015610bf95750805190602001fd5b610c1d9060405191829162461bcd60e51b8352602060048401526024830190610b45565b0390fdfea2646970667358221220e4e07d23a8e178b816b75b2583052bc4d42998bc4705aa7ed65f9fe36efe6a7164736f6c6343000811003360a080604052346100315730608052611b9d9081610037823960805181818161013e0152818161042501526105a30152f35b600080fdfe60806040526004361015610023575b361561001957600080fd5b6100216110d4565b005b60003560e01c8063252f5a17146100d75780633659cfe6146100ce5780634f1ef286146100c557806352d1902d146100bc57806372d87c8f146100b35780638901e25b146100aa5780638da5cb5b146100a1578063affed0e0146100985763df8021320361000e5761009361086e565b61000e565b5061009361082d565b506100936107e6565b506100936106ff565b5061009361068c565b50610093610587565b506100936103df565b50610093610114565b50346100fe5760203660031901126100fe5760206100f6600435610df4565b604051908152f35b600080fd5b6001600160a01b038116036100fe57565b50346100fe5760203660031901126100fe5760043561013281610103565b6001600160a01b0390817f0000000000000000000000000000000000000000000000000000000000000000169161016b8330141561092c565b61019a7f360894a13ba1a3210667c828492db98dca3e2076cc3735a920a3ca505d382bbc93828554161461099d565b3033036100fe57604051906101ae82610305565b600082527f4910fdfa16fed3260ed0e7147f7cc6da11a60208b5b9406d12a635614ffd91435460ff16156101e85750506100219150610a8e565b6020600491604094939451928380926352d1902d60e01b825286165afa60009181610295575b506102825760405162461bcd60e51b815260206004820152602e60248201527f45524331393637557067726164653a206e657720696d706c656d656e7461746960448201527f6f6e206973206e6f7420555550530000000000000000000000000000000000006064820152608490fd5b0390fd5b610021936102909114610a1d565b610b48565b6102b791925060203d81116102be575b6102af818361033d565b810190610a0e565b903861020e565b503d6102a5565b50634e487b7160e01b600052604160045260246000fd5b6060810190811067ffffffffffffffff8211176102f857604052565b6103006102c5565b604052565b6020810190811067ffffffffffffffff8211176102f857604052565b6040810190811067ffffffffffffffff8211176102f857604052565b90601f8019910116810190811067ffffffffffffffff8211176102f857604052565b60209067ffffffffffffffff811161037d575b601f01601f19160190565b6103856102c5565b610372565b9291926103968261035f565b916103a4604051938461033d565b8294818452818301116100fe578281602093846000960137010152565b9080601f830112156100fe578160206103dc9335910161038a565b90565b5060403660031901126100fe576004356103f881610103565b60243567ffffffffffffffff81116100fe576104189036906004016103c1565b906001600160a01b0391827f000000000000000000000000000000000000000000000000000000000000000016926104528430141561092c565b6104817f360894a13ba1a3210667c828492db98dca3e2076cc3735a920a3ca505d382bbc94828654161461099d565b3033036100fe577f4910fdfa16fed3260ed0e7147f7cc6da11a60208b5b9406d12a635614ffd91435460ff16156104be5750506100219150610a8e565b6020600491604094939451928380926352d1902d60e01b825286165afa60009181610567575b506105545760405162461bcd60e51b815260206004820152602e60248201527f45524331393637557067726164653a206e657720696d706c656d656e7461746960448201527f6f6e206973206e6f7420555550530000000000000000000000000000000000006064820152608490fd5b610021936105629114610a1d565b610c8d565b61058091925060203d81116102be576102af818361033d565b90386104e4565b50346100fe5760003660031901126100fe576001600160a01b037f00000000000000000000000000000000000000000000000000000000000000001630036105f4576040517f360894a13ba1a3210667c828492db98dca3e2076cc3735a920a3ca505d382bbc8152602090f35b608460405162461bcd60e51b815260206004820152603860248201527f555550535570677261646561626c653a206d757374206e6f742062652063616c60448201527f6c6564207468726f7567682064656c656761746563616c6c00000000000000006064820152fd5b9181601f840112156100fe5782359167ffffffffffffffff83116100fe57602083818601950101116100fe57565b50346100fe5760403660031901126100fe5760043567ffffffffffffffff8082116100fe57366023830112156100fe578160040135918183116100fe573660248460051b830101116100fe576024359182116100fe57610021926106f6602493369060040161065e565b9390920161129e565b50346100fe576000806003193601126107e357805461073560ff8260081c1615809281936107d5575b81156107b5575b50610f5c565b80610748600160ff196000541617600055565b61079c575b610755611102565b61075c5780f35b61076c61ff001960005416600055565b604051600181527f7f26b83ff96e1f2b6a682f133852f6798a09c465da95921460cefb384740249890602090a180f35b6107b061010061ff00196000541617600055565b61074d565b303b159150816107c7575b503861072f565b6001915060ff1614386107c0565b600160ff8216109150610728565b80fd5b50346100fe5760003660031901126100fe5760206001600160a01b037f3c344650e40c6608a176dc19a4b7c111d92b7e4d03081787ac55837ca120d11b5416604051908152f35b50346100fe5760003660031901126100fe5760207f3c344650e40c6608a176dc19a4b7c111d92b7e4d03081787ac55837ca120d11b5460a01c604051908152f35b50346100fe5760203660031901126100fe5760043561088c81610103565b6108ce600054916108b260ff8460081c1615809481956107d55781156107b55750610f5c565b826108c5600160ff196000541617600055565b61091357610fcd565b6108d457005b6108e461ff001960005416600055565b604051600181527f7f26b83ff96e1f2b6a682f133852f6798a09c465da95921460cefb384740249890602090a1005b61092761010061ff00196000541617600055565b610fcd565b1561093357565b608460405162461bcd60e51b815260206004820152602c60248201527f46756e6374696f6e206d7573742062652063616c6c6564207468726f7567682060448201527f64656c656761746563616c6c00000000000000000000000000000000000000006064820152fd5b156109a457565b608460405162461bcd60e51b815260206004820152602c60248201527f46756e6374696f6e206d7573742062652063616c6c6564207468726f7567682060448201527f6163746976652070726f787900000000000000000000000000000000000000006064820152fd5b908160209103126100fe575190565b15610a2457565b608460405162461bcd60e51b815260206004820152602960248201527f45524331393637557067726164653a20756e737570706f727465642070726f7860448201527f6961626c655555494400000000000000000000000000000000000000000000006064820152fd5b803b15610ade576001600160a01b037f360894a13ba1a3210667c828492db98dca3e2076cc3735a920a3ca505d382bbc911673ffffffffffffffffffffffffffffffffffffffff19825416179055565b608460405162461bcd60e51b815260206004820152602d60248201527f455243313936373a206e657720696d706c656d656e746174696f6e206973206e60448201527f6f74206120636f6e7472616374000000000000000000000000000000000000006064820152fd5b610b5181610a8e565b6040516001600160a01b0382167fbc7cd75a20ee27fd9adebab32041f755214dbc6bffa90cc0225b39da2e5c2d3b600080a2825115801590610c85575b610b9757505050565b813b15610c1d575060008281926020610c1a95519201905af4610bb8610ce3565b60405191610bc5836102dc565b602783527f416464726573733a206c6f772d6c6576656c2064656c65676174652063616c6c60208401527f206661696c6564000000000000000000000000000000000000000000000000006040840152610d13565b50565b8062461bcd60e51b6084925260206004820152602660248201527f416464726573733a2064656c65676174652063616c6c20746f206e6f6e2d636f60448201527f6e747261637400000000000000000000000000000000000000000000000000006064820152fd5b506000610b8e565b610c9681610a8e565b6040516001600160a01b0382167fbc7cd75a20ee27fd9adebab32041f755214dbc6bffa90cc0225b39da2e5c2d3b600080a2825115801590610cdb57610b9757505050565b506001610b8e565b3d15610d0e573d90610cf48261035f565b91610d02604051938461033d565b82523d6000602084013e565b606090565b90919015610d1f575090565b815115610d2f5750805190602001fd5b61027e9060405191829162461bcd60e51b8352602060048401526024830190610d76565b60005b838110610d665750506000910152565b8181015183820152602001610d56565b90602091610d8f81518092818552858086019101610d53565b601f01601f1916010190565b7f302e302e310000000000000000000000000000000000000000000000000000006020604051610dca81610321565b6005815201527fae209a0b48f21c054280f2455d32cf309387644879d9acbd8ffc19916381188590565b610f4a610f56610e73610e92604051610e0c81610321565b600581527f736363636300000000000000000000000000000000000000000000000000000060208201526040519283917f319af333000000000000000000000000000000000000000000000000000000006020840152604060248401526064830190610d76565b3060448301520391610e8d601f199384810183528261033d565b611ad1565b7f454344534157616c6c65740000000000000000000000000000000000000000006020604051610ec181610321565b600b81520152610ecf610d9b565b60405193849160208301963091889160809194936001600160a01b039160a08501967f8b73c3c69bb8fe3d512ecc4cf759cc79239f7b179b0ffacaa9a75d522b39400f86527fa493ff226186ed9712809d71f428d7f274876a4f2b9236f1762ec84b059ae32b60208701526040860152606085015216910152565b0390810183528261033d565b51902090565b15610f6357565b608460405162461bcd60e51b815260206004820152602e60248201527f496e697469616c697a61626c653a20636f6e747261637420697320616c72656160448201527f647920696e697469616c697a65640000000000000000000000000000000000006064820152fd5b610fec60ff60005460081c16610fe281611063565b4761103557611063565b6001600160a01b037f3c344650e40c6608a176dc19a4b7c111d92b7e4d03081787ac55837ca120d11b911673ffffffffffffffffffffffffffffffffffffffff19825416179055565b476040519081527f3317af6e3247959c45cb6051f9153437a9072683e21eda1f9b52c5bcec0e89c260203392a25b1561106a57565b608460405162461bcd60e51b815260206004820152602b60248201527f496e697469616c697a61626c653a20636f6e7472616374206973206e6f74206960448201527f6e697469616c697a696e670000000000000000000000000000000000000000006064820152fd5b6040513481527f3317af6e3247959c45cb6051f9153437a9072683e21eda1f9b52c5bcec0e89c260203392a2565b61111360ff60005460081c16611063565b4761111a57565b476040519081527f3317af6e3247959c45cb6051f9153437a9072683e21eda1f9b52c5bcec0e89c260203392a2565b60209067ffffffffffffffff8111611163575b60051b0190565b61116b6102c5565b61115c565b50634e487b7160e01b600052601160045260246000fd5b60019063ffffffff80911690811461119d570190565b6111a5611170565b0190565b50634e487b7160e01b600052603260045260246000fd5b91908110156111e3575b60051b81013590605e19813603018212156100fe570190565b6111eb6111a9565b6111ca565b156111f757565b608460405162461bcd60e51b815260206004820152602c60248201527f536d61727457616c6c65743a20696e73756666696369656e742062617365206160448201527f737365742062616c616e636500000000000000000000000000000000000000006064820152fd5b356103dc81610103565b903590601e19813603018212156100fe570180359067ffffffffffffffff82116100fe576020019181360383136100fe57565b93929190926112ac84611149565b6040926112bb8451928361033d565b8582526020948583018760051b8901903682116100fe5789905b828210611394575050506112f592916112ef91369161038a565b906114e3565b6112fd6113fe565b60005b63ffffffff81168581101561138b5790611381826113318988611328611386978c47946111c0565b013511156111f0565b8861137961137089611366858d61136061135461134f84848b6111c0565b611261565b6001600160a01b031690565b966111c0565b0135938b8d6111c0565b8881019061126b565b929091611a40565b611187565b611300565b50509350505050565b67ffffffffffffffff9082358281116100fe578c01906060823603126100fe5789516113bf816102dc565b82356113ca81610103565b81528b8301358c8201528a8301359384116100fe576113ef8c949385943691016103c1565b8b8201528152019101906112d5565b7f3c344650e40c6608a176dc19a4b7c111d92b7e4d03081787ac55837ca120d11b80546001600160a01b0373ffffffffffffffffffffffffffffffffffffffff1960018360a01c6bffffffffffffffffffffffff8114611465575b0160a01b169116179055565b61146d611170565b611459565b1561147957565b608460405162461bcd60e51b815260206004820152602760248201527f454344534157616c6c65743a206661696c656420746f2076657269667920736960448201527f676e6174757265000000000000000000000000000000000000000000000000006064820152fd5b9080805181016020810190604093849103126100fe57602082015191838101519067ffffffffffffffff82116100fe57019080603f830112156100fe57602082015161152e8161035f565b9161153b8651938461033d565b8183528582850101116100fe5761162b956115636116099261160e9588602087019101610d53565b61157561156f86610df4565b9161195e565b6115f26116007f3c344650e40c6608a176dc19a4b7c111d92b7e4d03081787ac55837ca120d11b54978860a01c995192839160208301958c4691889094939260809260a08301967f7b253295b5dfff9d0fc334143cf4781476ceb0801f093453e989c297bcb5da4684526020840152604083015260608201520152565b03601f19810183528261033d565b51902090611864565b61162d565b6116246001600160a01b03809316938285611aec565b1614611472565b565b6103dc9161163a9161179d565b919091611662565b6005111561164c57565b634e487b7160e01b600052602160045260246000fd5b61166b81611642565b806116735750565b61167c81611642565b600181036116c95760405162461bcd60e51b815260206004820152601860248201527f45434453413a20696e76616c6964207369676e617475726500000000000000006044820152606490fd5b6116d281611642565b6002810361171f5760405162461bcd60e51b815260206004820152601f60248201527f45434453413a20696e76616c6964207369676e6174757265206c656e677468006044820152606490fd5b8061172b600392611642565b1461173257565b60405162461bcd60e51b815260206004820152602260248201527f45434453413a20696e76616c6964207369676e6174757265202773272076616c60448201527f75650000000000000000000000000000000000000000000000000000000000006064820152608490fd5b9060418151146000146117cb576117c7916020820151906060604084015193015160001a906117d5565b9091565b5050600090600290565b9291907f7fffffffffffffffffffffffffffffff5d576e7357a4501ddfe92f46681b20a083116118585791608094939160ff602094604051948552168484015260408301526060820152600093849182805260015afa1561184b5781516001600160a01b03811615611845579190565b50600190565b50604051903d90823e3d90fd5b50505050600090600390565b906040519060208201927f1901000000000000000000000000000000000000000000000000000000000000845260228301526042820152604281526080810181811067ffffffffffffffff8211176118c0575b60405251902090565b6118c86102c5565b6118b7565b906118d782611149565b6118e4604051918261033d565b82815280926118f5601f1991611149565b0190602036910137565b600190600019811461119d570190565b6020918151811015611924575b60051b010190565b61192c6111a9565b61191c565b805160208092019160005b82811061194a575050505090565b83518552938101939281019260010161193c565b9061196982516118cd565b60005b8351811015611a275780611994611986611a22938761190f565b51516001600160a01b031690565b6020611a0f816119a4858a61190f565b510151916115f26040806119b8888d61190f565b5101518381519101209051948593840196876060919493926001600160a01b0360808301967f8de9c86fbdd52e2efe5d4e29fd947a8389e0d8945fed5eef2d0dff9745e601c7845216602083015260408201520152565b519020611a1c828561190f565b526118ff565b61196c565b50909150604051610f56816115f2602082018095611931565b6001600160a01b037f202ca0633e9bf52b1d9ffc5784badd7db89fdd8a05bea524c99853429017f7ae91939293169160606000806040518885823780898101838152039088885af194611a91610ce3565b9680604051948593845260406020850152816040850152848401376000828201840152601f01601f19168101030190a215611ac95750565b602081519101fd5b600080916020815191016a636f6e736f6c652e6c6f675afa50565b9161162b92604051927f17fe61850000000000000000000000000000000000000000000000000000000060208501526001600160a01b03809216602485015216604483015260648201526064815260a0810181811067ffffffffffffffff821117611b5a575b604052611ad1565b611b626102c5565b611b5256fea264697066735822122023c86ef55bfb3eb292755d75dbdac166f9157af80f2bdce93fac216ae9da4ba564736f6c63430008110033",
  "devdoc": {
    "kind": "dev",
    "methods": {
      "owner()": {
        "details": "Returns the address of the current owner."
      },
      "renounceOwnership()": {
        "details": "Leaves the contract without owner. It will not be possible to call `onlyOwner` functions anymore. Can only be called by the current owner. NOTE: Renouncing ownership will leave the contract without an owner, thereby removing any functionality that is only available to the owner."
      },
      "transferOwnership(address)": {
        "details": "Transfers ownership of the contract to a new account (`newOwner`). Can only be called by the current owner."
      }
    },
    "version": 1
  },
  "userdoc": {
    "kind": "user",
    "methods": {},
    "version": 1
  },
  "storageLayout": {
    "storage": [
      {
        "astId": 2446,
        "contract": "contracts/ECDSAWalletFactory.sol:ECDSAWalletFactory",
        "label": "_owner",
        "offset": 0,
        "slot": "0",
        "type": "t_address"
      },
      {
        "astId": 4096,
        "contract": "contracts/ECDSAWalletFactory.sol:ECDSAWalletFactory",
        "label": "factory",
        "offset": 0,
        "slot": "1",
        "type": "t_contract(SmartWalletFactory)4725"
      },
      {
        "astId": 4099,
        "contract": "contracts/ECDSAWalletFactory.sol:ECDSAWalletFactory",
        "label": "wallet",
        "offset": 0,
        "slot": "2",
        "type": "t_contract(ECDSAWallet)4078"
      },
      {
        "astId": 4109,
        "contract": "contracts/ECDSAWalletFactory.sol:ECDSAWalletFactory",
        "label": "PERMIT2",
        "offset": 0,
        "slot": "3",
        "type": "t_contract(IPermit2)4951"
      },
      {
        "astId": 4112,
        "contract": "contracts/ECDSAWalletFactory.sol:ECDSAWalletFactory",
        "label": "PermitTransferFrom",
        "offset": 0,
        "slot": "4",
        "type": "t_contract(ISignatureTransfer)5087"
      },
      {
        "astId": 4123,
        "contract": "contracts/ECDSAWalletFactory.sol:ECDSAWalletFactory",
        "label": "WITNESS_TYPEHASH",
        "offset": 0,
        "slot": "5",
        "type": "t_bytes32"
      },
      {
        "astId": 4129,
        "contract": "contracts/ECDSAWalletFactory.sol:ECDSAWalletFactory",
        "label": "tokenBalancesByUser",
        "offset": 0,
        "slot": "6",
        "type": "t_mapping(t_address,t_mapping(t_address,t_uint256))"
      }
    ],
    "types": {
      "t_address": {
        "encoding": "inplace",
        "label": "address",
        "numberOfBytes": "20"
      },
      "t_bytes32": {
        "encoding": "inplace",
        "label": "bytes32",
        "numberOfBytes": "32"
      },
      "t_contract(ECDSAWallet)4078": {
        "encoding": "inplace",
        "label": "contract ECDSAWallet",
        "numberOfBytes": "20"
      },
      "t_contract(IPermit2)4951": {
        "encoding": "inplace",
        "label": "contract IPermit2",
        "numberOfBytes": "20"
      },
      "t_contract(ISignatureTransfer)5087": {
        "encoding": "inplace",
        "label": "contract ISignatureTransfer",
        "numberOfBytes": "20"
      },
      "t_contract(SmartWalletFactory)4725": {
        "encoding": "inplace",
        "label": "contract SmartWalletFactory",
        "numberOfBytes": "20"
      },
      "t_mapping(t_address,t_mapping(t_address,t_uint256))": {
        "encoding": "mapping",
        "key": "t_address",
        "label": "mapping(address => mapping(address => uint256))",
        "numberOfBytes": "32",
        "value": "t_mapping(t_address,t_uint256)"
      },
      "t_mapping(t_address,t_uint256)": {
        "encoding": "mapping",
        "key": "t_address",
        "label": "mapping(address => uint256)",
        "numberOfBytes": "32",
        "value": "t_uint256"
      },
      "t_uint256": {
        "encoding": "inplace",
        "label": "uint256",
        "numberOfBytes": "32"
      }
    }
  }
}