{
  "address": "0xEA01BF64cb7705c504aE1e5Fc4a86911FC887cc8",
  "abi": [
    {
      "inputs": [],
      "name": "PANCAKE_V3_FACTORY_BSC",
      "outputs": [
        {
          "internalType": "address",
          "name": "",
          "type": "address"
        }
      ],
      "stateMutability": "view",
      "type": "function"
    },
    {
      "inputs": [],
      "name": "PANCAKE_V3_FACTORY_ETH",
      "outputs": [
        {
          "internalType": "address",
          "name": "",
          "type": "address"
        }
      ],
      "stateMutability": "view",
      "type": "function"
    },
    {
      "inputs": [],
      "name": "WETH_BSC",
      "outputs": [
        {
          "internalType": "address",
          "name": "",
          "type": "address"
        }
      ],
      "stateMutability": "view",
      "type": "function"
    },
    {
      "inputs": [],
      "name": "WETH_ETH",
      "outputs": [
        {
          "internalType": "address",
          "name": "",
          "type": "address"
        }
      ],
      "stateMutability": "view",
      "type": "function"
    },
    {
      "inputs": [
        {
          "internalType": "uint256",
          "name": "chainId",
          "type": "uint256"
        }
      ],
      "name": "getContractAddresses",
      "outputs": [
        {
          "internalType": "address[2]",
          "name": "",
          "type": "address[2]"
        }
      ],
      "stateMutability": "pure",
      "type": "function"
    }
  ],
  "transactionHash": "0xd355e00422a70f02ba2a5acc26161eb815d12c3b0fe5ddeb9f07a7dacd1242e9",
  "args": [],
  "numDeployments": 1,
  "solcInputHash": "45a6f5cf46b1ea4712472b859564d202",
  "bytecode": "0x6080806040523461001a576102b09081610020823930815050f35b600080fdfe608080604052600436101561001357600080fd5b6000803560e01c9182634ea5fc86146101d3575081635ec3aa4b146101a75781636880c5c81461019d5781639bc527bd14610061575063d4dc024214610059575b600080fd5b6100546101fa565b60208060031936011261019957600435610079610225565b50610082610225565b6001918083036100fe575073bb4cdb9cbd36b01bd1cbaebf2de08d9173bc095c8152730bfbcf9fa4f9c56b0f40a671ad40e0805a09186583820152925b60405192839491945b600286106100d557604085f35b825173ffffffffffffffffffffffffffffffffffffffff168152948301949181019181016100c8565b60610361013b5773ae13d989dac2f0debff460ac112a837c89baa7cd8152730bfbcf9fa4f9c56b0f40a671ad40e0805a09186583820152926100bf565b606483604051907f08c379a00000000000000000000000000000000000000000000000000000000082526004820152601660248201527f436861696e204944206e6f7420737570706f72746564000000000000000000006044820152fd5b5080fd5b50506100546101fa565b806003193601126101d057602060405173bb4cdb9cbd36b01bd1cbaebf2de08d9173bc095c8152f35b80fd5b81600319360112610199578073ae13d989dac2f0debff460ac112a837c89baa7cd60209252f35b506000366003190112610054576020604051730bfbcf9fa4f9c56b0f40a671ad40e0805a0918658152f35b604051906040820182811067ffffffffffffffff82111761024b57604052604082369037565b7f4e487b7100000000000000000000000000000000000000000000000000000000600052604160045260246000fdfea264697066735822122029b0e9abae1aafaa6c09ec887a01fbb52d72c9203b56d4b1b04b116629bd59d664736f6c63430008110033",
  "devdoc": {
    "kind": "dev",
    "methods": {},
    "version": 1
  },
  "userdoc": {
    "kind": "user",
    "methods": {},
    "version": 1
  },
  "storageLayout": {
    "storage": [],
    "types": null
  }
}