{
  "address": "0xf40A6A3b302D465dfCBB4d7dB6B660720F1F642a",
  "abi": [
    {
      "inputs": [
        {
          "internalType": "contract SmartWalletFactory",
          "name": "_factory",
          "type": "address"
        }
      ],
      "stateMutability": "nonpayable",
      "type": "constructor"
    },
    {
      "anonymous": false,
      "inputs": [
        {
          "indexed": true,
          "internalType": "address",
          "name": "previousOwner",
          "type": "address"
        },
        {
          "indexed": true,
          "internalType": "address",
          "name": "newOwner",
          "type": "address"
        }
      ],
      "name": "OwnershipTransferred",
      "type": "event"
    },
    {
      "inputs": [
        {
          "internalType": "address",
          "name": "_owner",
          "type": "address"
        }
      ],
      "name": "createWallet",
      "outputs": [
        {
          "internalType": "contract IWallet",
          "name": "",
          "type": "address"
        }
      ],
      "stateMutability": "payable",
      "type": "function"
    },
    {
      "inputs": [],
      "name": "owner",
      "outputs": [
        {
          "internalType": "address",
          "name": "",
          "type": "address"
        }
      ],
      "stateMutability": "view",
      "type": "function"
    },
    {
      "inputs": [],
      "name": "renounceOwnership",
      "outputs": [],
      "stateMutability": "nonpayable",
      "type": "function"
    },
    {
      "inputs": [
        {
          "internalType": "address",
          "name": "newOwner",
          "type": "address"
        }
      ],
      "name": "transferOwnership",
      "outputs": [],
      "stateMutability": "nonpayable",
      "type": "function"
    },
    {
      "inputs": [
        {
          "internalType": "address",
          "name": "_owner",
          "type": "address"
        },
        {
          "internalType": "uint256",
          "name": "_nonce",
          "type": "uint256"
        }
      ],
      "name": "walletAddress",
      "outputs": [
        {
          "internalType": "address",
          "name": "",
          "type": "address"
        }
      ],
      "stateMutability": "view",
      "type": "function"
    }
  ],
  "transactionHash": "0x2a9eb7cfee0995298a86784b73c5f8596ba68677fe01eabd06aff51330001d97",
  "args": [
    "0x844aE9955cBd84caE8bC8c0E0FAA1191f3C43d84"
  ],
  "numDeployments": 8,
  "solcInputHash": "5c2aad68da5b616a81a0faf12b42ed77",
  "bytecode": "0x60803461016657601f612f6838819003918201601f19168301926001600160401b039290918385118386101761016b57816020928492604097885283398101031261016657516001600160a01b0380821692909183900361016657600080546001600160a01b0319808216339081178455875191959394939283167f8be0079c531659141344cd1fd0a4f28419497f9722a3daafe3b4186f6b6457e08680a361290980820190828210858311176101525790829161065f8339039084f08015610148571680846002541617600255803b1561014457908280926024885180968193636fc0109960e11b83528160048401525af1801561013a57610115575b5050506001541617600155516104dd90816101828239f35b8211610126575083523880806100fd565b634e487b7160e01b81526041600452602490fd5b86513d84823e3d90fd5b8280fd5b86513d85823e3d90fd5b634e487b7160e01b86526041600452602486fd5b600080fd5b634e487b7160e01b600052604160045260246000fdfe60806040818152600436101561001457600080fd5b600091823560e01c9081631238ac7c146102c857508063715018a6146102625780638da5cb5b1461023d578063b054a9e8146101405763f2fde38b1461005957600080fd5b3461013c57602036600319011261013c57610072610387565b61007a6103a2565b6001600160a01b038091169182156100d3575082548273ffffffffffffffffffffffffffffffffffffffff198216178455167f8be0079c531659141344cd1fd0a4f28419497f9722a3daafe3b4186f6b6457e08380a380f35b6084905162461bcd60e51b815260206004820152602660248201527f4f776e61626c653a206e6577206f776e657220697320746865207a65726f206160448201527f64647265737300000000000000000000000000000000000000000000000000006064820152fd5b5080fd5b50906020918260031936011261013c57906101d59161015d610387565b91846001600160a01b03938460015416856002541686865193636fc0109960e11b8686015216602484015260248352610195836103fa565b85518098819482937feebc8e1900000000000000000000000000000000000000000000000000000000845260048401528860248401526044830190610467565b039134905af19384156102315781946101f2575b50505191168152f35b909193508481813d831161022a575b61020b8183610445565b8101031261013c575190828216820361022757509138806101e9565b80fd5b503d610201565b509051903d90823e3d90fd5b503461013c578160031936011261013c576001600160a01b0360209254169051908152f35b823461022757806003193601126102275761027b6103a2565b806001600160a01b03815473ffffffffffffffffffffffffffffffffffffffff1981168355167f8be0079c531659141344cd1fd0a4f28419497f9722a3daafe3b4186f6b6457e08280a380f35b905034610383578160031936011261038357610361916102e6610387565b936001600160a01b03948593846001541685600254166020988994636fc0109960e11b8686015216602484015260248352610320836103fa565b85518098819482937fd1e64ad70000000000000000000000000000000000000000000000000000000084526004840152606060248401526064830190610467565b602435604483015203915afa9384156102315781946101f25750505191168152f35b8280fd5b600435906001600160a01b038216820361039d57565b600080fd5b6001600160a01b036000541633036103b657565b606460405162461bcd60e51b815260206004820152602060248201527f4f776e61626c653a2063616c6c6572206973206e6f7420746865206f776e65726044820152fd5b6060810190811067ffffffffffffffff82111761041657604052565b7f4e487b7100000000000000000000000000000000000000000000000000000000600052604160045260246000fd5b90601f8019910116810190811067ffffffffffffffff82111761041657604052565b919082519283825260005b848110610493575050826000602080949584010152601f8019910116010190565b60208183018101518483018201520161047256fea2646970667358221220141baf398e2171a348a22c4088b3c14489bdf169fcf1a3e2769aa00a2f7e29c064736f6c6343000811003360a0806040523461003157306080526128d290816100378239608051818181610287015281816105ba01526107430152f35b600080fdfe60806040526004361015610023575b361561001957600080fd5b61002161132a565b005b60003560e01c806324e5f47e14610127578063252f5a171461011e5780633659cfe6146101155780634f1ef2861461010c57806352d1902d14610103578063695730a5146100fa5780636afdd850146100f15780636bee730b146100e85780638901e25b146100df5780638da5cb5b146100d6578063affed0e0146100cd578063ca312cac146100c45763df8021320361000e576100bf610af8565b61000e565b506100bf610a98565b506100bf610a57565b506100bf610a10565b506100bf610929565b506100bf610891565b506100bf61085b565b506100bf6107fe565b506100bf610727565b506100bf610574565b506100bf61025d565b506100bf610236565b506100bf6101b5565b9181601f8401121561015e5782359167ffffffffffffffff831161015e576020838186019501011161015e57565b600080fd5b6001600160a01b0381160361015e57565b6044359061018182610163565b565b6064359061018182610163565b6084359061018182610163565b60a4359061018182610163565b359061018182610163565b503461015e57608036600319011261015e5767ffffffffffffffff60043581811161015e573660238201121561015e57806004013582811161015e573660248260051b8401011161015e5760243592831161015e5761021b610021933690600401610130565b90610224610174565b92602461022f610183565b95016115fe565b503461015e57602036600319011261015e576020610255600435611006565b604051908152f35b503461015e57602036600319011261015e5760043561027b81610163565b6001600160a01b0390817f000000000000000000000000000000000000000000000000000000000000000016916102b483301415610bb6565b6102e37f360894a13ba1a3210667c828492db98dca3e2076cc3735a920a3ca505d382bbc938285541614610c27565b30330361015e57604051906102f78261047a565b600082527f4910fdfa16fed3260ed0e7147f7cc6da11a60208b5b9406d12a635614ffd91435460ff16156103315750506100219150610d25565b6020600491604094939451928380926352d1902d60e01b825286165afa600091816103da575b506103c75760405162461bcd60e51b815260206004820152602e60248201527f45524331393637557067726164653a206e657720696d706c656d656e7461746960448201527f6f6e206973206e6f7420555550530000000000000000000000000000000000006064820152608490fd5b610021936103d59114610cb4565b610dd2565b6103fc91925060203d8111610403575b6103f481836104b2565b810190610c98565b9038610357565b503d6103ea565b50634e487b7160e01b600052604160045260246000fd5b60a0810190811067ffffffffffffffff82111761043d57604052565b61044561040a565b604052565b6060810190811067ffffffffffffffff82111761043d57604052565b67ffffffffffffffff811161043d57604052565b6020810190811067ffffffffffffffff82111761043d57604052565b6040810190811067ffffffffffffffff82111761043d57604052565b90601f8019910116810190811067ffffffffffffffff82111761043d57604052565b604051906080820182811067ffffffffffffffff82111761043d57604052565b60209067ffffffffffffffff8111610512575b601f01601f19160190565b61051a61040a565b610507565b92919261052b826104f4565b9161053960405193846104b2565b82948184528183011161015e578281602093846000960137010152565b9080601f8301121561015e578160206105719335910161051f565b90565b50604036600319011261015e5760043561058d81610163565b60243567ffffffffffffffff811161015e576105ad903690600401610556565b906001600160a01b0391827f000000000000000000000000000000000000000000000000000000000000000016926105e784301415610bb6565b6106167f360894a13ba1a3210667c828492db98dca3e2076cc3735a920a3ca505d382bbc948286541614610c27565b30330361015e577f4910fdfa16fed3260ed0e7147f7cc6da11a60208b5b9406d12a635614ffd91435460ff16156106535750506100219150610d25565b6020600491604094939451928380926352d1902d60e01b825286165afa600091816106fc575b506106e95760405162461bcd60e51b815260206004820152602e60248201527f45524331393637557067726164653a206e657720696d706c656d656e7461746960448201527f6f6e206973206e6f7420555550530000000000000000000000000000000000006064820152608490fd5b610021936106f79114610cb4565b610ea4565b61071591925060203d8111610403576103f481836104b2565b9038610679565b600091031261015e57565b503461015e57600036600319011261015e576001600160a01b037f0000000000000000000000000000000000000000000000000000000000000000163003610794576040517f360894a13ba1a3210667c828492db98dca3e2076cc3735a920a3ca505d382bbc8152602090f35b608460405162461bcd60e51b815260206004820152603860248201527f555550535570677261646561626c653a206d757374206e6f742062652063616c60448201527f6c6564207468726f7567682064656c656761746563616c6c00000000000000006064820152fd5b503461015e57602036600319011261015e5760a061081d60043561128f565b6080604051916001600160a01b0380825116845280602083015116602085015260408201511660408401526060810151606084015201516080820152f35b503461015e57600036600319011261015e5760206001600160a01b0360655416604051908152f35b9081606091031261015e5790565b503461015e5761012036600319011261015e576024356108b081610163565b6044356108bc81610163565b606435906108c982610163565b6108d1610190565b926108da61019d565b67ffffffffffffffff949060c43586811161015e576108fd903690600401610883565b916101043596871161015e5761091a610021973690600401610130565b96909560e43595600435612274565b503461015e57600080600319360112610a0d57805461095f60ff8260081c1615809281936109ff575b81156109df575b50611124565b80610972600160ff196000541617600055565b6109c6575b61097f611358565b6109865780f35b61099661ff001960005416600055565b604051600181527f7f26b83ff96e1f2b6a682f133852f6798a09c465da95921460cefb384740249890602090a180f35b6109da61010061ff00196000541617600055565b610977565b303b159150816109f1575b5038610959565b6001915060ff1614386109ea565b600160ff8216109150610952565b80fd5b503461015e57600036600319011261015e5760206001600160a01b037f3c344650e40c6608a176dc19a4b7c111d92b7e4d03081787ac55837ca120d11b5416604051908152f35b503461015e57600036600319011261015e5760207f3c344650e40c6608a176dc19a4b7c111d92b7e4d03081787ac55837ca120d11b5460a01c604051908152f35b503461015e57608036600319011261015e57600435610ab681610163565b60243590610ac382610163565b604435610acf81610163565b606435906fffffffffffffffffffffffffffffffff8216820361015e57602093610255936125f7565b503461015e57602036600319011261015e57600435610b1681610163565b610b5860005491610b3c60ff8460081c1615809481956109ff5781156109df5750611124565b82610b4f600160ff196000541617600055565b610b9d57611195565b610b5e57005b610b6e61ff001960005416600055565b604051600181527f7f26b83ff96e1f2b6a682f133852f6798a09c465da95921460cefb384740249890602090a1005b610bb161010061ff00196000541617600055565b611195565b15610bbd57565b608460405162461bcd60e51b815260206004820152602c60248201527f46756e6374696f6e206d7573742062652063616c6c6564207468726f7567682060448201527f64656c656761746563616c6c00000000000000000000000000000000000000006064820152fd5b15610c2e57565b608460405162461bcd60e51b815260206004820152602c60248201527f46756e6374696f6e206d7573742062652063616c6c6564207468726f7567682060448201527f6163746976652070726f787900000000000000000000000000000000000000006064820152fd5b9081602091031261015e575190565b506040513d6000823e3d90fd5b15610cbb57565b608460405162461bcd60e51b815260206004820152602960248201527f45524331393637557067726164653a20756e737570706f727465642070726f7860448201527f6961626c655555494400000000000000000000000000000000000000000000006064820152fd5b803b15610d68576001600160a01b037f360894a13ba1a3210667c828492db98dca3e2076cc3735a920a3ca505d382bbc91166001600160a01b0319825416179055565b608460405162461bcd60e51b815260206004820152602d60248201527f455243313936373a206e657720696d706c656d656e746174696f6e206973206e60448201527f6f74206120636f6e7472616374000000000000000000000000000000000000006064820152fd5b90610ddc82610d25565b6001600160a01b0382167fbc7cd75a20ee27fd9adebab32041f755214dbc6bffa90cc0225b39da2e5c2d3b600080a2805115801590610e9c575b610e1e575050565b610e999160008060405193610e328561044a565b602785527f416464726573733a206c6f772d6c6576656c2064656c65676174652063616c6c60208601527f206661696c6564000000000000000000000000000000000000000000000000006040860152602081519101845af4610e93610ef7565b91610f72565b50565b506000610e16565b90610eae82610d25565b6001600160a01b0382167fbc7cd75a20ee27fd9adebab32041f755214dbc6bffa90cc0225b39da2e5c2d3b600080a2805115801590610eef57610e1e575050565b506001610e16565b3d15610f22573d90610f08826104f4565b91610f1660405193846104b2565b82523d6000602084013e565b606090565b15610f2e57565b606460405162461bcd60e51b815260206004820152601d60248201527f416464726573733a2063616c6c20746f206e6f6e2d636f6e74726163740000006044820152fd5b91929015610f925750815115610f86575090565b610571903b1515610f27565b825190915015610fa55750805190602001fd5b6044604051809262461bcd60e51b825260206004830152610fd58151809281602486015260208686019101610fe3565b601f01601f19168101030190fd5b60005b838110610ff65750506000910152565b8181015183820152602001610fe6565b7f454344534157616c6c6574000000000000000000000000000000000000000000602060405161103581610496565b600b815201527f302e302e31000000000000000000000000000000000000000000000000000000602060405161106a81610496565b60058152015260405160208101917f8b73c3c69bb8fe3d512ecc4cf759cc79239f7b179b0ffacaa9a75d522b39400f83527fa493ff226186ed9712809d71f428d7f274876a4f2b9236f1762ec84b059ae32b60408301527fae209a0b48f21c054280f2455d32cf309387644879d9acbd8ffc199163811885606083015260808201523060a082015260a0815260c0810181811067ffffffffffffffff821117611117575b60405251902090565b61111f61040a565b61110e565b1561112b57565b608460405162461bcd60e51b815260206004820152602e60248201527f496e697469616c697a61626c653a20636f6e747261637420697320616c72656160448201527f647920696e697469616c697a65640000000000000000000000000000000000006064820152fd5b6111b460ff60005460081c166111aa8161121e565b476111f05761121e565b6001600160a01b037f3c344650e40c6608a176dc19a4b7c111d92b7e4d03081787ac55837ca120d11b91166001600160a01b0319825416179055565b476040519081527f3317af6e3247959c45cb6051f9153437a9072683e21eda1f9b52c5bcec0e89c260203392a25b1561122557565b608460405162461bcd60e51b815260206004820152602b60248201527f496e697469616c697a61626c653a20636f6e7472616374206973206e6f74206960448201527f6e697469616c697a696e670000000000000000000000000000000000000000006064820152fd5b6080604091825161129f81610421565b60009281848093528260208201528286820152826060820152015281527f3c344650e40c6608a176dc19a4b7c111d92b7e4d03081787ac55837ca120d11c602052206004604051916112f083610421565b80546001600160a01b0390811684526001820154811660208501526002820154166040840152600381015460608401520154608082015290565b6040513481527f3317af6e3247959c45cb6051f9153437a9072683e21eda1f9b52c5bcec0e89c260203392a2565b61136960ff60005460081c1661121e565b4761137057565b476040519081527f3317af6e3247959c45cb6051f9153437a9072683e21eda1f9b52c5bcec0e89c260203392a2565b60209067ffffffffffffffff81116113b9575b60051b0190565b6113c161040a565b6113b2565b909291926113d38161139f565b916040916113e3835194856104b2565b839581855260208095019160051b83019381851161015e5783925b85841061140e5750505050505050565b67ffffffffffffffff90843582811161015e5786019060608286031261015e5783516114398161044a565b823561144481610163565b8152898301358a8201528483013593841161015e57611467868b95869501610556565b858201528152019301926113fe565b50634e487b7160e01b600052601160045260246000fd5b60019063ffffffff8091169081146114a3570190565b6114ab611476565b0190565b50634e487b7160e01b600052603260045260246000fd5b91908110156114e9575b60051b81013590605e198136030182121561015e570190565b6114f16114af565b6114d0565b156114fd57565b608460405162461bcd60e51b815260206004820152602c60248201527f536d61727457616c6c65743a20696e73756666696369656e742062617365206160448201527f737365742062616c616e636500000000000000000000000000000000000000006064820152fd5b3561057181610163565b903590601e198136030182121561015e570180359067ffffffffffffffff821161015e5760200191813603831361015e57565b906203d0909182018092116115b557565b610181611476565b919082039182116115b557565b818102929181159184041417156115b557565b5190811515820361015e57565b9081602091031261015e57610571906115dd565b93959092611627909592956116215a9761161936888a6113c6565b92369161051f565b90611af9565b94611630611a21565b60005b63ffffffff8116858110156116c157906116b782886116af6116a56116bc9661166e478d6116656020948592896114c6565b013511156114f6565b61169b858d61169561168961168484848b6114c6565b611567565b6001600160a01b031690565b966114c6565b0135938b8d6114c6565b6040810190611571565b92909161203c565b61148d565b611633565b5050949250946117be935061168961176e6117cc9261173e61173361172c6117266117216117107f3c344650e40c6608a176dc19a4b7c111d92b7e4d03081787ac55837ca120d11b5460a01c90565b6bffffffffffffffffffffffff1690565b61128f565b9a6115a4565b5a906115bd565b60808a0151906115ca565b9460408901956fffffffffffffffffffffffffffffffff61176688516001600160a01b031690565b9116926125f7565b9483876117838896516001600160a01b031690565b6001600160a01b03968791826117a46020809601516001600160a01b031690565b1692168214611874575b505050516001600160a01b031690565b95516001600160a01b031690565b818516146117db575b50505050565b6117f06116896065546001600160a01b031690565b90813b1561015e57604051631b63c28b60e11b81526001600160a01b03938416600482015233602482015293168216604484015292166064820152906000908290608490829084905af18015611867575b61184e575b8080806117d5565b8061185b61186192610466565b8061071c565b38611846565b61186f610ca7565b611841565b6040517f70a0823100000000000000000000000000000000000000000000000000000000815230600482015261197c9284926118cd9290918490829060249082905afa908115611a14575b6000916119f7575b506115bd565b8a6118e561168961168988516001600160a01b031690565b6040517fa9059cbb000000000000000000000000000000000000000000000000000000008082523360048301526024820193909352908490829060449082906000905af180156119ea575b6119cd575b508a60006119506116896116898a516001600160a01b031690565b9260405196879586948593845260048401602090939291936001600160a01b0360408201951681520152565b03925af180156119c0575b611992575b886117ae565b816119b192903d106119b9575b6119a981836104b2565b8101906115ea565b50388061198c565b503d61199f565b6119c8610ca7565b611987565b6119e390843d86116119b9576119a981836104b2565b5038611935565b6119f2610ca7565b611930565b611a0e9150843d8611610403576103f481836104b2565b386118c7565b611a1c610ca7565b6118bf565b7f3c344650e40c6608a176dc19a4b7c111d92b7e4d03081787ac55837ca120d11b80546001600160a01b036001600160a01b031960018360a01c6bffffffffffffffffffffffff8114611a7b575b0160a01b169116179055565b611a83611476565b611a6f565b15611a8f57565b608460405162461bcd60e51b815260206004820152602760248201527f454344534157616c6c65743a206661696c656420746f2076657269667920736960448201527f676e6174757265000000000000000000000000000000000000000000000000006064820152fd5b81908151820160208101906040948591031261015e57602083015192848101519067ffffffffffffffff821161015e57019181603f8401121561015e57602083015190611b45826104f4565b92611b52875194856104b2565b82845286838601011161015e5761057194611b7a611c5193611c569689602088019101610fe3565b611c07611c15611b92611b8c84611006565b94611f33565b7f3c344650e40c6608a176dc19a4b7c111d92b7e4d03081787ac55837ca120d11b5499517f7b253295b5dfff9d0fc334143cf4781476ceb0801f093453e989c297bcb5da4660208201908152604082019290925260a08b811c60608301524660808301528101949094529291829060c0820190565b03601f1981018352826104b2565b51902090604291604051917f19010000000000000000000000000000000000000000000000000000000000008352600283015260228201522090565b611c6a565b916001600160a01b03808416911614611a88565b61057191611c7791611dda565b919091611c9f565b60051115611c8957565b634e487b7160e01b600052602160045260246000fd5b611ca881611c7f565b80611cb05750565b611cb981611c7f565b60018103611d065760405162461bcd60e51b815260206004820152601860248201527f45434453413a20696e76616c6964207369676e617475726500000000000000006044820152606490fd5b611d0f81611c7f565b60028103611d5c5760405162461bcd60e51b815260206004820152601f60248201527f45434453413a20696e76616c6964207369676e6174757265206c656e677468006044820152606490fd5b80611d68600392611c7f565b14611d6f57565b60405162461bcd60e51b815260206004820152602260248201527f45434453413a20696e76616c6964207369676e6174757265202773272076616c60448201527f75650000000000000000000000000000000000000000000000000000000000006064820152608490fd5b906041815114600014611e0857611e04916020820151906060604084015193015160001a90611e12565b9091565b5050600090600290565b9291907f7fffffffffffffffffffffffffffffff5d576e7357a4501ddfe92f46681b20a08311611e965791608094939160ff602094604051948552168484015260408301526060820152600093849182805260015afa15611e89575b81516001600160a01b03811615611e83579190565b50600190565b611e91610ca7565b611e6e565b50505050600090600390565b90611eac8261139f565b611eb960405191826104b2565b8281528092611eca601f199161139f565b0190602036910137565b60019060001981146114a3570190565b6020918151811015611ef9575b60051b010190565b611f016114af565b611ef1565b805160208092019160005b828110611f1f575050505090565b835185529381019392810192600101611f11565b90611f3e8251611ea2565b60005b8351811015611ffc5780611f69611f5b611ff79387611ee4565b51516001600160a01b031690565b6020611fe481611f79858a611ee4565b51015191611c07604080611f8d888d611ee4565b5101518381519101209051948593840196876060919493926001600160a01b0360808301967f8de9c86fbdd52e2efe5d4e29fd947a8389e0d8945fed5eef2d0dff9745e601c7845216602083015260408201520152565b519020611ff18285611ee4565b52611ed4565b611f41565b5090915060405161201581611c07602082018095611f06565b51902090565b908060209392818452848401376000828201840152601f01601f1916010190565b6001600160a01b037f202ca0633e9bf52b1d9ffc5784badd7db89fdd8a05bea524c99853429017f7ae919492939416916000806040518388823780848101838152039087875af1936120a961208f610ef7565b96604051938493845260406020850152604084019161201b565b0390a2156120b45750565b602081519101fd5b156120c357565b606460405162461bcd60e51b815260206004820152601160248201527f67617320507269636520746f6f206c6f770000000000000000000000000000006044820152fd5b604051906080820182811067ffffffffffffffff82111761213e575b60405260006060838281528260208201528260408201520152565b61214661040a565b612123565b359065ffffffffffff8216820361015e57565b949391949290926001600160a01b0380941681526060602090808284015260c08301958835601e198a36030181121561015e5789019183833593019767ffffffffffffffff841161015e578360071b3603891361015e57928193828294938801525260e0850197926000915b83831061220f575050505050866121fb6121eb604093610571999a016101aa565b6001600160a01b03166080850152565b013560a0820152604081850391015261201b565b9091929398600190828b3561222381610163565b16815282878c013561223481610163565b168188015265ffffffffffff60408161224e828f0161214b565b169083015261225e858d0161214b565b168185015260809081019a0194930191906121ca565b969791959998909394929461228e6359682f008a116120bc565b606580546001600160a01b0319166001600160a01b039586161790556122b2612107565b506122bb6104d4565b6001600160a01b03821681529030602083019081529b6122ea60408401968b1687906001600160a01b03169052565b6001600160a01b03871660608401908152936123116116896065546001600160a01b031690565b803b1561015e57612358916040519485809481937f2a2d80d100000000000000000000000000000000000000000000000000000000835260009b8c9889956004860161215e565b03925af1801561244e575b61243b575b506123b46123a66117be61239861238a6116896065546001600160a01b031690565b94516001600160a01b031690565b9d516001600160a01b031690565b92516001600160a01b031690565b93813b1561243757604051631b63c28b60e11b81526001600160a01b039c8d166004820152908c166024820152918b1660448301529290991660648a015296976101819790918290608490829084905af1801561242a575b612417575b5061245b565b8061185b61242492610466565b38612411565b612432610ca7565b61240c565b8380fd5b8061185b61244892610466565b38612368565b612456610ca7565b612363565b93916004939161255a916125396040519761247589610421565b6001600160a01b0393848092168a528160208b01911681528160408b019416845260608a0196875260808a019788527f3c344650e40c6608a176dc19a4b7c111d92b7e4d03081787ac55837ca120d11b5460a01c6000527f3c344650e40c6608a176dc19a4b7c111d92b7e4d03081787ac55837ca120d11c6020526125188260406000209b51168b906001600160a01b03166001600160a01b0319825416179055565b511660018901906001600160a01b03166001600160a01b0319825416179055565b511660028601906001600160a01b03166001600160a01b0319825416179055565b51600384015551910155565b9081602091031261015e575161057181610163565b519061ffff8216820361015e57565b908160e091031261015e5780516125a081610163565b9160208201518060020b810361015e57916125bd6040820161257b565b916125ca6060830161257b565b916125d76080820161257b565b9160a082015163ffffffff8116810361015e5760c06105719193016115dd565b929190617a69461461278d576040517f1698ee820000000000000000000000000000000000000000000000000000000081526001600160a01b03948516600482015290841660248201526109c4604482015291929182916020908290606490829086165afa908115612780575b600091612752575b5016801561273b5760e0600491604051928380927f3850c7bd0000000000000000000000000000000000000000000000000000000082525afa90811561272e575b6000916126fa575b5016906fffffffffffffffffffffffffffffffff8083116126e5576126dd83610571946115ca565b911690612842565b6126f283610571946127a6565b9116906127f0565b61271b915060e03d8111612727575b61271381836104b2565b81019061258a565b505050505050386126b5565b503d612709565b612736610ca7565b6126ad565b50506fffffffffffffffffffffffffffffffff1690565b612773915060203d8111612779575b61276b81836104b2565b810190612566565b3861266c565b503d612761565b612788610ca7565b612664565b50506fffffffffffffffffffffffffffffffff91501690565b60001982820990828102928380841093039280840393146127e75768010000000000000000918383111561015e570990828211900360c01b910360401c1790565b50505060401c90565b600019828209908281029283808410930392808403931461283957700100000000000000000000000000000000918383111561015e570990828211900360801b910360801c1790565b50505060801c90565b6000198282099082810292838084109303928084039314612893577801000000000000000000000000000000000000000000000000918383111561015e570990828211900360401b910360c01c1790565b50505060c01c9056fea2646970667358221220c2a653b230e68daa9d901ff4c013c8ef7f56c62c9b0db0670288b6b2512f02e564736f6c63430008110033",
  "devdoc": {
    "kind": "dev",
    "methods": {
      "owner()": {
        "details": "Returns the address of the current owner."
      },
      "renounceOwnership()": {
        "details": "Leaves the contract without owner. It will not be possible to call `onlyOwner` functions. Can only be called by the current owner. NOTE: Renouncing ownership will leave the contract without an owner, thereby disabling any functionality that is only available to the owner."
      },
      "transferOwnership(address)": {
        "details": "Transfers ownership of the contract to a new account (`newOwner`). Can only be called by the current owner."
      }
    },
    "version": 1
  },
  "userdoc": {
    "kind": "user",
    "methods": {},
    "version": 1
  },
  "storageLayout": {
    "storage": [
      {
        "astId": 2685,
        "contract": "contracts/ECDSAWalletFactory.sol:ECDSAWalletFactory",
        "label": "_owner",
        "offset": 0,
        "slot": "0",
        "type": "t_address"
      },
      {
        "astId": 4965,
        "contract": "contracts/ECDSAWalletFactory.sol:ECDSAWalletFactory",
        "label": "factory",
        "offset": 0,
        "slot": "1",
        "type": "t_contract(SmartWalletFactory)5777"
      },
      {
        "astId": 4968,
        "contract": "contracts/ECDSAWalletFactory.sol:ECDSAWalletFactory",
        "label": "wallet",
        "offset": 0,
        "slot": "2",
        "type": "t_contract(ECDSAWallet)4955"
      }
    ],
    "types": {
      "t_address": {
        "encoding": "inplace",
        "label": "address",
        "numberOfBytes": "20"
      },
      "t_contract(ECDSAWallet)4955": {
        "encoding": "inplace",
        "label": "contract ECDSAWallet",
        "numberOfBytes": "20"
      },
      "t_contract(SmartWalletFactory)5777": {
        "encoding": "inplace",
        "label": "contract SmartWalletFactory",
        "numberOfBytes": "20"
      }
    }
  }
}