{
  "address": "0x6b4Ec059199883dfE189E8f131d2e79044a52eA3",
  "abi": [
    {
      "inputs": [
        {
          "internalType": "contract SmartWalletFactory",
          "name": "_factory",
          "type": "address"
        }
      ],
      "stateMutability": "nonpayable",
      "type": "constructor"
    },
    {
      "inputs": [
        {
          "internalType": "address",
          "name": "_owner",
          "type": "address"
        }
      ],
      "name": "createWallet",
      "outputs": [
        {
          "internalType": "contract IWallet",
          "name": "",
          "type": "address"
        }
      ],
      "stateMutability": "payable",
      "type": "function"
    },
    {
      "inputs": [],
      "name": "factory",
      "outputs": [
        {
          "internalType": "contract SmartWalletFactory",
          "name": "",
          "type": "address"
        }
      ],
      "stateMutability": "view",
      "type": "function"
    },
    {
      "inputs": [],
      "name": "wallet",
      "outputs": [
        {
          "internalType": "contract ECDSAWallet",
          "name": "",
          "type": "address"
        }
      ],
      "stateMutability": "view",
      "type": "function"
    },
    {
      "inputs": [
        {
          "internalType": "address",
          "name": "_owner",
          "type": "address"
        },
        {
          "internalType": "uint256",
          "name": "_nonce",
          "type": "uint256"
        }
      ],
      "name": "walletAddress",
      "outputs": [
        {
          "internalType": "address",
          "name": "",
          "type": "address"
        }
      ],
      "stateMutability": "view",
      "type": "function"
    }
  ],
  "transactionHash": "0x819d4c9135363bfcd787079e4de0a1f26d37cb15970520b594cd7859b1957d58",
  "args": [
    "0x518B14d78DF55F51508281F58352E1607177B685"
  ],
  "numDeployments": 17,
  "solcInputHash": "e19069992a7c36fcfd744f12175c08e2",
  "bytecode": "0x60803461014957601f61464738819003918201601f19168301926000926001600160401b03928386118387101761013557816020928492604098895283398101031261013157516001600160a01b03808216929183900361012d5784516141a38082019082821085831117610119579082916104a48339039085f0801561010f57169060018060a01b03199180836001541617600155803b1561010b57908480926024885180958193636fc0109960e11b83528160048401525af18015610101576100da575b505082541617905551610355908161014f8239f35b81949294116100ed5784529138806100c5565b634e487b7160e01b82526041600452602482fd5b86513d87823e3d90fd5b8480fd5b85513d86823e3d90fd5b634e487b7160e01b87526041600452602487fd5b8380fd5b8280fd5b634e487b7160e01b85526041600452602485fd5b600080fdfe60806040818152600436101561001457600080fd5b600091823560e01c9081631238ac7c1461019957508063521eb27314610172578063b054a9e8146100765763c45a01551461004e57600080fd5b346100725781600319360112610072576001600160a01b0360209254169051908152f35b5080fd5b509060209182600319360112610072579061010a91610093610257565b91846001600160a01b039384835416856001541686865193636fc0109960e11b86860152166024840152602483526100ca83610272565b85518098819482937feebc8e19000000000000000000000000000000000000000000000000000000008452600484015288602484015260448301906102df565b039134905af1938415610166578194610127575b50505191168152f35b909193508481813d831161015f575b61014081836102bd565b81010312610072575190828216820361015c575091388061011e565b80fd5b503d610136565b509051903d90823e3d90fd5b50346100725781600319360112610072576020906001600160a01b03600154169051908152f35b905034610253578160031936011261025357610231916101b7610257565b936001600160a01b039485938483541685600154166020988994636fc0109960e11b86860152166024840152602483526101f083610272565b85518098819482937fd1e64ad700000000000000000000000000000000000000000000000000000000845260048401526060602484015260648301906102df565b602435604483015203915afa9384156101665781946101275750505191168152f35b8280fd5b600435906001600160a01b038216820361026d57565b600080fd5b6060810190811067ffffffffffffffff82111761028e57604052565b7f4e487b7100000000000000000000000000000000000000000000000000000000600052604160045260246000fd5b90601f8019910116810190811067ffffffffffffffff82111761028e57604052565b919082519283825260005b84811061030b575050826000602080949584010152601f8019910116010190565b6020818301810151848301820152016102ea56fea26469706673582212206b3118d8911c9425eb566f2e99d8dd5641a4786760ef20e41284f053887fc53e64736f6c6343000811003360a08060405234610031573060805261416c9081610037823960805181818161046c015281816108fb0152610a790152f35b600080fdfe60806040526004361015610023575b361561001957600080fd5b610021612023565b005b60003560e01c806309b46861146101b3578063252f5a17146101aa57806334fe6a65146101a15780633659cfe61461019857806336c785161461018f57806338ef7a1f146101865780634967c38d1461017d5780634f1ef2861461017457806352d1902d1461016b57806364d4c8191461016257806365fb372c1461015957806387517c45146101505780638901e25b146101475780638da5cb5b1461013e578063927da105146101355780639fa5ea7e1461012c578063affed0e014610123578063df8021321461011a578063e290f6e1146101115763f0702e8e0361000e5761010c611550565b61000e565b5061010c61145b565b5061010c6111a8565b5061010c611179565b5061010c611076565b5061010c610fd5565b5061010c610fa0565b5061010c610eb9565b5061010c610d54565b5061010c610c30565b5061010c610b38565b5061010c610a5d565b5061010c6108b5565b5061010c61088b565b5061010c610840565b5061010c6105f3565b5061010c610442565b5061010c610408565b5061010c610390565b5061010c610367565b50634e487b7160e01b600052604160045260246000fd5b6060810190811067ffffffffffffffff8211176101ef57604052565b6101f76101bc565b604052565b6080810190811067ffffffffffffffff8211176101ef57604052565b67ffffffffffffffff81116101ef57604052565b6040810190811067ffffffffffffffff8211176101ef57604052565b6020810190811067ffffffffffffffff8211176101ef57604052565b60c0810190811067ffffffffffffffff8211176101ef57604052565b90601f8019910116810190811067ffffffffffffffff8211176101ef57604052565b60405190610100820182811067ffffffffffffffff8211176101ef57604052565b6040519060a0820182811067ffffffffffffffff8211176101ef57604052565b60209067ffffffffffffffff8111610301575b601f01601f19160190565b6103096101bc565b6102f6565b7f302e302e31000000000000000000000000000000000000000000000000000000602060405161033d8161022c565b6005815201527fae209a0b48f21c054280f2455d32cf309387644879d9acbd8ffc19916381188590565b503461038b57600036600319011261038b57602061038361030e565b604051908152f35b600080fd5b503461038b57602036600319011261038b576020610383600435611b39565b7f454344534157616c6c657400000000000000000000000000000000000000000060206040516103de8161022c565b600b815201527fa493ff226186ed9712809d71f428d7f274876a4f2b9236f1762ec84b059ae32b90565b503461038b57600036600319011261038b5760206103836103af565b6001600160a01b0381160361038b57565b359061044082610424565b565b503461038b57602036600319011261038b5760043561046081610424565b6001600160a01b0390817f0000000000000000000000000000000000000000000000000000000000000000169161049983301415611580565b6104c87f360894a13ba1a3210667c828492db98dca3e2076cc3735a920a3ca505d382bbc9382855416146115f1565b30330361038b57604051906104dc82610248565b600082527f4910fdfa16fed3260ed0e7147f7cc6da11a60208b5b9406d12a635614ffd91435460ff161561051657505061002191506116ef565b6020600491604094939451928380926352d1902d60e01b825286165afa600091816105c3575b506105b05760405162461bcd60e51b815260206004820152602e60248201527f45524331393637557067726164653a206e657720696d706c656d656e7461746960448201527f6f6e206973206e6f7420555550530000000000000000000000000000000000006064820152608490fd5b0390fd5b610021936105be911461167e565b61179c565b6105e591925060203d81116105ec575b6105dd8183610280565b810190611662565b903861053c565b503d6105d3565b503461038b57608036600319011261038b5760043561061181610424565b6024359061061e82610424565b6044359161062b83610424565b6064359161063883610424565b30331480156107c5575b61064b90611989565b6106883361067085610670856001600160a01b03166000526067602052604060002090565b906001600160a01b0316600052602052604060002090565b80549065ffffffffffff8260a01c164211610780576001600160a01b03809216908282036106c0575b5050806100219516931661406d565b90958683821611600014610753576040517fe3082aa500000000000000000000000000000000000000000000000000000000815260206004820152602a60248201527f6661696c656420746f207472616e736665722c20696e73756666696369656e7460448201527f20616c6c6f77616e6365000000000000000000000000000000000000000000006064820152608490fd5b61077a839283836100219a03166001600160a01b03166001600160a01b0319825416179055565b956106b1565b604051622bd21560e71b815260206004820152601e60248201527f7472616e7366657220616c6c6f77616e636520686173206578706972656400006044820152606490fd5b5061064b6001600160a01b03600080516020614117833981519152541633149050610642565b9291926107f7826102e3565b916108056040519384610280565b82948184528183011161038b578281602093846000960137010152565b9080601f8301121561038b5781602061083d933591016107eb565b90565b503461038b57606036600319011261038b5760043567ffffffffffffffff811161038b57610875610021913690600401610822565b6044359061088282610424565b60243590611bd6565b503461038b57600036600319011261038b5760206040516000805160206141178339815191528152f35b50604036600319011261038b576004356108ce81610424565b60243567ffffffffffffffff811161038b576108ee903690600401610822565b906001600160a01b0391827f0000000000000000000000000000000000000000000000000000000000000000169261092884301415611580565b6109577f360894a13ba1a3210667c828492db98dca3e2076cc3735a920a3ca505d382bbc9482865416146115f1565b30330361038b577f4910fdfa16fed3260ed0e7147f7cc6da11a60208b5b9406d12a635614ffd91435460ff161561099457505061002191506116ef565b6020600491604094939451928380926352d1902d60e01b825286165afa60009181610a3d575b50610a2a5760405162461bcd60e51b815260206004820152602e60248201527f45524331393637557067726164653a206e657720696d706c656d656e7461746960448201527f6f6e206973206e6f7420555550530000000000000000000000000000000000006064820152608490fd5b61002193610a38911461167e565b61186e565b610a5691925060203d81116105ec576105dd8183610280565b90386109ba565b503461038b57600036600319011261038b576001600160a01b037f0000000000000000000000000000000000000000000000000000000000000000163003610ace576040517f360894a13ba1a3210667c828492db98dca3e2076cc3735a920a3ca505d382bbc8152602090f35b0390f35b608460405162461bcd60e51b815260206004820152603860248201527f555550535570677261646561626c653a206d757374206e6f742062652063616c60448201527f6c6564207468726f7567682064656c656761746563616c6c00000000000000006064820152fd5b503461038b57600036600319011261038b5760206040517f8b73c3c69bb8fe3d512ecc4cf759cc79239f7b179b0ffacaa9a75d522b39400f8152f35b90600182811c92168015610ba4575b6020831014610b8e57565b634e487b7160e01b600052602260045260246000fd5b91607f1691610b83565b60005b838110610bc15750506000910152565b8181015183820152602001610bb1565b90602091610bea81518092818552858086019101610bae565b601f01601f1916010190565b91608093610c2591979695976001600160a01b038094168552602085015260a0604085015260a0840190610bd1565b951660608201520152565b503461038b5760208060031936011261038b57600090600435825260668152604082206001600160a01b03815416906001908181015493600282016040519387825492610c7c84610b74565b80885293838116908115610d085750600114610ccd575b508787610aca8888610ca7828f0383610280565b6004610cbd60038301546001600160a01b031690565b9101549160405195869586610bf6565b9080949950528783205b828410610cf557505050820190940193610ca782610aca3880610c93565b80548685018a0152928801928101610cd7565b60ff19168887015250505050151560051b8301019450610ca782610aca3880610c93565b6064359065ffffffffffff8216820361038b57565b359065ffffffffffff8216820361038b57565b503461038b57608036600319011261038b57600435610d7281610424565b602435610d7e81610424565b604435610d8a81610424565b610d92610d2c565b903033148015610e93575b610da690611989565b336000526067602052610e4881610dd885610670886040600020906001600160a01b0316600052602052604060002090565b610e2d65ffffffffffff808716968715600014610e8c575042165b82547fffffffffffff000000000000ffffffffffffffffffffffffffffffffffffffff1660a09190911b65ffffffffffff60a01b16178255565b906001600160a01b03166001600160a01b0319825416179055565b604051926001600160a01b03928380931685526020850152169216907fda9fa7c1b00402c17d0161b249b1ab8bbec047c5a52207b9c112deffd817036b60403392a4005b9050610df3565b50610da66001600160a01b03600080516020614117833981519152541633149050610d9d565b503461038b57600080600319360112610f9d578054610eef60ff8260081c161580928193610f8f575b8115610f6f575b506119d4565b80610f02600160ff196000541617600055565b610f56575b610f0f612051565b610f165780f35b610f2661ff001960005416600055565b604051600181527f7f26b83ff96e1f2b6a682f133852f6798a09c465da95921460cefb384740249890602090a180f35b610f6a61010061ff00196000541617600055565b610f07565b303b15915081610f81575b5038610ee9565b6001915060ff161438610f7a565b600160ff8216109150610ee2565b80fd5b503461038b57600036600319011261038b5760206001600160a01b036000805160206141178339815191525416604051908152f35b503461038b57606036600319011261038b57600435610ff381610424565b61104260243561100281610424565b6106706044359161101283610424565b6001600160a01b0380951660005260676020526040600020906001600160a01b0316600052602052604060002090565b54604080519282166001600160a01b0316835265ffffffffffff60a083901c16602084015260d09190911c90820152606090f35b503461038b5760208060031936011261038b576004359067ffffffffffffffff80831161038b573660238401121561038b57826004013581811161038b576024840193602436918360051b01011161038b5760005b63ffffffff81169082821015610021576110f447866110eb85878b6132d9565b01351115612105565b6110ff8284886132d9565b3561110981610424565b6111228661111885878b6132d9565b01359385896132d9565b606081013590601e198136030182121561038b57019081359186831161038b57870193823603851361038b576001600160a01b036111686111749661116f9536916107eb565b92166133cb565b612098565b6110cb565b503461038b57600036600319011261038b5760206000805160206141178339815191525460a01c604051908152f35b503461038b57602036600319011261038b576004356111c681610424565b611208600054916111ec60ff8460081c161580948195610f8f578115610f6f57506119d4565b826111ff600160ff196000541617600055565b61124d57611a45565b61120e57005b61121e61ff001960005416600055565b604051600181527f7f26b83ff96e1f2b6a682f133852f6798a09c465da95921460cefb384740249890602090a1005b61126161010061ff00196000541617600055565b611a45565b60209067ffffffffffffffff8111611280575b60051b0190565b6112886101bc565b611279565b91606092838184031261038b5760408051916112a8836101d3565b8294813567ffffffffffffffff811161038b57820181601f8201121561038b578035906112d482611266565b916112e186519384610280565b808352602093848085019260071b8401019281841161038b578501915b8383106113275750505050848495969798505261131c818301610435565b908501520135910152565b60808383031261038b57856080918d8a5190611342826101fc565b863561134d81610424565b82528387013561135c81610424565b8483015261136b8c8801610d41565b8c83015261137a818801610d41565b908201528152019201916112fe565b9080601f8301121561038b5781356113a081611266565b926040916113b083519586610280565b808552602093848087019260051b8401019381851161038b57858401925b8584106113df575050505050505090565b67ffffffffffffffff843581811161038b57860191608080601f19858803011261038b5784519061140f826101fc565b8a85013561141c81610424565b8252858501358b830152606090818601358784015285013593841161038b5761144c878c80979681970101610822565b908201528152019301926113ce565b503461038b5760031960403682011261038b5760049081359067ffffffffffffffff9081831161038b5761010090833603011261038b5761149a6102a2565b918084013582811161038b576114b59085369184010161128d565b8352602481013582811161038b576114d290853691840101611389565b602084015260448101359082821161038b576114f560e492863691840101611389565b604085015261150660648201610435565b60608501526084810135608085015260a481013560a085015260c481013560c0850152013560e083015260243590811161038b576100219261154a91369101610822565b90612176565b503461038b57600036600319011261038b5760206040517311632f9766ee9d9317f95562a6bd529652ead78f8152f35b1561158757565b608460405162461bcd60e51b815260206004820152602c60248201527f46756e6374696f6e206d7573742062652063616c6c6564207468726f7567682060448201527f64656c656761746563616c6c00000000000000000000000000000000000000006064820152fd5b156115f857565b608460405162461bcd60e51b815260206004820152602c60248201527f46756e6374696f6e206d7573742062652063616c6c6564207468726f7567682060448201527f6163746976652070726f787900000000000000000000000000000000000000006064820152fd5b9081602091031261038b575190565b506040513d6000823e3d90fd5b1561168557565b608460405162461bcd60e51b815260206004820152602960248201527f45524331393637557067726164653a20756e737570706f727465642070726f7860448201527f6961626c655555494400000000000000000000000000000000000000000000006064820152fd5b803b15611732576001600160a01b037f360894a13ba1a3210667c828492db98dca3e2076cc3735a920a3ca505d382bbc91166001600160a01b0319825416179055565b608460405162461bcd60e51b815260206004820152602d60248201527f455243313936373a206e657720696d706c656d656e746174696f6e206973206e60448201527f6f74206120636f6e7472616374000000000000000000000000000000000000006064820152fd5b906117a6826116ef565b6001600160a01b0382167fbc7cd75a20ee27fd9adebab32041f755214dbc6bffa90cc0225b39da2e5c2d3b600080a2805115801590611866575b6117e8575050565b61186391600080604051936117fc856101d3565b602785527f416464726573733a206c6f772d6c6576656c2064656c65676174652063616c6c60208601527f206661696c6564000000000000000000000000000000000000000000000000006040860152602081519101845af461185d6118c1565b916118f1565b50565b5060006117e0565b90611878826116ef565b6001600160a01b0382167fbc7cd75a20ee27fd9adebab32041f755214dbc6bffa90cc0225b39da2e5c2d3b600080a28051158015906118b9576117e8575050565b5060016117e0565b3d156118ec573d906118d2826102e3565b916118e06040519384610280565b82523d6000602084013e565b606090565b919290156119525750815115611905575090565b3b1561190e5790565b606460405162461bcd60e51b815260206004820152601d60248201527f416464726573733a2063616c6c20746f206e6f6e2d636f6e74726163740000006044820152fd5b8251909150156119655750805190602001fd5b6105ac9060405191829162461bcd60e51b8352602060048401526024830190610bd1565b1561199057565b606460405162461bcd60e51b815260206004820152601b60248201527f4f6e6c792077616c6c6574207369676e65727320616c6c6f77656400000000006044820152fd5b156119db57565b608460405162461bcd60e51b815260206004820152602e60248201527f496e697469616c697a61626c653a20636f6e747261637420697320616c72656160448201527f647920696e697469616c697a65640000000000000000000000000000000000006064820152fd5b611a6460ff60005460081c16611a5a81611ac8565b47611a9a57611ac8565b6001600160a01b0319906001600160a01b0360008051602061411783398151915291168282541617905533906065541617606555565b476040519081527f3317af6e3247959c45cb6051f9153437a9072683e21eda1f9b52c5bcec0e89c260203392a25b15611acf57565b608460405162461bcd60e51b815260206004820152602b60248201527f496e697469616c697a61626c653a20636f6e7472616374206973206e6f74206960448201527f6e697469616c697a696e670000000000000000000000000000000000000000006064820152fd5b611b416103af565b90611b4a61030e565b906040519160208301937f8b73c3c69bb8fe3d512ecc4cf759cc79239f7b179b0ffacaa9a75d522b39400f85526040840152606083015260808201523060a082015260a08152611b9981610264565b51902090565b9081602091031261038b57516001600160e01b03198116810361038b5790565b60409061083d939281528160208201520190610bd1565b9091803b611c60575b3b15611be9575050565b805160418103611c06575061044091611c0191611e43565b611ce6565b604003611c1a5761044091611c0191611f63565b604051630e753c0b60e01b815260206004820152601b60248201527f5369676e6174757265206c656e67746820697320496e76616c696400000000006044820152606490fd5b611ca6604051630b135d3f60e11b815260208180611c82878960048401611bbf565b03816001600160a01b0387165afa908115611cd9575b600091611cab575b50611d9a565b611bdf565b611ccc915060203d8111611cd2575b611cc48183610280565b810190611b9f565b38611ca0565b503d611cba565b611ce1611671565b611c98565b6001600160a01b03809116908115611d5557600080516020614117833981519152541603611d1057565b6064604051630e753c0b60e01b815260206004820152602060248201527f5369676e6572206973206e6f7420536d6172742057616c6c6574204f776e65726044820152fd5b606460405163151a7bff60e11b815260206004820152601160248201527f496e76616c6964205369676e61747572650000000000000000000000000000006044820152fd5b6001600160e01b0319630b135d3f60e11b911603611db457565b6064604051630e753c0b60e01b815260206004820152601760248201527f496e76616c696420436f6e7472616374205369676e65720000000000000000006044820152fd5b919082604091031261038b576020825192015190565b50634e487b7160e01b600052603260045260246000fd5b606090805160401015611e37570190565b611e3f611e0f565b0190565b906041825103611eed5781600091611ecb611e78611ea4611e9e611e706020809951880101898801611df9565b939096611e26565b517fff000000000000000000000000000000000000000000000000000000000000001690565b60f81c90565b93604051948594859094939260ff6060936080840197845216602083015260408201520152565b838052039060015afa15611ee0575b60005190565b611ee8611671565b611eda565b606460405163151a7bff60e11b815260206004820152601c60248201527f436c617373696320736967206c656e2073686f756c64206265203635000000006044820152fd5b50634e487b7160e01b600052601160045260246000fd5b60ff601b9116019060ff8211611f5b57565b610440611f32565b906040825103611fde577f7fffffffffffffffffffffffffffffffffffffffffffffffffffffffffffffff600091611ecb611fa8856020808098518301019101611df9565b9290611fb68460ff1c611f49565b6040519586951692859094939260ff6060936080840197845216602083015260408201520152565b606460405163151a7bff60e11b815260206004820152601c60248201527f436f6d7061637420736967206c656e2073686f756c64206265203634000000006044820152fd5b6040513481527f3317af6e3247959c45cb6051f9153437a9072683e21eda1f9b52c5bcec0e89c260203392a2565b61206260ff60005460081c16611ac8565b4761206957565b476040519081527f3317af6e3247959c45cb6051f9153437a9072683e21eda1f9b52c5bcec0e89c260203392a2565b60019063ffffffff8091169081146120ae570190565b611e3f611f32565b604090805160011015611e37570190565b6080906060518110156120db5760051b0190565b611288611e0f565b60209181518110156120f8575b60051b010190565b612100611e0f565b6120f0565b1561210c57565b608460405162461bcd60e51b815260206004820152602c60248201527f536d61727457616c6c65743a20696e73756666696369656e742062617365206160448201527f737365742062616c616e636500000000000000000000000000000000000000006064820152fd5b90915a61218384846124ac565b61218b61300e565b60a083015160c084015192602095868601928351958046149182612257575b505061224b575b60005b855163ffffffff82169081101561223a579061116f87612235936121e8478d6121de848c516120e3565b5101511115612105565b606061222c8d6122228461221c612210612202838a6120e3565b51516001600160a01b031690565b6001600160a01b031690565b966120e3565b510151928c6120e3565b510151916133cb565b6121b4565b505093509450509161044092612968565b604086015194506121b1565b1415905038806121aa565b919060408382031261038b5782519260208101519067ffffffffffffffff821161038b570181601f8201121561038b57805161229d816102e3565b926122ab6040519485610280565b8184526020828401011161038b5761083d9160208085019101610bae565b90601f81116122d757505050565b600091825260208220906020601f850160051c83019410612313575b601f0160051c01915b82811061230857505050565b8181556001016122fc565b90925082906122f3565b815181546001600160a01b0319166001600160a01b039190911617815590602090818101519160019283850155600284019060408301519384519167ffffffffffffffff831161246d575b61237c836123768654610b74565b866122c9565b80601f84116001146123f757509180809260809695946004986000946123ec575b50501b916000199060031b1c19161790555b6123e56123c660608301516001600160a01b031690565b60038601906001600160a01b03166001600160a01b0319825416179055565b0151910155565b01519250388061239d565b91939495601f19841661240f87600052602060002090565b936000905b828210612456575050916004979593918560809896941061243d575b505050811b0190556123af565b015160001960f88460031b161c19169055388080612430565b808886978294978701518155019601940190612414565b6124756101bc565b612368565b906124a16060936001600160a01b0392979695978452608060208501526080840190610bd1565b951660408201520152565b61261a917ffcd9cc555d2f82c5f75a967488b70edab6da722c5eb2587b5fb65a8dc4f21f4b916124e56020835184010160208401612262565b949061254c836125396124f784611b39565b61250083613c48565b90604291604051917f19010000000000000000000000000000000000000000000000000000000000008352600283015260228201522090565b9261254760808301516130f3565b613063565b612577600080516020614117833981519152968261257189546001600160a01b031690565b91611bd6565b6125818351612e45565b612607606087549401966125f861259f89516001600160a01b031690565b6125f38760a01c6125dd6125b16102c3565b6001600160a01b039a8b168152938860208601528b604086015260608501906001600160a01b03169052565b8060808401526000526066602052604060002090565b61231d565b5496516001600160a01b031690565b60405194859488169760a01c928561247a565b0390a2565b5190811515820361038b57565b9081602091031261038b5761083d9061261f565b906188b8918201809211611f5b57565b9060018201809211611f5b57565b91908201809211611f5b57565b91908203918211611f5b57565b90600582029180830460051490151715611f5b57565b90633b9aca0091828102928184041490151715611f5b57565b906103e591828102928184041490151715611f5b57565b906103e891828102928184041490151715611f5b57565b81810292918115918404141715611f5b57565b9081602091031261038b575161083d81610424565b6040519061270a826101d3565b602d82527f743136302c6164647265737329000000000000000000000000000000000000006040837f7472616e7366657246726f6d28616464726573732c616464726573732c75696e60208201520152565b604051906127698261022c565b601c82527f7665726966794272696467655265712862797465732c627974657329000000006020830152565b90606081019180516060835280518094526080808401946020809301916000905b8282106127de5750505050808201516001600160a01b03169083015260409081015191015290565b909192968482826128266001948c516060906001600160a01b0380825116845260208201511660208401528165ffffffffffff91826040820151166040860152015116910152565b019801939201906127b6565b90815180825260208092019182818360051b85019501936000915b84831061285d5750505050505090565b90919293949584806128a683856001950387528a516001600160a01b03815116825283810151848301526040808201519083015260608091015191608080928201520190610bd1565b980193019301919493929061284d565b60208152815160e061290a6128d961010093846020870152610120860190612795565b6128f5602087015191601f199283888303016040890152612832565b90604087015190868303016060870152612832565b60608501516001600160a01b0316608085015293608081015160a085015260a081015160c085015260c081015182850152015191015290565b909161295a61083d93604084526040840190610bd1565b916020818403910152610bd1565b91906129786122028251516120b6565b9161298e6122106065546001600160a01b031690565b9260409381612a10612a0b612a066129ff89519a7f3315389a000000000000000000000000000000000000000000000000000000008c5260209b8c81806129e88a600483019190916001600160a01b036020820193169052565b03818b5afa8015612d0b575b612cde575b50612640565b5a9061266b565b612678565b61268e565b918651927f4aa4a4fc0000000000000000000000000000000000000000000000000000000084528884600481855afa938415612cd1575b600094612cad575b5090600491898951927f396abe0600000000000000000000000000000000000000000000000000000000845281848681845afa938415612ca0575b600094612c81575b508a51948580927fbcd292c70000000000000000000000000000000000000000000000000000000082525afa928315612c74575b600093612c33575b506fffffffffffffffffffffffffffffffff1692612aeb9461349e565b6001600160a01b0316612afc6126fd565b92612b0561275c565b9660008051602061411783398151915254612b26906001600160a01b031690565b94875190828151910120612b41906001600160e01b03191690565b90612b4b90610218565b8751828101919091526001600160a01b03958616602482015233604482015283861660648201529484166084808701919091528552601f1991612b8f60a487610280565b87519081612b9f898583016128b6565b038481018352612baf9083610280565b885199838151910120612bc9906001600160e01b03191690565b99612bd390610218565b8851998a938401526024830191612be992612943565b039081018752612bf99087610280565b6001600160a01b0316612c0b916131c0565b612c159030613309565b8051612c2090612d18565b015151612c2a5750565b6104409061337b565b6fffffffffffffffffffffffffffffffff919350612c66908b3d8d11612c6d575b612c5e8183610280565b8101906126e8565b9290612ace565b503d612c54565b612c7c611671565b612ac6565b612c99919450823d8411612c6d57612c5e8183610280565b9238612a92565b612ca8611671565b612a8a565b600492919450612cc9908a3d8c11612c6d57612c5e8183610280565b939091612a4f565b612cd9611671565b612a47565b612cfd908d803d10612d04575b612cf58183610280565b81019061262c565b50386129f9565b503d612ceb565b612d13611671565b6129f4565b9060005b60605160ff821690811015612e3f5790612e1f612df785612d9b612de9600196612d9b612202612de3612d76600080516020614117833981519152612dd6612dc66020612db2612d8f612d7686546001600160a01b031690565b6001600160a01b03166000526067602052604060002090565b612d9b6122028c6120c7565b6001600160a01b0316600052602052604060002090565b9b019a612d9b8c516001600160a01b031690565b6001600160a01b03198154169055565b546001600160a01b031690565b926120c7565b91516001600160a01b031690565b7fffffffffffff000000000000ffffffffffffffffffffffffffffffffffffffff8154169055565b60ff809116908114612e32575b01612d1c565b612e3a611f32565b612e2c565b50509050565b602080820191612e5c83516001600160a01b031690565b8151519360005b858110612e7257505050505050565b612e8661221083516001600160a01b031690565b612e93575b600101612e63565b80845190612ea0916120e3565b516060015165ffffffffffff1681855190612eba916120e3565b51516001600160a01b0316908683875190612ed4916120e3565b5101516001600160a01b03166040908185895190612ef1916120e3565b51015165ffffffffffff169260008051602061411783398151915289828685878d8b8754612f25906001600160a01b031690565b612f42906001600160a01b03166000526067602052604060002090565b90612f5f91906001600160a01b0316600052602052604060002090565b90612f7c91906001600160a01b0316600052602052604060002090565b9465ffffffffffff808754612f919060d01c90565b1690861690612f9f9161316c565b0151612faa90613173565b612fb393613433565b5492516001600160a01b03928316815265ffffffffffff948516602082015293166040840152868116938116929116907fc6a377bfc4eb120024a8ac08eef205be16b817020812c73223e81d1bdb9708ec90606090a4612e8b565b60008051602061411783398151915280546001600160a01b036001600160a01b031960018360a01c6bffffffffffffffffffffffff8114613056575b0160a01b169116179055565b61305e611f32565b61304a565b9060e001510361306f57565b60846040517f78b9146600000000000000000000000000000000000000000000000000000000815260206004820152602760248201527f73696720636861696e20646f6573206e6f7420657175616c2070726f7669646560448201527f642076616c7565000000000000000000000000000000000000000000000000006064820152fd5b6000805160206141178339815191525460a01c0361310d57565b6040517f73fe9fad00000000000000000000000000000000000000000000000000000000815260206004820152601660248201527f696e76616c6964206e6f6e63652070726f7669646564000000000000000000006044820152606490fd5b0361310d57565b42101561317c57565b6064604051622bd21560e71b815260206004820152601c60248201527f7065726d6974207369676e6174757265206861732065787069726564000000006044820152fd5b60206001600160a01b0391602483600080516020614117833981519152541660405194859384927f70a082310000000000000000000000000000000000000000000000000000000084526004840152165afa9081156132cc575b6000916132ae575b501061322a57565b60846040517fc2ce16ea00000000000000000000000000000000000000000000000000000000815260206004820152602160248201527f496e75736566666963656e742062616c616e6365206f6620666565206173736560448201527f74000000000000000000000000000000000000000000000000000000000000006064820152fd5b6132c6915060203d81116105ec576105dd8183610280565b38613222565b6132d4611671565b61321a565b91908110156132fc575b60051b81013590607e198136030182121561038b570190565b613304611e0f565b6132e3565b6001600160a01b031660008083516020850182855af1907f202ca0633e9bf52b1d9ffc5784badd7db89fdd8a05bea524c99853429017f7ae61336861334c6118c1565b9460405191829160008352604060208401526040830190610bd1565b0390a2156133735750565b602081519101fd5b80516000807311632f9766ee9d9317f95562a6bd529652ead78f926020850182855af1907f202ca0633e9bf52b1d9ffc5784badd7db89fdd8a05bea524c99853429017f7ae61336861334c6118c1565b6001600160a01b0390929192167f202ca0633e9bf52b1d9ffc5784badd7db89fdd8a05bea524c99853429017f7ae60008084516020860187865af19261340f6118c1565b946133686040519283928352604060208401526040830190610bd1565b1561038b57565b929091600165ffffffffffff60a01b6001600160a01b037fffffffffffff00000000000000000000000000000000000000000000000000009365ffffffffffff908181161560001461349657504216955b169460a01b16920160d01b1617179055565b905095613484565b919493929094600095600093617a6946146136ed57906134bf93929161370a565b919060028110156136d957600181036134df57505061083d929350613960565b919091156134ec57505050565b61083d939450906001600160a01b0361362a93921690604051927f0902f1ac000000000000000000000000000000000000000000000000000000008452606084600481865afa80156136cc575b829383958492613682575b50916136249493916004602061361d95604051928380927f5909c0d50000000000000000000000000000000000000000000000000000000082525afa938415613675575b9361362f575b50613618916136116135b763ffffffff6fffffffffffffffffffffffffffffffff94164261266b565b9461360b6135c48b613bb3565b966136056135e46dffffffffffffffffffffffffffff809c16809a613c0e565b7bffffffffffffffffffffffffffffffffffffffffffffffffffffffff1690565b906126d5565b9061265e565b50166126a7565b6126d5565b92166126be565b9061393b565b612650565b6fffffffffffffffffffffffffffffffff919350916136116135b763ffffffff6136696136189660203d81116105ec576105dd8183610280565b9694505050509161358e565b61367d611671565b613588565b6004965061362495506020949250906136b561361d949260603d81116136c5575b6136ad8183610280565b8101906138f7565b9098509096509294509092613544565b503d6136a3565b6136d4611671565b613539565b602482634e487b7160e01b81526021600452fd5b50505050506fffffffffffffffffffffffffffffffff9192501690565b6040517f1698ee820000000000000000000000000000000000000000000000000000000081526001600160a01b038083166004830152831660248201526109c4604482015294936020939092918487806064810103816001600160a01b038098165afa9687156138be575b600097613895575b506040517fe6a439050000000000000000000000000000000000000000000000000000000081526001600160a01b0391821660048201529216602483015283908290818581604481015b0392165afa928315613888575b600093613869575b5050838116156137ee57505060019190565b9092508216156137fe5760009190565b60405162461bcd60e51b815260206004820152603060248201527f4e6f207061697220666f756e642c20556e61626c6520746f20657374696d617460448201527f65206665657320666f72207472616465000000000000000000000000000000006064820152608490fd5b613880929350803d10612c6d57612c5e8183610280565b9038806137dc565b613890611671565b6137d4565b6137c793919750916138b48693843d8611612c6d57612c5e8183610280565b979193509161377d565b6138c6611671565b613775565b51906dffffffffffffffffffffffffffff8216820361038b57565b519063ffffffff8216820361038b57565b9081606091031261038b5761390b816138cb565b9161083d604061391d602085016138cb565b93016138e6565b50634e487b7160e01b600052601260045260246000fd5b8115613945570490565b61394d613924565b0490565b519061ffff8216820361038b57565b6040517f3850c7bd00000000000000000000000000000000000000000000000000000000815260e0816004816001600160a01b038096165afa908115613a7a575b6000916139ec575b5016906fffffffffffffffffffffffffffffffff8083116139d8576139d18361083d946126d5565b9116613b6d565b6139e58361083d94613a87565b9116613ad1565b60e0813d8211613a72575b81613a0460e09383610280565b81010312613a6e57805191613a1883610424565b60208201518060020b03610f9d575060c081613a396040613a679401613951565b50613a4660608201613951565b50613a5360808201613951565b50613a6060a082016138e6565b500161261f565b50386139a9565b5080fd5b3d91506139f7565b613a82611671565b6139a1565b6000198282099082810292838084109303928084039314613ac85768010000000000000000918383111561038b570990828211900360c01b910360401c1790565b50505060401c90565b9070010000000000000000000000000000000090600019838309928060801b92838086109503948086039514613b5e57908291613b0f86841161342c565b0981806000031680920460028082600302188083028203028083028203028083028203028083028203028083028203028092029003029360018380600003040190848311900302920304170290565b5050915061394d82151561342c565b90780100000000000000000000000000000000000000000000000090600019838309928060c01b92838086109503948086039514613b5e57908291613b0f86841161342c565b7bffffffffffffffffffffffffffff00000000000000000000000000006dffffffffffffffffffffffffffff82169160701b16908082046e0100000000000000000000000000001490151715613c065790565b61083d611f32565b907bffffffffffffffffffffffffffffffffffffffffffffffffffffffff809116918215613c3b57160490565b613c43613924565b160490565b9060c08201519060a083015190835193613c63855151613e13565b9260005b86518051821015613c9e5790613c89613c8382613c99946120e3565b51613f8f565b613c9382886120e3565b52613e45565b613c67565b5050929093613e07611b9993966040519384613cbe602082018093613e55565b0394613cd2601f1996878101835282610280565b51902090613d536040613cef60208401516001600160a01b031690565b92015191613d476040519384926020840196876001600160a01b0360609295949360808301967fe06ddd2657f493bbdb0819686ad5459ec926ea69f0752f8e57e3a53158905fce845260208401521660408201520152565b03868101835282610280565b51902095613d65866020830151613e82565b92613d74816040840151613e82565b96613d8960608401516001600160a01b031690565b9260e0608082015191015193604051998a97602089019c8d94919361010096936001600160a01b03929a99989561012088019b7f0672cd1f61dd2d22d5167ca5de2a5be445722cd9f25fe976650ca4a856417101895260208901526040880152606087015216608085015260a084015260c083015260e08201520152565b03908101835282610280565b90613e1d82611266565b613e2a6040519182610280565b8281528092613e3b601f1991611266565b0190602036910137565b60019060001981146120ae570190565b805160208092019160005b828110613e6e575050505090565b835185529381019392810192600101613e60565b919091613e8f8151613e13565b9060005b8151811015613f7557613f70906040613eb98782613eb185886120e3565b510151614008565b613ec661220283866120e3565b90613f636020613f5581613eda878a6120e3565b5101519380613ee9888b6120e3565b5101516060613ef8898c6120e3565b510151848151910120915195869485019788909493926080926001600160a01b0360a08401977f81c795a7225e70197af9bd380e6f873a1b0e517940669963a9675b6f437436e08552166020840152604083015260608201520152565b03601f198101835282610280565b519020613c9382866120e3565b613e93565b5050909150604051611b9981613f55602082018095613e55565b604051613ffb60208201927f1abfd930c022142841a784ac6f15bfb82392b3b97047cb73f2b3e8a6a2419f5f845260408301906060906001600160a01b0380825116845260208201511660208401528165ffffffffffff91826040820151166040860152015116910152565b60a08152611b9981610264565b0361400f57565b60646040517ffb5c375500000000000000000000000000000000000000000000000000000000815260206004820152601d60248201527f45434453413a20557365724f707320696e76616c696420646f6d61696e0000006044820152fd5b9160008093602095606494604051947f23b872dd0000000000000000000000000000000000000000000000000000000086526001600160a01b03809216600487015216602485015260448401525af13d15601f3d11600160005114161716156140d257565b606460405162461bcd60e51b815260206004820152601460248201527f5452414e534645525f46524f4d5f4641494c45440000000000000000000000006044820152fdfe3c344650e40c6608a176dc19a4b7c111d92b7e4d03081787ac55837ca120d11ba26469706673582212208374de67fd14a51784a1c3fe764c011cc7b9f062cdfa974ad290e69de756713364736f6c63430008110033",
  "devdoc": {
    "kind": "dev",
    "methods": {},
    "version": 1
  },
  "userdoc": {
    "kind": "user",
    "methods": {},
    "version": 1
  },
  "storageLayout": {
    "storage": [
      {
        "astId": 5704,
        "contract": "contracts/ECDSAWalletFactory.sol:ECDSAWalletFactory",
        "label": "factory",
        "offset": 0,
        "slot": "0",
        "type": "t_contract(SmartWalletFactory)6897"
      },
      {
        "astId": 5707,
        "contract": "contracts/ECDSAWalletFactory.sol:ECDSAWalletFactory",
        "label": "wallet",
        "offset": 0,
        "slot": "1",
        "type": "t_contract(ECDSAWallet)5691"
      }
    ],
    "types": {
      "t_contract(ECDSAWallet)5691": {
        "encoding": "inplace",
        "label": "contract ECDSAWallet",
        "numberOfBytes": "20"
      },
      "t_contract(SmartWalletFactory)6897": {
        "encoding": "inplace",
        "label": "contract SmartWalletFactory",
        "numberOfBytes": "20"
      }
    }
  }
}