{
  "address": "0x53f09f2eE95aF7901e5fFC959CDac2Fec0c0eC7F",
  "abi": [
    {
      "inputs": [
        {
          "internalType": "contract SmartWalletFactory",
          "name": "_factory",
          "type": "address"
        }
      ],
      "stateMutability": "nonpayable",
      "type": "constructor"
    },
    {
      "inputs": [
        {
          "internalType": "address",
          "name": "_owner",
          "type": "address"
        }
      ],
      "name": "createWallet",
      "outputs": [
        {
          "internalType": "contract IWallet",
          "name": "",
          "type": "address"
        }
      ],
      "stateMutability": "payable",
      "type": "function"
    },
    {
      "inputs": [],
      "name": "factory",
      "outputs": [
        {
          "internalType": "contract SmartWalletFactory",
          "name": "",
          "type": "address"
        }
      ],
      "stateMutability": "view",
      "type": "function"
    },
    {
      "inputs": [],
      "name": "wallet",
      "outputs": [
        {
          "internalType": "contract ECDSAWallet",
          "name": "",
          "type": "address"
        }
      ],
      "stateMutability": "view",
      "type": "function"
    },
    {
      "inputs": [
        {
          "internalType": "address",
          "name": "_owner",
          "type": "address"
        },
        {
          "internalType": "uint256",
          "name": "_nonce",
          "type": "uint256"
        }
      ],
      "name": "walletAddress",
      "outputs": [
        {
          "internalType": "address",
          "name": "",
          "type": "address"
        }
      ],
      "stateMutability": "view",
      "type": "function"
    }
  ],
  "transactionHash": "0x6ec7277c7269af605c801a3ae7dc896e29ac4f29d7054c2bf94c154e14c7ee15",
  "args": [
    "0xC8E146BB452e380DDf7E7DFF3D95FD7cEF7E155d"
  ],
  "numDeployments": 24,
  "solcInputHash": "c1dc7bc8afb680ccf1b606203a219906",
  "bytecode": "0x60803461014957601f614a1f38819003918201601f19168301926000926001600160401b03928386118387101761013557816020928492604098895283398101031261013157516001600160a01b03808216929183900361012d57845161457b8082019082821085831117610119579082916104a48339039085f0801561010f57169060018060a01b03199180836001541617600155803b1561010b57908480926024885180958193636fc0109960e11b83528160048401525af18015610101576100da575b505082541617905551610355908161014f8239f35b81949294116100ed5784529138806100c5565b634e487b7160e01b82526041600452602482fd5b86513d87823e3d90fd5b8480fd5b85513d86823e3d90fd5b634e487b7160e01b87526041600452602487fd5b8380fd5b8280fd5b634e487b7160e01b85526041600452602485fd5b600080fdfe60806040818152600436101561001457600080fd5b600091823560e01c9081631238ac7c1461019957508063521eb27314610172578063b054a9e8146100765763c45a01551461004e57600080fd5b346100725781600319360112610072576001600160a01b0360209254169051908152f35b5080fd5b509060209182600319360112610072579061010a91610093610257565b91846001600160a01b039384835416856001541686865193636fc0109960e11b86860152166024840152602483526100ca83610272565b85518098819482937feebc8e19000000000000000000000000000000000000000000000000000000008452600484015288602484015260448301906102df565b039134905af1938415610166578194610127575b50505191168152f35b909193508481813d831161015f575b61014081836102bd565b81010312610072575190828216820361015c575091388061011e565b80fd5b503d610136565b509051903d90823e3d90fd5b50346100725781600319360112610072576020906001600160a01b03600154169051908152f35b905034610253578160031936011261025357610231916101b7610257565b936001600160a01b039485938483541685600154166020988994636fc0109960e11b86860152166024840152602483526101f083610272565b85518098819482937fd1e64ad700000000000000000000000000000000000000000000000000000000845260048401526060602484015260648301906102df565b602435604483015203915afa9384156101665781946101275750505191168152f35b8280fd5b600435906001600160a01b038216820361026d57565b600080fd5b6060810190811067ffffffffffffffff82111761028e57604052565b7f4e487b7100000000000000000000000000000000000000000000000000000000600052604160045260246000fd5b90601f8019910116810190811067ffffffffffffffff82111761028e57604052565b919082519283825260005b84811061030b575050826000602080949584010152601f8019910116010190565b6020818301810151848301820152016102ea56fea26469706673582212205e372f9e639881c3c0a3653251086bb8ba0c05e193a30a778a1d50eaec25dfa664736f6c6343000811003360a0806040523461003157306080526145449081610037823960805181818161060001528181610a8f0152610ce00152f35b600080fdfe60806040526004361015610023575b361561001957600080fd5b61002161234d565b005b60003560e01c806309b46861146101ef578063252f5a17146101e65780632c67123f146101dd57806334fe6a65146101d45780633659cfe6146101cb57806336c78516146101c257806338ef7a1f146101b95780634967c38d146101b05780634f1ef286146101a75780635247924c1461019e57806352d1902d1461019557806364d4c8191461018c57806365fb372c14610183578063677b9b5f1461017a57806387517c45146101715780638901e25b146101685780638da5cb5b1461015f578063927da105146101565780639fa5ea7e1461014d578063affed0e014610144578063df8021321461013b578063e290f6e1146101325763f0702e8e0361000e5761012d61187a565b61000e565b5061012d611775565b5061012d6116b7565b5061012d611688565b5061012d61158a565b5061012d6114e9565b5061012d6114b4565b5061012d6113cd565b5061012d611268565b5061012d611112565b5061012d610dd7565b5061012d610d9b565b5061012d610cc4565b5061012d610c35565b5061012d610a49565b5061012d610a1f565b5061012d6109d4565b5061012d610787565b5061012d6105d6565b5061012d61059e565b5061012d610500565b5061012d6103bb565b5061012d610392565b50634e487b7160e01b600052604160045260246000fd5b6080810190811067ffffffffffffffff82111761022b57604052565b6102336101f8565b604052565b6060810190811067ffffffffffffffff82111761022b57604052565b67ffffffffffffffff811161022b57604052565b6040810190811067ffffffffffffffff82111761022b57604052565b6020810190811067ffffffffffffffff82111761022b57604052565b60c0810190811067ffffffffffffffff82111761022b57604052565b90601f8019910116810190811067ffffffffffffffff82111761022b57604052565b60405190610100820182811067ffffffffffffffff82111761022b57604052565b6040519061030c8261020f565b565b60209067ffffffffffffffff811161032c575b601f01601f19160190565b6103346101f8565b610321565b7f302e302e31000000000000000000000000000000000000000000000000000000602060405161036881610268565b6005815201527fae209a0b48f21c054280f2455d32cf309387644879d9acbd8ffc19916381188590565b50346103b65760003660031901126103b65760206103ae610339565b604051908152f35b600080fd5b50346103b65760203660031901126103b65760206103ae600435611e63565b90600182811c9216801561040a575b60208310146103f457565b634e487b7160e01b600052602260045260246000fd5b91607f16916103e9565b9060405191826000825492610428846103da565b9081845260019485811690816000146104955750600114610452575b505061030c925003836102bc565b9093915060005260209081600020936000915b81831061047d57505061030c93508201013880610444565b85548884018501529485019487945091830191610465565b91505061030c94506020925060ff191682840152151560051b8201013880610444565b60005b8381106104cb5750506000910152565b81810151838201526020016104bb565b906020916104f4815180928185528580860191016104b8565b601f01601f1916010190565b50346103b65760203660031901126103b657600435600052606760205261054161052d6040600020610414565b6040519182916020835260208301906104db565b0390f35b7f454344534157616c6c6574000000000000000000000000000000000000000000602060405161057481610268565b600b815201527fa493ff226186ed9712809d71f428d7f274876a4f2b9236f1762ec84b059ae32b90565b50346103b65760003660031901126103b65760206103ae610545565b6001600160a01b038116036103b657565b359061030c826105ba565b50346103b65760203660031901126103b6576004356105f4816105ba565b6001600160a01b0390817f0000000000000000000000000000000000000000000000000000000000000000169161062d833014156118aa565b61065c7f360894a13ba1a3210667c828492db98dca3e2076cc3735a920a3ca505d382bbc93828554161461191b565b3033036103b6576040519061067082610284565b600082527f4910fdfa16fed3260ed0e7147f7cc6da11a60208b5b9406d12a635614ffd91435460ff16156106aa5750506100219150611a19565b6020600491604094939451928380926352d1902d60e01b825286165afa60009181610757575b506107445760405162461bcd60e51b815260206004820152602e60248201527f45524331393637557067726164653a206e657720696d706c656d656e7461746960448201527f6f6e206973206e6f7420555550530000000000000000000000000000000000006064820152608490fd5b0390fd5b6100219361075291146119a8565b611ac6565b61077991925060203d8111610780575b61077181836102bc565b81019061198c565b90386106d0565b503d610767565b50346103b65760803660031901126103b6576004356107a5816105ba565b602435906107b2826105ba565b604435916107bf836105ba565b606435916107cc836105ba565b3033148015610959575b6107df90611cb3565b61081c3361080485610804856001600160a01b03166000526068602052604060002090565b906001600160a01b0316600052602052604060002090565b80549065ffffffffffff8260a01c164211610914576001600160a01b0380921690828203610854575b50508061002195169316614445565b909586838216116000146108e7576040517fe3082aa500000000000000000000000000000000000000000000000000000000815260206004820152602a60248201527f6661696c656420746f207472616e736665722c20696e73756666696369656e7460448201527f20616c6c6f77616e6365000000000000000000000000000000000000000000006064820152608490fd5b61090e839283836100219a03166001600160a01b03166001600160a01b0319825416179055565b95610845565b604051622bd21560e71b815260206004820152601e60248201527f7472616e7366657220616c6c6f77616e636520686173206578706972656400006044820152606490fd5b506107df6001600160a01b036000805160206144ef8339815191525416331490506107d6565b92919261098b8261030e565b9161099960405193846102bc565b8294818452818301116103b6578281602093846000960137010152565b9080601f830112156103b6578160206109d19335910161097f565b90565b50346103b65760603660031901126103b65760043567ffffffffffffffff81116103b657610a096100219136906004016109b6565b60443590610a16826105ba565b60243590611f00565b50346103b65760003660031901126103b65760206040516000805160206144ef8339815191528152f35b5060403660031901126103b657600435610a62816105ba565b60243567ffffffffffffffff81116103b657610a829036906004016109b6565b906001600160a01b0391827f00000000000000000000000000000000000000000000000000000000000000001692610abc843014156118aa565b610aeb7f360894a13ba1a3210667c828492db98dca3e2076cc3735a920a3ca505d382bbc94828654161461191b565b3033036103b6577f4910fdfa16fed3260ed0e7147f7cc6da11a60208b5b9406d12a635614ffd91435460ff1615610b285750506100219150611a19565b6020600491604094939451928380926352d1902d60e01b825286165afa60009181610bd1575b50610bbe5760405162461bcd60e51b815260206004820152602e60248201527f45524331393637557067726164653a206e657720696d706c656d656e7461746960448201527f6f6e206973206e6f7420555550530000000000000000000000000000000000006064820152608490fd5b61002193610bcc91146119a8565b611b98565b610bea91925060203d81116107805761077181836102bc565b9038610b4e565b6020815260806001600160a01b03808451166020840152602084015160408401526060610c2b6040860151848387015260a08601906104db565b9401511691015290565b50346103b65760203660031901126103b6576105416040600060608251610c5b8161020f565b8281528260208201528184820152015260043560005260666020528060002090805191610c878361020f565b60036001600160a01b039182815416855260018101546020860152610cae60028201610414565b8486015201541660608301525191829182610bf1565b50346103b65760003660031901126103b6576001600160a01b037f0000000000000000000000000000000000000000000000000000000000000000163003610d31576040517f360894a13ba1a3210667c828492db98dca3e2076cc3735a920a3ca505d382bbc8152602090f35b608460405162461bcd60e51b815260206004820152603860248201527f555550535570677261646561626c653a206d757374206e6f742062652063616c60448201527f6c6564207468726f7567682064656c656761746563616c6c00000000000000006064820152fd5b50346103b65760003660031901126103b65760206040517f8b73c3c69bb8fe3d512ecc4cf759cc79239f7b179b0ffacaa9a75d522b39400f8152f35b50346103b65760203660031901126103b657600435600052606660205260406000206001600160a01b03908181541690610e416001820154936003610e1e60028501610414565b9301541691604051948594855260208501526080604085015260808401906104db565b9060608301520390f35b60209067ffffffffffffffff8111610e65575b60051b0190565b610e6d6101f8565b610e5e565b6064359065ffffffffffff821682036103b657565b359065ffffffffffff821682036103b657565b9160609283818403126103b6576040805191610eb583610238565b8294813567ffffffffffffffff81116103b657820181601f820112156103b657803590610ee182610e4b565b91610eee865193846102bc565b808352602093848085019260071b840101928184116103b6578501915b838310610f3457505050508484959697985052610f298183016105cb565b908501520135910152565b6080838303126103b657856080918d8a5190610f4f8261020f565b8635610f5a816105ba565b825283870135610f69816105ba565b84830152610f788c8801610e87565b8c830152610f87818801610e87565b90820152815201920191610f0b565b9080601f830112156103b6578135610fad81610e4b565b92604091610fbd835195866102bc565b808552602093848087019260051b840101938185116103b657858401925b858410610fec575050505050505090565b67ffffffffffffffff84358181116103b657860191608080601f1985880301126103b65784519061101c8261020f565b8a850135611029816105ba565b8252858501358b83015260609081860135878401528501359384116103b657611059878c809796819701016109b6565b90820152815201930192610fdb565b9190610100838203126103b65761107d6102de565b9267ffffffffffffffff81358181116103b6578361109c918401610e9a565b855260208201358181116103b657836110b6918401610f96565b602086015260408201359081116103b65760e0926110d5918301610f96565b60408501526110e6606082016105cb565b60608501526080810135608085015260a081013560a085015260c081013560c0850152013560e0830152565b50346103b6576060806003193601126103b65767ffffffffffffffff6004358181116103b657611146903690600401611068565b906024358181116103b65761115f9036906004016109b6565b6044359182116103b65761117a6111819236906004016109b6565b9083613625565b604060c0820151910180519146036112235760005b82519063ffffffff8116918210156100215761121961121e9247906111cd602092836111c3848a5161241b565b510151111561243d565b876112106111fb6111ef6111e1858c61241b565b51516001600160a01b031690565b6001600160a01b031690565b93611206848b61241b565b510151928961241b565b510151916137bd565b6123c2565b611196565b60405162461bcd60e51b815260206004820152601560248201527f77726f6e672062726964676520636861696e20696400000000000000000000006044820152606490fd5b50346103b65760803660031901126103b657600435611286816105ba565b602435611292816105ba565b60443561129e816105ba565b6112a6610e72565b9030331480156113a7575b6112ba90611cb3565b33600052606860205261135c816112ec85610804886040600020906001600160a01b0316600052602052604060002090565b61134165ffffffffffff8087169687156000146113a0575042165b82547fffffffffffff000000000000ffffffffffffffffffffffffffffffffffffffff1660a09190911b65ffffffffffff60a01b16178255565b906001600160a01b03166001600160a01b0319825416179055565b604051926001600160a01b03928380931685526020850152169216907fda9fa7c1b00402c17d0161b249b1ab8bbec047c5a52207b9c112deffd817036b60403392a4005b9050611307565b506112ba6001600160a01b036000805160206144ef8339815191525416331490506112b1565b50346103b6576000806003193601126114b157805461140360ff8260081c1615809281936114a3575b8115611483575b50611cfe565b80611416600160ff196000541617600055565b61146a575b61142361237b565b61142a5780f35b61143a61ff001960005416600055565b604051600181527f7f26b83ff96e1f2b6a682f133852f6798a09c465da95921460cefb384740249890602090a180f35b61147e61010061ff00196000541617600055565b61141b565b303b15915081611495575b50386113fd565b6001915060ff16143861148e565b600160ff82161091506113f6565b80fd5b50346103b65760003660031901126103b65760206001600160a01b036000805160206144ef8339815191525416604051908152f35b50346103b65760603660031901126103b657600435611507816105ba565b611556602435611516816105ba565b61080460443591611526836105ba565b6001600160a01b0380951660005260686020526040600020906001600160a01b0316600052602052604060002090565b54604080519282166001600160a01b0316835265ffffffffffff60a083901c16602084015260d09190911c90820152606090f35b50346103b6576020806003193601126103b6576004359067ffffffffffffffff8083116103b657366023840112156103b65782600401358181116103b6576024840193602436918360051b0101116103b65760005b63ffffffff811690828210156100215761160847866115ff85878b6136cb565b0135111561243d565b6116138284886136cb565b3561161d816105ba565b6116368661162c85878b6136cb565b01359385896136cb565b606081013590601e19813603018212156103b65701908135918683116103b65787019382360385136103b6576001600160a01b0361167c6116839661121995369161097f565b92166137bd565b6115df565b50346103b65760003660031901126103b65760206000805160206144ef8339815191525460a01c604051908152f35b50346103b65760203660031901126103b6576004356116d5816105ba565b611717600054916116fb60ff8460081c1615809481956114a35781156114835750611cfe565b8261170e600160ff196000541617600055565b61175c57611d6f565b61171d57005b61172d61ff001960005416600055565b604051600181527f7f26b83ff96e1f2b6a682f133852f6798a09c465da95921460cefb384740249890602090a1005b61177061010061ff00196000541617600055565b611d6f565b50346103b65760403660031901126103b65767ffffffffffffffff6004358181116103b6576117a8903690600401611068565b906024359081116103b6576117c19036906004016109b6565b905a6117cd83836126f1565b6117d561335a565b60a08201519060c08301519160209485850191825194804614918261186f575b5050611863575b60005b845163ffffffff821690811015611858579061121961185392611828478b6111c3848a5161241b565b6118386111ef6111e1838b61241b565b9060606112108c611849848d61241b565b510151928b61241b565b6117ff565b610021838887612be6565b604085015193506117fc565b1415905038806117f5565b50346103b65760003660031901126103b6576020604051734f1f87d512650f32bf9949c4c5ef37a3cc891c6d8152f35b156118b157565b608460405162461bcd60e51b815260206004820152602c60248201527f46756e6374696f6e206d7573742062652063616c6c6564207468726f7567682060448201527f64656c656761746563616c6c00000000000000000000000000000000000000006064820152fd5b1561192257565b608460405162461bcd60e51b815260206004820152602c60248201527f46756e6374696f6e206d7573742062652063616c6c6564207468726f7567682060448201527f6163746976652070726f787900000000000000000000000000000000000000006064820152fd5b908160209103126103b6575190565b506040513d6000823e3d90fd5b156119af57565b608460405162461bcd60e51b815260206004820152602960248201527f45524331393637557067726164653a20756e737570706f727465642070726f7860448201527f6961626c655555494400000000000000000000000000000000000000000000006064820152fd5b803b15611a5c576001600160a01b037f360894a13ba1a3210667c828492db98dca3e2076cc3735a920a3ca505d382bbc91166001600160a01b0319825416179055565b608460405162461bcd60e51b815260206004820152602d60248201527f455243313936373a206e657720696d706c656d656e746174696f6e206973206e60448201527f6f74206120636f6e7472616374000000000000000000000000000000000000006064820152fd5b90611ad082611a19565b6001600160a01b0382167fbc7cd75a20ee27fd9adebab32041f755214dbc6bffa90cc0225b39da2e5c2d3b600080a2805115801590611b90575b611b12575050565b611b8d9160008060405193611b2685610238565b602785527f416464726573733a206c6f772d6c6576656c2064656c65676174652063616c6c60208601527f206661696c6564000000000000000000000000000000000000000000000000006040860152602081519101845af4611b87611beb565b91611c1b565b50565b506000611b0a565b90611ba282611a19565b6001600160a01b0382167fbc7cd75a20ee27fd9adebab32041f755214dbc6bffa90cc0225b39da2e5c2d3b600080a2805115801590611be357611b12575050565b506001611b0a565b3d15611c16573d90611bfc8261030e565b91611c0a60405193846102bc565b82523d6000602084013e565b606090565b91929015611c7c5750815115611c2f575090565b3b15611c385790565b606460405162461bcd60e51b815260206004820152601d60248201527f416464726573733a2063616c6c20746f206e6f6e2d636f6e74726163740000006044820152fd5b825190915015611c8f5750805190602001fd5b6107409060405191829162461bcd60e51b83526020600484015260248301906104db565b15611cba57565b606460405162461bcd60e51b815260206004820152601b60248201527f4f6e6c792077616c6c6574207369676e65727320616c6c6f77656400000000006044820152fd5b15611d0557565b608460405162461bcd60e51b815260206004820152602e60248201527f496e697469616c697a61626c653a20636f6e747261637420697320616c72656160448201527f647920696e697469616c697a65640000000000000000000000000000000000006064820152fd5b611d8e60ff60005460081c16611d8481611df2565b47611dc457611df2565b6001600160a01b0319906001600160a01b036000805160206144ef83398151915291168282541617905533906065541617606555565b476040519081527f3317af6e3247959c45cb6051f9153437a9072683e21eda1f9b52c5bcec0e89c260203392a25b15611df957565b608460405162461bcd60e51b815260206004820152602b60248201527f496e697469616c697a61626c653a20636f6e7472616374206973206e6f74206960448201527f6e697469616c697a696e670000000000000000000000000000000000000000006064820152fd5b611e6b610545565b90611e74610339565b906040519160208301937f8b73c3c69bb8fe3d512ecc4cf759cc79239f7b179b0ffacaa9a75d522b39400f85526040840152606083015260808201523060a082015260a08152611ec3816102a0565b51902090565b908160209103126103b657516001600160e01b0319811681036103b65790565b6040906109d19392815281602082015201906104db565b9091803b611f8a575b3b15611f13575050565b805160418103611f30575061030c91611f2b9161216d565b612010565b604003611f445761030c91611f2b9161228d565b604051630e753c0b60e01b815260206004820152601b60248201527f5369676e6174757265206c656e67746820697320496e76616c696400000000006044820152606490fd5b611fd0604051630b135d3f60e11b815260208180611fac878960048401611ee9565b03816001600160a01b0387165afa908115612003575b600091611fd5575b506120c4565b611f09565b611ff6915060203d8111611ffc575b611fee81836102bc565b810190611ec9565b38611fca565b503d611fe4565b61200b61199b565b611fc2565b6001600160a01b0380911690811561207f576000805160206144ef83398151915254160361203a57565b6064604051630e753c0b60e01b815260206004820152602060248201527f5369676e6572206973206e6f7420536d6172742057616c6c6574204f776e65726044820152fd5b606460405163151a7bff60e11b815260206004820152601160248201527f496e76616c6964205369676e61747572650000000000000000000000000000006044820152fd5b6001600160e01b0319630b135d3f60e11b9116036120de57565b6064604051630e753c0b60e01b815260206004820152601760248201527f496e76616c696420436f6e7472616374205369676e65720000000000000000006044820152fd5b91908260409103126103b6576020825192015190565b50634e487b7160e01b600052603260045260246000fd5b606090805160401015612161570190565b612169612139565b0190565b90604182510361221757816000916121f56121a26121ce6121c861219a6020809951880101898801612123565b939096612150565b517fff000000000000000000000000000000000000000000000000000000000000001690565b60f81c90565b93604051948594859094939260ff6060936080840197845216602083015260408201520152565b838052039060015afa1561220a575b60005190565b61221261199b565b612204565b606460405163151a7bff60e11b815260206004820152601c60248201527f436c617373696320736967206c656e2073686f756c64206265203635000000006044820152fd5b50634e487b7160e01b600052601160045260246000fd5b60ff601b9116019060ff821161228557565b61030c61225c565b906040825103612308577f7fffffffffffffffffffffffffffffffffffffffffffffffffffffffffffffff6000916121f56122d2856020808098518301019101612123565b92906122e08460ff1c612273565b6040519586951692859094939260ff6060936080840197845216602083015260408201520152565b606460405163151a7bff60e11b815260206004820152601c60248201527f436f6d7061637420736967206c656e2073686f756c64206265203634000000006044820152fd5b6040513481527f3317af6e3247959c45cb6051f9153437a9072683e21eda1f9b52c5bcec0e89c260203392a2565b61238c60ff60005460081c16611df2565b4761239357565b476040519081527f3317af6e3247959c45cb6051f9153437a9072683e21eda1f9b52c5bcec0e89c260203392a2565b60019063ffffffff8091169081146123d8570190565b61216961225c565b602090805115612161570190565b604090805160011015612161570190565b6080906060518110156124135760051b0190565b610e6d612139565b6020918151811015612430575b60051b010190565b612438612139565b612428565b1561244457565b608460405162461bcd60e51b815260206004820152602c60248201527f536d61727457616c6c65743a20696e73756666696369656e742062617365206160448201527f737365742062616c616e636500000000000000000000000000000000000000006064820152fd5b91906040838203126103b65782519260208101519067ffffffffffffffff82116103b6570181601f820112156103b65780516124e98161030e565b926124f760405194856102bc565b818452602082840101116103b6576109d191602080850191016104b8565b90601f811161252357505050565b600091825260208220906020601f850160051c8301941061255f575b601f0160051c01915b82811061255457505050565b818155600101612548565b909250829061253f565b815181546001600160a01b0319166001600160a01b0391909116178155602091828101519260019384840155600283019060408301519485519167ffffffffffffffff83116126b2575b6125c7836125c186546103da565b86612515565b80601f841160011461263557509282806060946003979461260d9761030c9b60009461262a575b50501b9160001990881b1c19161790555b01516001600160a01b031690565b9101906001600160a01b03166001600160a01b0319825416179055565b0151925038806125ee565b9193949596601f19841661264e87600052602060002090565b936000905b82821061269b5750509361030c9897936003979361260d97938360609810612683575b505050811b0190556125ff565b0151600019838a1b60f8161c19169055388080612676565b808886978294978701518155019601940190612653565b6126ba6101f8565b6125b3565b906126e66060936001600160a01b03929796959784526080602085015260808401906104db565b951660408201520152565b907ffcd9cc555d2f82c5f75a967488b70edab6da722c5eb2587b5fb65a8dc4f21f4b90604083015151612849575b61284461273560208351840101602084016124ae565b919061279c8661278961274784611e63565b6127508361403a565b90604291604051917f19010000000000000000000000000000000000000000000000000000000000008352600283015260228201522090565b92612797608083015161343f565b6133af565b6127c76000805160206144ef83398151915293826127c186546001600160a01b031690565b91611f00565b6127d186516130c3565b61283160608454946128216127e46102ff565b6001600160a01b0388811682529761281c9060208301889052604083018b9052308684015260a01c6000526066602052604060002090565b612569565b549701516001600160a01b031690565b60405194859488169760a01c92856126bf565b0390a2565b61287961285a6111e18551516123e0565b6000805160206144ef833981519152546001600160a01b03169061328c565b61289161288a6111e18551516123e0565b339061328c565b61271f565b519081151582036103b657565b908160209103126103b6576109d190612896565b906188b891820180921161228557565b906001820180921161228557565b9190820180921161228557565b9190820391821161228557565b9060058202918083046005149015171561228557565b90633b9aca009182810292818404149015171561228557565b906103e59182810292818404149015171561228557565b906103e89182810292818404149015171561228557565b8181029291811591840414171561228557565b908160209103126103b657516109d1816105ba565b6040519061298182610238565b602d82527f743136302c6164647265737329000000000000000000000000000000000000006040837f7472616e7366657246726f6d28616464726573732c616464726573732c75696e60208201520152565b604051906129e082610268565b601c82527f7665726966794272696467655265712862797465732c627974657329000000006020830152565b90606081019180516060835280518094526080808401946020809301916000905b828210612a555750505050808201516001600160a01b03169083015260409081015191015290565b90919296848282612a9d6001948c516060906001600160a01b0380825116845260208201511660208401528165ffffffffffff91826040820151166040860152015116910152565b01980193920190612a2d565b908082519081815260208091019281808460051b8301019501936000915b848310612ad75750505050505090565b9091929394958480612b24600193601f198682030187528a516001600160a01b038151168252838101518483015260408082015190830152606080910151916080809282015201906104db565b9801930193019194939290612ac7565b60208152815160e0612b88612b5761010093846020870152610120860190612a0c565b612b73602087015191601f199283888303016040890152612aa9565b90604087015190868303016060870152612aa9565b60608501516001600160a01b0316608085015293608081015160a085015260a081015160c085015260c081015182850152015191015290565b9091612bd86109d1936040845260408401906104db565b9160208184039101526104db565b9190612bf66111e18251516123ee565b91612c0c6111ef6065546001600160a01b031690565b9260409381612c8e612c89612c84612c7d89519a7f3315389a000000000000000000000000000000000000000000000000000000008c5260209b8c8180612c668a600483019190916001600160a01b036020820193169052565b03818b5afa8015612f89575b612f5c575b506128b7565b5a906128e2565b6128ef565b612905565b918651927f4aa4a4fc0000000000000000000000000000000000000000000000000000000084528884600481855afa938415612f4f575b600094612f2b575b5090600491898951927f396abe0600000000000000000000000000000000000000000000000000000000845281848681845afa938415612f1e575b600094612eff575b508a51948580927fbcd292c70000000000000000000000000000000000000000000000000000000082525afa928315612ef2575b600093612eb1575b506fffffffffffffffffffffffffffffffff1692612d6994613890565b6001600160a01b0316612d7a612974565b92612d836129d3565b966000805160206144ef83398151915254612da4906001600160a01b031690565b94875190828151910120612dbf906001600160e01b03191690565b90612dc990610254565b8751828101919091526001600160a01b03958616602482015233604482015283861660648201529484166084808701919091528552601f1991612e0d60a4876102bc565b87519081612e1d89858301612b34565b038481018352612e2d90836102bc565b885199838151910120612e47906001600160e01b03191690565b99612e5190610254565b8851998a938401526024830191612e6792612bc1565b039081018752612e7790876102bc565b6001600160a01b0316612e899161350c565b612e9390306136fb565b8051612e9e90612f96565b015151612ea85750565b61030c9061376d565b6fffffffffffffffffffffffffffffffff919350612ee4908b3d8d11612eeb575b612edc81836102bc565b81019061295f565b9290612d4c565b503d612ed2565b612efa61199b565b612d44565b612f17919450823d8411612eeb57612edc81836102bc565b9238612d10565b612f2661199b565b612d08565b600492919450612f47908a3d8c11612eeb57612edc81836102bc565b939091612ccd565b612f5761199b565b612cc5565b612f7b908d803d10612f82575b612f7381836102bc565b8101906128a3565b5038612c77565b503d612f69565b612f9161199b565b612c72565b9060005b60605160ff8216908110156130bd579061309d613075856130196130676001966130196111e1613061612ff46000805160206144ef833981519152613054613044602061303061300d612ff486546001600160a01b031690565b6001600160a01b03166000526068602052604060002090565b6130196111e18c6123ff565b6001600160a01b0316600052602052604060002090565b9b019a6130198c516001600160a01b031690565b6001600160a01b03198154169055565b546001600160a01b031690565b926123ff565b91516001600160a01b031690565b7fffffffffffff000000000000ffffffffffffffffffffffffffffffffffffffff8154169055565b60ff8091169081146130b0575b01612f9a565b6130b861225c565b6130aa565b50509050565b6020808201916130da83516001600160a01b031690565b8151519360005b8581106130f057505050505050565b6131046111ef83516001600160a01b031690565b613111575b6001016130e1565b8084519061311e9161241b565b516060015165ffffffffffff16818551906131389161241b565b51516001600160a01b03169086838751906131529161241b565b5101516001600160a01b0316604090818589519061316f9161241b565b51015165ffffffffffff16926000805160206144ef83398151915289828685878d8b87546131a3906001600160a01b031690565b6131c0906001600160a01b03166000526068602052604060002090565b906131dd91906001600160a01b0316600052602052604060002090565b906131fa91906001600160a01b0316600052602052604060002090565b9465ffffffffffff80875461320f9060d01c90565b169086169061321d916134b8565b0151613228906134bf565b61323193613825565b5492516001600160a01b03928316815265ffffffffffff948516602082015293166040840152868116938116929116907fc6a377bfc4eb120024a8ac08eef205be16b817020812c73223e81d1bdb9708ec90606090a4613109565b6040517fd4fac45d00000000000000000000000000000000000000000000000000000000602082019081526001600160a01b03938416602483015292909116604482015260009182916132ec81606481015b03601f1981018352826102bc565b519082734f1f87d512650f32bf9949c4c5ef37a3cc891c6d5af161330e611beb565b501561331657565b606460405162461bcd60e51b815260206004820152601360248201527f44656c656761746563616c6c206661696c6564000000000000000000000000006044820152fd5b6000805160206144ef83398151915280546001600160a01b036001600160a01b031960018360a01c6bffffffffffffffffffffffff81146133a2575b0160a01b169116179055565b6133aa61225c565b613396565b9060e00151036133bb57565b60846040517f78b9146600000000000000000000000000000000000000000000000000000000815260206004820152602760248201527f73696720636861696e20646f6573206e6f7420657175616c2070726f7669646560448201527f642076616c7565000000000000000000000000000000000000000000000000006064820152fd5b6000805160206144ef8339815191525460a01c0361345957565b6040517f73fe9fad00000000000000000000000000000000000000000000000000000000815260206004820152601660248201527f696e76616c6964206e6f6e63652070726f7669646564000000000000000000006044820152606490fd5b0361345957565b4210156134c857565b6064604051622bd21560e71b815260206004820152601c60248201527f7065726d6974207369676e6174757265206861732065787069726564000000006044820152fd5b60206001600160a01b03916024836000805160206144ef833981519152541660405194859384927f70a082310000000000000000000000000000000000000000000000000000000084526004840152165afa908115613618575b6000916135fa575b501061357657565b60846040517fc2ce16ea00000000000000000000000000000000000000000000000000000000815260206004820152602160248201527f496e75736566666963656e742062616c616e6365206f6620666565206173736560448201527f74000000000000000000000000000000000000000000000000000000000000006064820152fd5b613612915060203d81116107805761077181836102bc565b3861356e565b61362061199b565b613566565b90916136b761364061030c94602080825183010191016124ae565b909261369861366d61365d61365487611e63565b6127508961403a565b92602080825183010191016124ae565b96906127978261367f61274784611e63565b986127976080830151600181018091116136be5761343f565b6001600160a01b036000805160206144ef833981519152541691611f00565b3391611f00565b6136c661225c565b61343f565b91908110156136ee575b60051b81013590607e19813603018212156103b6570190565b6136f6612139565b6136d5565b6001600160a01b031660008083516020850182855af1907f202ca0633e9bf52b1d9ffc5784badd7db89fdd8a05bea524c99853429017f7ae61375a61373e611beb565b94604051918291600083526040602084015260408301906104db565b0390a2156137655750565b602081519101fd5b8051600080734f1f87d512650f32bf9949c4c5ef37a3cc891c6d926020850182855af1907f202ca0633e9bf52b1d9ffc5784badd7db89fdd8a05bea524c99853429017f7ae61375a61373e611beb565b6001600160a01b0390929192167f202ca0633e9bf52b1d9ffc5784badd7db89fdd8a05bea524c99853429017f7ae60008084516020860187865af192613801611beb565b9461375a60405192839283526040602084015260408301906104db565b156103b657565b929091600165ffffffffffff60a01b6001600160a01b037fffffffffffff00000000000000000000000000000000000000000000000000009365ffffffffffff908181161560001461388857504216955b169460a01b16920160d01b1617179055565b905095613876565b919493929094600095600093617a694614613adf57906138b1939291613afc565b91906002811015613acb57600181036138d15750506109d1929350613d52565b919091156138de57505050565b6109d1939450906001600160a01b03613a1c93921690604051927f0902f1ac000000000000000000000000000000000000000000000000000000008452606084600481865afa8015613abe575b829383958492613a74575b5091613a1694939160046020613a0f95604051928380927f5909c0d50000000000000000000000000000000000000000000000000000000082525afa938415613a67575b93613a21575b50613a0a91613a036139a963ffffffff6fffffffffffffffffffffffffffffffff9416426128e2565b946139fd6139b68b613fa5565b966139f76139d66dffffffffffffffffffffffffffff809c16809a614000565b7bffffffffffffffffffffffffffffffffffffffffffffffffffffffff1690565b9061294c565b906128d5565b501661291e565b61294c565b9216612935565b90613d2d565b6128c7565b6fffffffffffffffffffffffffffffffff91935091613a036139a963ffffffff613a5b613a0a9660203d81116107805761077181836102bc565b96945050505091613980565b613a6f61199b565b61397a565b60049650613a169550602094925090613aa7613a0f949260603d8111613ab7575b613a9f81836102bc565b810190613ce9565b9098509096509294509092613936565b503d613a95565b613ac661199b565b61392b565b602482634e487b7160e01b81526021600452fd5b50505050506fffffffffffffffffffffffffffffffff9192501690565b6040517f1698ee820000000000000000000000000000000000000000000000000000000081526001600160a01b038083166004830152831660248201526109c4604482015294936020939092918487806064810103816001600160a01b038098165afa968715613cb0575b600097613c87575b506040517fe6a439050000000000000000000000000000000000000000000000000000000081526001600160a01b0391821660048201529216602483015283908290818581604481015b0392165afa928315613c7a575b600093613c5b575b505083811615613be057505060019190565b909250821615613bf05760009190565b60405162461bcd60e51b815260206004820152603060248201527f4e6f207061697220666f756e642c20556e61626c6520746f20657374696d617460448201527f65206665657320666f72207472616465000000000000000000000000000000006064820152608490fd5b613c72929350803d10612eeb57612edc81836102bc565b903880613bce565b613c8261199b565b613bc6565b613bb99391975091613ca68693843d8611612eeb57612edc81836102bc565b9791935091613b6f565b613cb861199b565b613b67565b51906dffffffffffffffffffffffffffff821682036103b657565b519063ffffffff821682036103b657565b908160609103126103b657613cfd81613cbd565b916109d16040613d0f60208501613cbd565b9301613cd8565b50634e487b7160e01b600052601260045260246000fd5b8115613d37570490565b613d3f613d16565b0490565b519061ffff821682036103b657565b6040517f3850c7bd00000000000000000000000000000000000000000000000000000000815260e0816004816001600160a01b038096165afa908115613e6c575b600091613dde575b5016906fffffffffffffffffffffffffffffffff808311613dca57613dc3836109d19461294c565b9116613f5f565b613dd7836109d194613e79565b9116613ec3565b60e0813d8211613e64575b81613df660e093836102bc565b81010312613e6057805191613e0a836105ba565b60208201518060020b036114b1575060c081613e2b6040613e599401613d43565b50613e3860608201613d43565b50613e4560808201613d43565b50613e5260a08201613cd8565b5001612896565b5038613d9b565b5080fd5b3d9150613de9565b613e7461199b565b613d93565b6000198282099082810292838084109303928084039314613eba576801000000000000000091838311156103b6570990828211900360c01b910360401c1790565b50505060401c90565b9070010000000000000000000000000000000090600019838309928060801b92838086109503948086039514613f5057908291613f0186841161381e565b0981806000031680920460028082600302188083028203028083028203028083028203028083028203028083028203028092029003029360018380600003040190848311900302920304170290565b50509150613d3f82151561381e565b90780100000000000000000000000000000000000000000000000090600019838309928060c01b92838086109503948086039514613f5057908291613f0186841161381e565b7bffffffffffffffffffffffffffff00000000000000000000000000006dffffffffffffffffffffffffffff82169160701b16908082046e0100000000000000000000000000001490151715613ff85790565b6109d161225c565b907bffffffffffffffffffffffffffffffffffffffffffffffffffffffff80911691821561402d57160490565b614035613d16565b160490565b60c08101519080519261404e8451516141fd565b9160005b85518051821015614089579061407461406e826140849461241b565b51614367565b61407e828761241b565b5261422f565b614052565b50509291611ec3919460405191826140a560208201809361423f565b03926140b9601f19948581018352826102bc565b5190209061413a60406140d660208401516001600160a01b031690565b9201519161412e6040519384926020840196876001600160a01b0360609295949360808301967fe06ddd2657f493bbdb0819686ad5459ec926ea69f0752f8e57e3a53158905fce845260208401521660408201520152565b038481018352826102bc565b519020926141f161414e602087015161426c565b9561415c604082015161426c565b9261417160608301516001600160a01b031690565b9660e0608084015193015192604051988996602088019b46948d94919361010096936001600160a01b03929a99989561012088019b7f0672cd1f61dd2d22d5167ca5de2a5be445722cd9f25fe976650ca4a856417101895260208901526040880152606087015216608085015260a084015260c083015260e08201520152565b039081018352826102bc565b9061420782610e4b565b61421460405191826102bc565b8281528092614225601f1991610e4b565b0190602036910137565b60019060001981146123d8570190565b805160208092019160005b828110614258575050505090565b83518552938101939281019260010161424a565b9061427782516141fd565b60005b835181101561434e5761434990604061429f81614297848961241b565b5101516143e0565b6142ac6111e1838861241b565b9061433c60206132de816142c0878c61241b565b510151938a60606142df89846142d6828661241b565b5101519361241b565b510151848151910120915195869485019788909493926080926001600160a01b0360a08401977f81c795a7225e70197af9bd380e6f873a1b0e517940669963a9675b6f437436e08552166020840152604083015260608201520152565b51902061407e828561241b565b61427a565b50909150604051611ec3816132de60208201809561423f565b6040516143d360208201927f1abfd930c022142841a784ac6f15bfb82392b3b97047cb73f2b3e8a6a2419f5f845260408301906060906001600160a01b0380825116845260208201511660208401528165ffffffffffff91826040820151166040860152015116910152565b60a08152611ec3816102a0565b156143e757565b60646040517ffb5c375500000000000000000000000000000000000000000000000000000000815260206004820152601d60248201527f45434453413a20557365724f707320696e76616c696420646f6d61696e0000006044820152fd5b9160008093602095606494604051947f23b872dd0000000000000000000000000000000000000000000000000000000086526001600160a01b03809216600487015216602485015260448401525af13d15601f3d11600160005114161716156144aa57565b606460405162461bcd60e51b815260206004820152601460248201527f5452414e534645525f46524f4d5f4641494c45440000000000000000000000006044820152fdfe3c344650e40c6608a176dc19a4b7c111d92b7e4d03081787ac55837ca120d11ba2646970667358221220c78c3a89c61f238e6f2807243ca5ec4faf2267f7fcd1615b88562e97bb5ff6be64736f6c63430008110033",
  "devdoc": {
    "kind": "dev",
    "methods": {},
    "version": 1
  },
  "userdoc": {
    "kind": "user",
    "methods": {},
    "version": 1
  },
  "storageLayout": {
    "storage": [
      {
        "astId": 6016,
        "contract": "contracts/ECDSAWalletFactory.sol:ECDSAWalletFactory",
        "label": "factory",
        "offset": 0,
        "slot": "0",
        "type": "t_contract(SmartWalletFactory)7329"
      },
      {
        "astId": 6019,
        "contract": "contracts/ECDSAWalletFactory.sol:ECDSAWalletFactory",
        "label": "wallet",
        "offset": 0,
        "slot": "1",
        "type": "t_contract(ECDSAWallet)6003"
      }
    ],
    "types": {
      "t_contract(ECDSAWallet)6003": {
        "encoding": "inplace",
        "label": "contract ECDSAWallet",
        "numberOfBytes": "20"
      },
      "t_contract(SmartWalletFactory)7329": {
        "encoding": "inplace",
        "label": "contract SmartWalletFactory",
        "numberOfBytes": "20"
      }
    }
  }
}