{
  "address": "0x69b00aBf8f01F1A727f5F05132f16a466c7e50ad",
  "abi": [
    {
      "inputs": [
        {
          "internalType": "contract SmartWalletFactory",
          "name": "_factory",
          "type": "address"
        }
      ],
      "stateMutability": "nonpayable",
      "type": "constructor"
    },
    {
      "anonymous": false,
      "inputs": [
        {
          "indexed": true,
          "internalType": "address",
          "name": "previousOwner",
          "type": "address"
        },
        {
          "indexed": true,
          "internalType": "address",
          "name": "newOwner",
          "type": "address"
        }
      ],
      "name": "OwnershipTransferred",
      "type": "event"
    },
    {
      "inputs": [
        {
          "internalType": "address",
          "name": "_owner",
          "type": "address"
        }
      ],
      "name": "createWallet",
      "outputs": [
        {
          "internalType": "contract IWallet",
          "name": "",
          "type": "address"
        }
      ],
      "stateMutability": "payable",
      "type": "function"
    },
    {
      "inputs": [],
      "name": "owner",
      "outputs": [
        {
          "internalType": "address",
          "name": "",
          "type": "address"
        }
      ],
      "stateMutability": "view",
      "type": "function"
    },
    {
      "inputs": [],
      "name": "renounceOwnership",
      "outputs": [],
      "stateMutability": "nonpayable",
      "type": "function"
    },
    {
      "inputs": [
        {
          "internalType": "address",
          "name": "newOwner",
          "type": "address"
        }
      ],
      "name": "transferOwnership",
      "outputs": [],
      "stateMutability": "nonpayable",
      "type": "function"
    },
    {
      "inputs": [
        {
          "internalType": "address",
          "name": "_owner",
          "type": "address"
        },
        {
          "internalType": "uint256",
          "name": "_nonce",
          "type": "uint256"
        }
      ],
      "name": "walletAddress",
      "outputs": [
        {
          "internalType": "address",
          "name": "",
          "type": "address"
        }
      ],
      "stateMutability": "view",
      "type": "function"
    }
  ],
  "transactionHash": "0xe76e95df35c47d7d455bf1ce9bb10976219f2565813d16d4fdc1c06798d61efe",
  "args": [
    "0xE9094F85917494647a777156478C788403F9262D"
  ],
  "numDeployments": 9,
  "solcInputHash": "eb98b9651a3145252857f70117a2cffe",
  "bytecode": "0x60803461016657601f61365638819003918201601f19168301926001600160401b039290918385118386101761016b57816020928492604097885283398101031261016657516001600160a01b0380821692909183900361016657600080546001600160a01b0319808216339081178455875191959394939283167f8be0079c531659141344cd1fd0a4f28419497f9722a3daafe3b4186f6b6457e08680a3612ff780820190828210858311176101525790829161065f8339039084f08015610148571680846002541617600255803b1561014457908280926024885180968193636fc0109960e11b83528160048401525af1801561013a57610115575b5050506001541617600155516104dd90816101828239f35b8211610126575083523880806100fd565b634e487b7160e01b81526041600452602490fd5b86513d84823e3d90fd5b8280fd5b86513d85823e3d90fd5b634e487b7160e01b86526041600452602486fd5b600080fd5b634e487b7160e01b600052604160045260246000fdfe60806040818152600436101561001457600080fd5b600091823560e01c9081631238ac7c146102c857508063715018a6146102625780638da5cb5b1461023d578063b054a9e8146101405763f2fde38b1461005957600080fd5b3461013c57602036600319011261013c57610072610387565b61007a6103a2565b6001600160a01b038091169182156100d3575082548273ffffffffffffffffffffffffffffffffffffffff198216178455167f8be0079c531659141344cd1fd0a4f28419497f9722a3daafe3b4186f6b6457e08380a380f35b6084905162461bcd60e51b815260206004820152602660248201527f4f776e61626c653a206e6577206f776e657220697320746865207a65726f206160448201527f64647265737300000000000000000000000000000000000000000000000000006064820152fd5b5080fd5b50906020918260031936011261013c57906101d59161015d610387565b91846001600160a01b03938460015416856002541686865193636fc0109960e11b8686015216602484015260248352610195836103fa565b85518098819482937feebc8e1900000000000000000000000000000000000000000000000000000000845260048401528860248401526044830190610467565b039134905af19384156102315781946101f2575b50505191168152f35b909193508481813d831161022a575b61020b8183610445565b8101031261013c575190828216820361022757509138806101e9565b80fd5b503d610201565b509051903d90823e3d90fd5b503461013c578160031936011261013c576001600160a01b0360209254169051908152f35b823461022757806003193601126102275761027b6103a2565b806001600160a01b03815473ffffffffffffffffffffffffffffffffffffffff1981168355167f8be0079c531659141344cd1fd0a4f28419497f9722a3daafe3b4186f6b6457e08280a380f35b905034610383578160031936011261038357610361916102e6610387565b936001600160a01b03948593846001541685600254166020988994636fc0109960e11b8686015216602484015260248352610320836103fa565b85518098819482937fd1e64ad70000000000000000000000000000000000000000000000000000000084526004840152606060248401526064830190610467565b602435604483015203915afa9384156102315781946101f25750505191168152f35b8280fd5b600435906001600160a01b038216820361039d57565b600080fd5b6001600160a01b036000541633036103b657565b606460405162461bcd60e51b815260206004820152602060248201527f4f776e61626c653a2063616c6c6572206973206e6f7420746865206f776e65726044820152fd5b6060810190811067ffffffffffffffff82111761041657604052565b7f4e487b7100000000000000000000000000000000000000000000000000000000600052604160045260246000fd5b90601f8019910116810190811067ffffffffffffffff82111761041657604052565b919082519283825260005b848110610493575050826000602080949584010152601f8019910116010190565b60208183018101518483018201520161047256fea26469706673582212201a8e6f3552ccc915db050d358f2ec1f589c893b5d5a1135a7e9f97600011d8a064736f6c6343000811003360a080604052346100315730608052612fc0908161003782396080518181816101dd0152818161051001526106990152f35b600080fdfe60806040526004361015610023575b361561001957600080fd5b61002161190c565b005b60003560e01c8063252f5a171461014f5780633659cfe6146101465780634f1ef2861461013d57806352d1902d14610134578063675c73a71461012b578063695730a5146101225780636969e60c146101195780636afdd850146101105780636bee730b146101075780638901e25b146100fe5780638da5cb5b146100f5578063affed0e0146100ec578063d9f60560146100e3578063df802132146100da5763ee5d5bc60361000e576100d561112c565b61000e565b506100d561106e565b506100d5610ff3565b506100d5610f9b565b506100d5610f54565b506100d5610e6d565b506100d5610dd5565b506100d5610d9f565b506100d5610cda565b506100d5610c7d565b506100d56107b3565b506100d561067d565b506100d56104ca565b506100d56101b3565b503461017657602036600319011261017657602061016e6004356115e8565b604051908152f35b600080fd5b6001600160a01b0381160361017657565b608435906101998261017b565b565b60a435906101998261017b565b35906101998261017b565b5034610176576020366003190112610176576004356101d18161017b565b6001600160a01b0390817f0000000000000000000000000000000000000000000000000000000000000000169161020a83301415611198565b6102397f360894a13ba1a3210667c828492db98dca3e2076cc3735a920a3ca505d382bbc938285541614611209565b303303610176576040519061024d826103d0565b600082527f4910fdfa16fed3260ed0e7147f7cc6da11a60208b5b9406d12a635614ffd91435460ff16156102875750506100219150611307565b6020600491604094939451928380926352d1902d60e01b825286165afa60009181610330575b5061031d5760405162461bcd60e51b815260206004820152602e60248201527f45524331393637557067726164653a206e657720696d706c656d656e7461746960448201527f6f6e206973206e6f7420555550530000000000000000000000000000000000006064820152608490fd5b6100219361032b9114611296565b6113b4565b61035291925060203d8111610359575b61034a8183610408565b81019061127a565b90386102ad565b503d610340565b50634e487b7160e01b600052604160045260246000fd5b60a0810190811067ffffffffffffffff82111761039357604052565b61039b610360565b604052565b6060810190811067ffffffffffffffff82111761039357604052565b67ffffffffffffffff811161039357604052565b6020810190811067ffffffffffffffff82111761039357604052565b6040810190811067ffffffffffffffff82111761039357604052565b90601f8019910116810190811067ffffffffffffffff82111761039357604052565b604051906080820182811067ffffffffffffffff82111761039357604052565b60209067ffffffffffffffff8111610468575b601f01601f19160190565b610470610360565b61045d565b9291926104818261044a565b9161048f6040519384610408565b829481845281830111610176578281602093846000960137010152565b9080601f83011215610176578160206104c793359101610475565b90565b506040366003190112610176576004356104e38161017b565b60243567ffffffffffffffff8111610176576105039036906004016104ac565b906001600160a01b0391827f0000000000000000000000000000000000000000000000000000000000000000169261053d84301415611198565b61056c7f360894a13ba1a3210667c828492db98dca3e2076cc3735a920a3ca505d382bbc948286541614611209565b303303610176577f4910fdfa16fed3260ed0e7147f7cc6da11a60208b5b9406d12a635614ffd91435460ff16156105a95750506100219150611307565b6020600491604094939451928380926352d1902d60e01b825286165afa60009181610652575b5061063f5760405162461bcd60e51b815260206004820152602e60248201527f45524331393637557067726164653a206e657720696d706c656d656e7461746960448201527f6f6e206973206e6f7420555550530000000000000000000000000000000000006064820152608490fd5b6100219361064d9114611296565b611486565b61066b91925060203d81116103595761034a8183610408565b90386105cf565b600091031261017657565b5034610176576000366003190112610176576001600160a01b037f00000000000000000000000000000000000000000000000000000000000000001630036106ea576040517f360894a13ba1a3210667c828492db98dca3e2076cc3735a920a3ca505d382bbc8152602090f35b608460405162461bcd60e51b815260206004820152603860248201527f555550535570677261646561626c653a206d757374206e6f742062652063616c60448201527f6c6564207468726f7567682064656c656761746563616c6c00000000000000006064820152fd5b9181601f840112156101765782359167ffffffffffffffff8311610176576020808501948460051b01011161017657565b9181601f840112156101765782359167ffffffffffffffff8311610176576020838186019501011161017657565b50346101765760a03660031901126101765767ffffffffffffffff60048035828111610176576107e69036908301610754565b92602435908111610176576107fe9036908401610785565b604435949161080c8661017b565b6064356108188161017b565b610846608435936108288561017b565b6108405a9461083836898b6119a8565b923691610475565b90611d01565b61084e611c29565b60005b63ffffffff8116858110156108df57906108d582886108cd6108c36108da9661088c478d610883602094859289611aa8565b01351115611ad8565b6108b9858d6108b36108a76108a284848b611aa8565b611b49565b6001600160a01b031690565b96611aa8565b0135938b8d611aa8565b6040810190611b53565b9290916122b5565b611a6f565b610851565b50508583816109e96108a76109db61098b8d7f3c344650e40c6608a176dc19a4b7c111d92b7e4d03081787ac55837ca120d11b9661095b61095061094961094361093e61092d8d5460a01c90565b6bffffffffffffffffffffffff1690565b611871565b9d611b86565b5a90611bba565b60808d015190611bf5565b9960408c019a6fffffffffffffffffffffffffffffffff6109838d516001600160a01b031690565b9116936127f4565b96888861099f83516001600160a01b031690565b6001600160a01b03978891826109c06020809701516001600160a01b031690565b1692168214610a9b575b50505050516001600160a01b031690565b96516001600160a01b031690565b818616146109f357005b610a19610a0b6108a76065546001600160a01b031690565b92546001600160a01b031690565b94823b156101765760408051631b63c28b60e11b81526001600160a01b0397881695810195865233602087015292909516861694840194909452939092166060820152600091839182908490829060800103925af18015610a8e575b610a7b57005b80610a88610021926103bc565b80610672565b610a96611289565b610a75565b600084610b6d610b078683968460405180927f70a082310000000000000000000000000000000000000000000000000000000082528180610aee308d83019190916001600160a01b036020820193169052565b03915afa908115610c70575b8691610c53575b50611bba565b95610b1f6108a76108a78b516001600160a01b031690565b906040519485809481937fa9059cbb00000000000000000000000000000000000000000000000000000000998a845233908401602090939291936001600160a01b0360408201951681520152565b03925af18015610c46575b610c29575b50610b956108a76108a787516001600160a01b031690565b8b6000610ba98d546001600160a01b031690565b93610bd66040519788968795869485528401602090939291936001600160a01b0360408201951681520152565b03925af18015610c1c575b610bee575b8990896109ca565b81610c0d92903d10610c15575b610c058183610408565b810190611c15565b508980610be6565b503d610bfb565b610c24611289565b610be1565b610c3f90833d8511610c1557610c058183610408565b508d610b7d565b610c4e611289565b610b78565b610c6a9150853d87116103595761034a8183610408565b38610b01565b610c78611289565b610afa565b50346101765760203660031901126101765760a0610c9c600435611871565b6080604051916001600160a01b0380825116845280602083015116602085015260408201511660408401526060810151606084015201516080820152f35b5034610176576020806003193601126101765760043567ffffffffffffffff811161017657610d0d903690600401610754565b7f3c344650e40c6608a176dc19a4b7c111d92b7e4d03081787ac55837ca120d11b54610d43906001600160a01b03163314612223565b60005b63ffffffff81169082821015610021576108d5610d9a92610d6d478861088384898b611aa8565b610d7e6108a76108a283888a611aa8565b6108cd6108c389610d90858a8c611aa8565b013593888a611aa8565b610d46565b50346101765760003660031901126101765760206001600160a01b0360655416604051908152f35b908160609103126101765790565b50346101765761012036600319011261017657602435610df48161017b565b604435610e008161017b565b60643590610e0d8261017b565b610e1561018c565b92610e1e61019b565b67ffffffffffffffff949060c43586811161017657610e41903690600401610dc7565b916101043596871161017657610e5e610021973690600401610785565b96909560e435956004356124ed565b503461017657600080600319360112610f51578054610ea360ff8260081c161580928193610f43575b8115610f23575b50611706565b80610eb6600160ff196000541617600055565b610f0a575b610ec361193a565b610eca5780f35b610eda61ff001960005416600055565b604051600181527f7f26b83ff96e1f2b6a682f133852f6798a09c465da95921460cefb384740249890602090a180f35b610f1e61010061ff00196000541617600055565b610ebb565b303b15915081610f35575b5038610e9d565b6001915060ff161438610f2e565b600160ff8216109150610e96565b80fd5b50346101765760003660031901126101765760206001600160a01b037f3c344650e40c6608a176dc19a4b7c111d92b7e4d03081787ac55837ca120d11b5416604051908152f35b50346101765760003660031901126101765760207f3c344650e40c6608a176dc19a4b7c111d92b7e4d03081787ac55837ca120d11b5460a01c604051908152f35b50634e487b7160e01b600052602160045260246000fd5b50346101765760803660031901126101765760406001600160a01b0361104960043561101e8161017b565b60243561102a8161017b565b604435906110378261017b565b606435926110448461017b565b612a3c565b835192916002811015611061575b8352166020820152f35b611069610fdc565b611057565b50346101765760203660031901126101765760043561108c8161017b565b6110ce600054916110b260ff8460081c161580948195610f43578115610f235750611706565b826110c5600160ff196000541617600055565b61111357611777565b6110d457005b6110e461ff001960005416600055565b604051600181527f7f26b83ff96e1f2b6a682f133852f6798a09c465da95921460cefb384740249890602090a1005b61112761010061ff00196000541617600055565b611777565b50346101765760a03660031901126101765760043561114a8161017b565b602435906111578261017b565b6044356111638161017b565b60643561116f8161017b565b608435916fffffffffffffffffffffffffffffffff831683036101765760209461016e946127f4565b1561119f57565b608460405162461bcd60e51b815260206004820152602c60248201527f46756e6374696f6e206d7573742062652063616c6c6564207468726f7567682060448201527f64656c656761746563616c6c00000000000000000000000000000000000000006064820152fd5b1561121057565b608460405162461bcd60e51b815260206004820152602c60248201527f46756e6374696f6e206d7573742062652063616c6c6564207468726f7567682060448201527f6163746976652070726f787900000000000000000000000000000000000000006064820152fd5b90816020910312610176575190565b506040513d6000823e3d90fd5b1561129d57565b608460405162461bcd60e51b815260206004820152602960248201527f45524331393637557067726164653a20756e737570706f727465642070726f7860448201527f6961626c655555494400000000000000000000000000000000000000000000006064820152fd5b803b1561134a576001600160a01b037f360894a13ba1a3210667c828492db98dca3e2076cc3735a920a3ca505d382bbc91166001600160a01b0319825416179055565b608460405162461bcd60e51b815260206004820152602d60248201527f455243313936373a206e657720696d706c656d656e746174696f6e206973206e60448201527f6f74206120636f6e7472616374000000000000000000000000000000000000006064820152fd5b906113be82611307565b6001600160a01b0382167fbc7cd75a20ee27fd9adebab32041f755214dbc6bffa90cc0225b39da2e5c2d3b600080a280511580159061147e575b611400575050565b61147b9160008060405193611414856103a0565b602785527f416464726573733a206c6f772d6c6576656c2064656c65676174652063616c6c60208601527f206661696c6564000000000000000000000000000000000000000000000000006040860152602081519101845af46114756114d9565b91611554565b50565b5060006113f8565b9061149082611307565b6001600160a01b0382167fbc7cd75a20ee27fd9adebab32041f755214dbc6bffa90cc0225b39da2e5c2d3b600080a28051158015906114d157611400575050565b5060016113f8565b3d15611504573d906114ea8261044a565b916114f86040519384610408565b82523d6000602084013e565b606090565b1561151057565b606460405162461bcd60e51b815260206004820152601d60248201527f416464726573733a2063616c6c20746f206e6f6e2d636f6e74726163740000006044820152fd5b919290156115745750815115611568575090565b6104c7903b1515611509565b8251909150156115875750805190602001fd5b6044604051809262461bcd60e51b8252602060048301526115b781518092816024860152602086860191016115c5565b601f01601f19168101030190fd5b60005b8381106115d85750506000910152565b81810151838201526020016115c8565b7f454344534157616c6c65740000000000000000000000000000000000000000006020604051611617816103ec565b600b815201527f302e302e31000000000000000000000000000000000000000000000000000000602060405161164c816103ec565b60058152015260405160208101917f8b73c3c69bb8fe3d512ecc4cf759cc79239f7b179b0ffacaa9a75d522b39400f83527fa493ff226186ed9712809d71f428d7f274876a4f2b9236f1762ec84b059ae32b60408301527fae209a0b48f21c054280f2455d32cf309387644879d9acbd8ffc199163811885606083015260808201523060a082015260a0815260c0810181811067ffffffffffffffff8211176116f9575b60405251902090565b611701610360565b6116f0565b1561170d57565b608460405162461bcd60e51b815260206004820152602e60248201527f496e697469616c697a61626c653a20636f6e747261637420697320616c72656160448201527f647920696e697469616c697a65640000000000000000000000000000000000006064820152fd5b61179660ff60005460081c1661178c81611800565b476117d257611800565b6001600160a01b037f3c344650e40c6608a176dc19a4b7c111d92b7e4d03081787ac55837ca120d11b91166001600160a01b0319825416179055565b476040519081527f3317af6e3247959c45cb6051f9153437a9072683e21eda1f9b52c5bcec0e89c260203392a25b1561180757565b608460405162461bcd60e51b815260206004820152602b60248201527f496e697469616c697a61626c653a20636f6e7472616374206973206e6f74206960448201527f6e697469616c697a696e670000000000000000000000000000000000000000006064820152fd5b6080604091825161188181610377565b60009281848093528260208201528286820152826060820152015281527f3c344650e40c6608a176dc19a4b7c111d92b7e4d03081787ac55837ca120d11c602052206004604051916118d283610377565b80546001600160a01b0390811684526001820154811660208501526002820154166040840152600381015460608401520154608082015290565b6040513481527f3317af6e3247959c45cb6051f9153437a9072683e21eda1f9b52c5bcec0e89c260203392a2565b61194b60ff60005460081c16611800565b4761195257565b476040519081527f3317af6e3247959c45cb6051f9153437a9072683e21eda1f9b52c5bcec0e89c260203392a2565b60209067ffffffffffffffff811161199b575b60051b0190565b6119a3610360565b611994565b909291926119b581611981565b916040916119c583519485610408565b839581855260208095019160051b8301938185116101765783925b8584106119f05750505050505050565b67ffffffffffffffff90843582811161017657860190606082860312610176578351611a1b816103a0565b8235611a268161017b565b8152898301358a8201528483013593841161017657611a49868b958695016104ac565b858201528152019301926119e0565b50634e487b7160e01b600052601160045260246000fd5b60019063ffffffff809116908114611a85570190565b611a8d611a58565b0190565b50634e487b7160e01b600052603260045260246000fd5b9190811015611acb575b60051b81013590605e1981360301821215610176570190565b611ad3611a91565b611ab2565b15611adf57565b608460405162461bcd60e51b815260206004820152602c60248201527f536d61727457616c6c65743a20696e73756666696369656e742062617365206160448201527f737365742062616c616e636500000000000000000000000000000000000000006064820152fd5b356104c78161017b565b903590601e1981360301821215610176570180359067ffffffffffffffff82116101765760200191813603831361017657565b906203d090918201809211611b9757565b610199611a58565b9060018201809211611b9757565b91908201809211611b9757565b91908203918211611b9757565b906103e591828102928184041490151715611b9757565b906103e891828102928184041490151715611b9757565b81810292918115918404141715611b9757565b5190811515820361017657565b90816020910312610176576104c790611c08565b7f3c344650e40c6608a176dc19a4b7c111d92b7e4d03081787ac55837ca120d11b80546001600160a01b036001600160a01b031960018360a01c6bffffffffffffffffffffffff8114611c83575b0160a01b169116179055565b611c8b611a58565b611c77565b15611c9757565b608460405162461bcd60e51b815260206004820152602760248201527f454344534157616c6c65743a206661696c656420746f2076657269667920736960448201527f676e6174757265000000000000000000000000000000000000000000000000006064820152fd5b9080805181019260208401936040938491031261017657602082015191838101519067ffffffffffffffff8211610176570184603f8201121561017657602081015194611d4d8661044a565b90611d5a86519283610408565b86825285878401011161017657611e64611e0f93611d8561019998611e6995896020870191016115c5565b611e1d611d9a611d94886115e8565b9261212d565b7f3c344650e40c6608a176dc19a4b7c111d92b7e4d03081787ac55837ca120d11b5498517f7b253295b5dfff9d0fc334143cf4781476ceb0801f093453e989c297bcb5da4660208201908152604082019290925260a08a811c60608301524660808301528101989098529695869060c0820190565b03601f198101875286610408565b6001600160a01b0395869551902090604291604051917f19010000000000000000000000000000000000000000000000000000000000008352600283015260228201522090565b611e72565b16911614611c90565b6104c791611e7f91611fd4565b919091611e99565b60051115611e9157565b610199610fdc565b611ea281611e87565b80611eaa5750565b611eb381611e87565b60018103611f005760405162461bcd60e51b815260206004820152601860248201527f45434453413a20696e76616c6964207369676e617475726500000000000000006044820152606490fd5b611f0981611e87565b60028103611f565760405162461bcd60e51b815260206004820152601f60248201527f45434453413a20696e76616c6964207369676e6174757265206c656e677468006044820152606490fd5b80611f62600392611e87565b14611f6957565b60405162461bcd60e51b815260206004820152602260248201527f45434453413a20696e76616c6964207369676e6174757265202773272076616c60448201527f75650000000000000000000000000000000000000000000000000000000000006064820152608490fd5b90604181511460001461200257611ffe916020820151906060604084015193015160001a9061200c565b9091565b5050600090600290565b9291907f7fffffffffffffffffffffffffffffff5d576e7357a4501ddfe92f46681b20a083116120905791608094939160ff602094604051948552168484015260408301526060820152600093849182805260015afa15612083575b81516001600160a01b0381161561207d579190565b50600190565b61208b611289565b612068565b50505050600090600390565b906120a682611981565b6120b36040519182610408565b82815280926120c4601f1991611981565b0190602036910137565b6001906000198114611a85570190565b60209181518110156120f3575b60051b010190565b6120fb611a91565b6120eb565b805160208092019160005b828110612119575050505090565b83518552938101939281019260010161210b565b90612138825161209c565b60005b835181101561220457806121636121556121ff93876120de565b51516001600160a01b031690565b60206121ec81612173858a6120de565b510151916121de604080612187888d6120de565b5101518381519101209051948593840196876060919493926001600160a01b0360808301967f8de9c86fbdd52e2efe5d4e29fd947a8389e0d8945fed5eef2d0dff9745e601c7845216602083015260408201520152565b03601f198101835282610408565b5190206121f982856120de565b526120ce565b61213b565b5090915060405161221d816121de602082018095612100565b51902090565b1561222a57565b608460405162461bcd60e51b815260206004820152603060248201527f65787465726e616c20657865632063616e206f6e6c792062652063616c6c656460448201527f2062792077616c6c6574206f776e6572000000000000000000000000000000006064820152fd5b908060209392818452848401376000828201840152601f01601f1916010190565b6001600160a01b037f202ca0633e9bf52b1d9ffc5784badd7db89fdd8a05bea524c99853429017f7ae919492939416916000806040518388823780848101838152039087875af1936123226123086114d9565b966040519384938452604060208501526040840191612294565b0390a21561232d5750565b602081519101fd5b1561233c57565b606460405162461bcd60e51b815260206004820152601160248201527f67617320507269636520746f6f206c6f770000000000000000000000000000006044820152fd5b604051906080820182811067ffffffffffffffff8211176123b7575b60405260006060838281528260208201528260408201520152565b6123bf610360565b61239c565b359065ffffffffffff8216820361017657565b949391949290926001600160a01b0380941681526060602090808284015260c08301958835601e198a3603018112156101765789019183833593019767ffffffffffffffff8411610176578360071b3603891361017657928193828294938801525260e0850197926000915b838310612488575050505050866124746124646040936104c7999a016101a8565b6001600160a01b03166080850152565b013560a08201526040818503910152612294565b9091929398600190828b3561249c8161017b565b16815282878c01356124ad8161017b565b168188015265ffffffffffff6040816124c7828f016123c4565b16908301526124d7858d016123c4565b168185015260809081019a019493019190612443565b96979195999890939492946125076359682f008a11612335565b606580546001600160a01b0319166001600160a01b0395861617905561252b612380565b5061253461042a565b6001600160a01b03821681529030602083019081529b61256360408401968b1687906001600160a01b03169052565b6001600160a01b038716606084019081529361258a6108a76065546001600160a01b031690565b803b15610176576125d1916040519485809481937f2a2d80d100000000000000000000000000000000000000000000000000000000835260009b8c988995600486016123d7565b03925af180156126d5575b6126c2575b5061263b61262d61261f6126116126036108a76065546001600160a01b031690565b94516001600160a01b031690565b9d516001600160a01b031690565b95516001600160a01b031690565b92516001600160a01b031690565b93813b156126be57604051631b63c28b60e11b81526001600160a01b039c8d166004820152908c166024820152918b1660448301529290991660648a015296976101999790918290608490829084905af180156126b1575b61269e575b506126e2565b80610a886126ab926103bc565b38612698565b6126b9611289565b612693565b8380fd5b80610a886126cf926103bc565b386125e1565b6126dd611289565b6125dc565b9391600493916127e1916127c0604051976126fc89610377565b6001600160a01b0393848092168a528160208b01911681528160408b019416845260608a0196875260808a019788527f3c344650e40c6608a176dc19a4b7c111d92b7e4d03081787ac55837ca120d11b5460a01c6000527f3c344650e40c6608a176dc19a4b7c111d92b7e4d03081787ac55837ca120d11c60205261279f8260406000209b51168b906001600160a01b03166001600160a01b0319825416179055565b511660018901906001600160a01b03166001600160a01b0319825416179055565b511660028601906001600160a01b03166001600160a01b0319825416179055565b51600384015551910155565b1561017657565b949392909161280592600096612a3c565b906002811015612a1a575b6001810361282457506104c7929350612d37565b1561282d575050565b6104c7929350906001600160a01b0361296d921690604051907f0902f1ac000000000000000000000000000000000000000000000000000000008252606082600481865afa908115612a0d575b600091829383916129c5575b506129609160049160206129679697604051948580927f5909c0d50000000000000000000000000000000000000000000000000000000082525afa9283156129b8575b600093612972575b5061295b916129546128fa63ffffffff6fffffffffffffffffffffffffffffffff941642611bba565b9461294e6129078b612c93565b966129486129276dffffffffffffffffffffffffffff809c16809a612cee565b7bffffffffffffffffffffffffffffffffffffffffffffffffffffffff1690565b90611bf5565b90611bad565b5016611bc7565b611bf5565b9216611bde565b90612c7d565b611b9f565b6fffffffffffffffffffffffffffffffff919350916129546128fa63ffffffff6129ac61295b9660203d81116103595761034a8183610408565b969450505050916128d1565b6129c0611289565b6128c9565b61296794506020935060049150916129f66129609360603d8111612a06575b6129ee8183610408565b810190612c39565b9096509094509092909150612886565b503d6129e4565b612a15611289565b61287a565b612a22610fdc565b612810565b9081602091031261017657516104c78161017b565b6040517f1698ee820000000000000000000000000000000000000000000000000000000081526001600160a01b038083166004830152831660248201526109c4604482015294936020939092918487806064810103816001600160a01b038098165afa968715612c00575b600097612bd7575b506040517fe6a439050000000000000000000000000000000000000000000000000000000081526001600160a01b0391821660048201529216602483015283908290818581604481015b0392165afa928315612bca575b600093612b9b575b505083811615612b2057505060019190565b909250821615612b305760009190565b60405162461bcd60e51b815260206004820152603060248201527f4e6f207061697220666f756e642c20556e61626c6520746f20657374696d617460448201527f65206665657320666f72207472616465000000000000000000000000000000006064820152608490fd5b612bbb929350803d10612bc3575b612bb38183610408565b810190612a27565b903880612b0e565b503d612ba9565b612bd2611289565b612b06565b612af99391975091612bf68693843d8611612bc357612bb38183610408565b9791935091612aaf565b612c08611289565b612aa7565b51906dffffffffffffffffffffffffffff8216820361017657565b519063ffffffff8216820361017657565b9081606091031261017657612c4d81612c0d565b916104c76040612c5f60208501612c0d565b9301612c28565b50634e487b7160e01b600052601260045260246000fd5b8115612c87570490565b612c8f612c66565b0490565b7bffffffffffffffffffffffffffff00000000000000000000000000006dffffffffffffffffffffffffffff82169160701b16908082046e0100000000000000000000000000001490151715612ce65790565b6104c7611a58565b907bffffffffffffffffffffffffffffffffffffffffffffffffffffffff809116918215612d1b57160490565b612d23612c66565b160490565b519061ffff8216820361017657565b6040517f3850c7bd00000000000000000000000000000000000000000000000000000000815260e0816004816001600160a01b038096165afa908115612e51575b600091612dc3575b5016906fffffffffffffffffffffffffffffffff808311612daf57612da8836104c794611bf5565b9116612f44565b612dbc836104c794612e5e565b9116612ea8565b60e0813d8211612e49575b81612ddb60e09383610408565b81010312612e4557805191612def8361017b565b60208201518060020b03610f51575060c081612e106040612e3e9401612d28565b50612e1d60608201612d28565b50612e2a60808201612d28565b50612e3760a08201612c28565b5001611c08565b5038612d80565b5080fd5b3d9150612dce565b612e59611289565b612d78565b6000198282099082810292838084109303928084039314612e9f57680100000000000000009183831115610176570990828211900360c01b910360401c1790565b50505060401c90565b9070010000000000000000000000000000000090600019838309928060801b92838086109503948086039514612f3557908291612ee68684116127ed565b0981806000031680920460028082600302188083028203028083028203028083028203028083028203028083028203028092029003029360018380600003040190848311900302920304170290565b50509150612c8f8215156127ed565b90780100000000000000000000000000000000000000000000000090600019838309928060c01b92838086109503948086039514612f3557908291612ee68684116127ed56fea2646970667358221220b71ccd7df7ac75cbdbc3c4d107389dc1935e5e25aa2e8255c9e6062a303129e964736f6c63430008110033",
  "devdoc": {
    "kind": "dev",
    "methods": {
      "owner()": {
        "details": "Returns the address of the current owner."
      },
      "renounceOwnership()": {
        "details": "Leaves the contract without owner. It will not be possible to call `onlyOwner` functions. Can only be called by the current owner. NOTE: Renouncing ownership will leave the contract without an owner, thereby disabling any functionality that is only available to the owner."
      },
      "transferOwnership(address)": {
        "details": "Transfers ownership of the contract to a new account (`newOwner`). Can only be called by the current owner."
      }
    },
    "version": 1
  },
  "userdoc": {
    "kind": "user",
    "methods": {},
    "version": 1
  },
  "storageLayout": {
    "storage": [
      {
        "astId": 2685,
        "contract": "contracts/ECDSAWalletFactory.sol:ECDSAWalletFactory",
        "label": "_owner",
        "offset": 0,
        "slot": "0",
        "type": "t_address"
      },
      {
        "astId": 4106,
        "contract": "contracts/ECDSAWalletFactory.sol:ECDSAWalletFactory",
        "label": "factory",
        "offset": 0,
        "slot": "1",
        "type": "t_contract(SmartWalletFactory)4897"
      },
      {
        "astId": 4109,
        "contract": "contracts/ECDSAWalletFactory.sol:ECDSAWalletFactory",
        "label": "wallet",
        "offset": 0,
        "slot": "2",
        "type": "t_contract(ECDSAWallet)4096"
      }
    ],
    "types": {
      "t_address": {
        "encoding": "inplace",
        "label": "address",
        "numberOfBytes": "20"
      },
      "t_contract(ECDSAWallet)4096": {
        "encoding": "inplace",
        "label": "contract ECDSAWallet",
        "numberOfBytes": "20"
      },
      "t_contract(SmartWalletFactory)4897": {
        "encoding": "inplace",
        "label": "contract SmartWalletFactory",
        "numberOfBytes": "20"
      }
    }
  }
}