{
  "address": "0xE9c632c0Bc8aB05E7f4Cb3136E6607e613bB687D",
  "abi": [
    {
      "inputs": [
        {
          "internalType": "contract SmartWalletFactory",
          "name": "_factory",
          "type": "address"
        }
      ],
      "stateMutability": "nonpayable",
      "type": "constructor"
    },
    {
      "anonymous": false,
      "inputs": [
        {
          "indexed": true,
          "internalType": "address",
          "name": "previousOwner",
          "type": "address"
        },
        {
          "indexed": true,
          "internalType": "address",
          "name": "newOwner",
          "type": "address"
        }
      ],
      "name": "OwnershipTransferred",
      "type": "event"
    },
    {
      "inputs": [
        {
          "internalType": "address",
          "name": "_owner",
          "type": "address"
        }
      ],
      "name": "createWallet",
      "outputs": [
        {
          "internalType": "contract IWallet",
          "name": "",
          "type": "address"
        }
      ],
      "stateMutability": "payable",
      "type": "function"
    },
    {
      "inputs": [],
      "name": "owner",
      "outputs": [
        {
          "internalType": "address",
          "name": "",
          "type": "address"
        }
      ],
      "stateMutability": "view",
      "type": "function"
    },
    {
      "inputs": [],
      "name": "renounceOwnership",
      "outputs": [],
      "stateMutability": "nonpayable",
      "type": "function"
    },
    {
      "inputs": [
        {
          "internalType": "address",
          "name": "newOwner",
          "type": "address"
        }
      ],
      "name": "transferOwnership",
      "outputs": [],
      "stateMutability": "nonpayable",
      "type": "function"
    },
    {
      "inputs": [
        {
          "internalType": "address",
          "name": "_owner",
          "type": "address"
        },
        {
          "internalType": "uint256",
          "name": "_nonce",
          "type": "uint256"
        }
      ],
      "name": "walletAddress",
      "outputs": [
        {
          "internalType": "address",
          "name": "",
          "type": "address"
        }
      ],
      "stateMutability": "view",
      "type": "function"
    }
  ],
  "transactionHash": "0x94f466def4875f3e2a2a6a261f57a840c1362572087608db8b35e69070936166",
  "args": [
    "0xDA3b28620b819C49c2746B775416C97E93b4Cb37"
  ],
  "numDeployments": 4,
  "solcInputHash": "45a6f5cf46b1ea4712472b859564d202",
  "bytecode": "0x60803461016657601f61311238819003918201601f19168301926001600160401b039290918385118386101761016b57816020928492604097885283398101031261016657516001600160a01b0380821692909183900361016657600080546001600160a01b0319808216339081178455875191959394939283167f8be0079c531659141344cd1fd0a4f28419497f9722a3daafe3b4186f6b6457e08680a3612ab380820190828210858311176101525790829161065f8339039084f08015610148571680846002541617600255803b1561014457908280926024885180968193636fc0109960e11b83528160048401525af1801561013a57610115575b5050506001541617600155516104dd90816101828239f35b8211610126575083523880806100fd565b634e487b7160e01b81526041600452602490fd5b86513d84823e3d90fd5b8280fd5b86513d85823e3d90fd5b634e487b7160e01b86526041600452602486fd5b600080fd5b634e487b7160e01b600052604160045260246000fdfe60806040818152600436101561001457600080fd5b600091823560e01c9081631238ac7c146102c857508063715018a6146102625780638da5cb5b1461023d578063b054a9e8146101405763f2fde38b1461005957600080fd5b3461013c57602036600319011261013c57610072610387565b61007a6103a2565b6001600160a01b038091169182156100d3575082548273ffffffffffffffffffffffffffffffffffffffff198216178455167f8be0079c531659141344cd1fd0a4f28419497f9722a3daafe3b4186f6b6457e08380a380f35b6084905162461bcd60e51b815260206004820152602660248201527f4f776e61626c653a206e6577206f776e657220697320746865207a65726f206160448201527f64647265737300000000000000000000000000000000000000000000000000006064820152fd5b5080fd5b50906020918260031936011261013c57906101d59161015d610387565b91846001600160a01b03938460015416856002541686865193636fc0109960e11b8686015216602484015260248352610195836103fa565b85518098819482937feebc8e1900000000000000000000000000000000000000000000000000000000845260048401528860248401526044830190610467565b039134905af19384156102315781946101f2575b50505191168152f35b909193508481813d831161022a575b61020b8183610445565b8101031261013c575190828216820361022757509138806101e9565b80fd5b503d610201565b509051903d90823e3d90fd5b503461013c578160031936011261013c576001600160a01b0360209254169051908152f35b823461022757806003193601126102275761027b6103a2565b806001600160a01b03815473ffffffffffffffffffffffffffffffffffffffff1981168355167f8be0079c531659141344cd1fd0a4f28419497f9722a3daafe3b4186f6b6457e08280a380f35b905034610383578160031936011261038357610361916102e6610387565b936001600160a01b03948593846001541685600254166020988994636fc0109960e11b8686015216602484015260248352610320836103fa565b85518098819482937fd1e64ad70000000000000000000000000000000000000000000000000000000084526004840152606060248401526064830190610467565b602435604483015203915afa9384156102315781946101f25750505191168152f35b8280fd5b600435906001600160a01b038216820361039d57565b600080fd5b6001600160a01b036000541633036103b657565b606460405162461bcd60e51b815260206004820152602060248201527f4f776e61626c653a2063616c6c6572206973206e6f7420746865206f776e65726044820152fd5b6060810190811067ffffffffffffffff82111761041657604052565b7f4e487b7100000000000000000000000000000000000000000000000000000000600052604160045260246000fd5b90601f8019910116810190811067ffffffffffffffff82111761041657604052565b919082519283825260005b848110610493575050826000602080949584010152601f8019910116010190565b60208183018101518483018201520161047256fea2646970667358221220a9693c83318c37c3581845f17f48745f9bd10105e93e8ccd39b34651fe7ca9e164736f6c6343000811003360a080604052346100315730608052612a7c90816100378239608051818181610194015281816104ab01526106340152f35b600080fdfe60806040526004361015610023575b361561001957600080fd5b6100216113ca565b005b60003560e01c8063252f5a17146101135780633659cfe61461010a5780634f1ef2861461010157806352d1902d146100f85780636afdd850146100ef5780638868f4d1146100e65780638901e25b146100dd5780638da5cb5b146100d4578063affed0e0146100cb578063cc29a0d3146100c2578063db780225146100b95763df8021320361000e576100b4610c19565b61000e565b506100b4610b9d565b506100b4610b19565b506100b4610aaa565b506100b4610a63565b506100b461097c565b506100b4610721565b506100b46106ef565b506100b4610618565b506100b4610465565b506100b461016a565b503461013a57602036600319011261013a576020610132600435611134565b604051908152f35b600080fd5b6001600160a01b0381160361013a57565b6044359061015d8261013f565b565b359061015d8261013f565b503461013a57602036600319011261013a576004356101888161013f565b6001600160a01b0390817f000000000000000000000000000000000000000000000000000000000000000016916101c183301415610cd7565b6101f07f360894a13ba1a3210667c828492db98dca3e2076cc3735a920a3ca505d382bbc938285541614610d48565b30330361013a57604051906102048261036b565b600082527f4910fdfa16fed3260ed0e7147f7cc6da11a60208b5b9406d12a635614ffd91435460ff161561023e5750506100219150610e46565b6020600491604094939451928380926352d1902d60e01b825286165afa600091816102e7575b506102d45760405162461bcd60e51b815260206004820152602e60248201527f45524331393637557067726164653a206e657720696d706c656d656e7461746960448201527f6f6e206973206e6f7420555550530000000000000000000000000000000000006064820152608490fd5b610021936102e29114610dd5565b610f00565b61030991925060203d8111610310575b61030181836103a3565b810190610db9565b9038610264565b503d6102f7565b50634e487b7160e01b600052604160045260246000fd5b6060810190811067ffffffffffffffff82111761034a57604052565b610352610317565b604052565b67ffffffffffffffff811161034a57604052565b6020810190811067ffffffffffffffff82111761034a57604052565b6040810190811067ffffffffffffffff82111761034a57604052565b90601f8019910116810190811067ffffffffffffffff82111761034a57604052565b604051906080820182811067ffffffffffffffff82111761034a57604052565b60209067ffffffffffffffff8111610403575b601f01601f19160190565b61040b610317565b6103f8565b92919261041c826103e5565b9161042a60405193846103a3565b82948184528183011161013a578281602093846000960137010152565b9080601f8301121561013a5781602061046293359101610410565b90565b50604036600319011261013a5760043561047e8161013f565b60243567ffffffffffffffff811161013a5761049e903690600401610447565b906001600160a01b0391827f000000000000000000000000000000000000000000000000000000000000000016926104d884301415610cd7565b6105077f360894a13ba1a3210667c828492db98dca3e2076cc3735a920a3ca505d382bbc948286541614610d48565b30330361013a577f4910fdfa16fed3260ed0e7147f7cc6da11a60208b5b9406d12a635614ffd91435460ff16156105445750506100219150610e46565b6020600491604094939451928380926352d1902d60e01b825286165afa600091816105ed575b506105da5760405162461bcd60e51b815260206004820152602e60248201527f45524331393637557067726164653a206e657720696d706c656d656e7461746960448201527f6f6e206973206e6f7420555550530000000000000000000000000000000000006064820152608490fd5b610021936105e89114610dd5565b610fd2565b61060691925060203d81116103105761030181836103a3565b903861056a565b600091031261013a57565b503461013a57600036600319011261013a576001600160a01b037f0000000000000000000000000000000000000000000000000000000000000000163003610685576040517f360894a13ba1a3210667c828492db98dca3e2076cc3735a920a3ca505d382bbc8152602090f35b608460405162461bcd60e51b815260206004820152603860248201527f555550535570677261646561626c653a206d757374206e6f742062652063616c60448201527f6c6564207468726f7567682064656c656761746563616c6c00000000000000006064820152fd5b503461013a57600036600319011261013a5760206001600160a01b0360655416604051908152f35b8015150361013a57565b503461013a57606036600319011261013a576004356fffffffffffffffffffffffffffffffff80821680920361013a57602091602435916107618361013f565b60443561076d81610717565b60408051639bc527bd60e01b8152466004820152909460009391868160248173EA01BF64cb7705c504aE1e5Fc4a86911FC887cc85af490811561096f575b8591610942575b5060c0610828896001600160a01b0394846107ec6107e0888581809a5116940151166001600160a01b031690565b6001600160a01b031690565b8c51630b4c774160e11b81526001600160a01b0392831660048201529190921660248201526109c4604482015292839190829081906064820190565b03915afa908115610935575b8791610908575b506004895180948193633850c7bd60e01b8352165afa9081156108fb575b85916108c8575b501690811161089a5761087591925080611719565b9061088c5790610884916129dc565b905b51908152f35b610895916129a8565b610884565b806108a4916127cf565b91506108ba57906108b491612928565b90610886565b6108c39161282e565b6108b4565b6108e9915060c03d81116108f4575b6108e181836103a3565b810190612259565b505050505038610860565b503d6108d7565b610903610dc8565b610859565b61092891508a3d811161092e575b61092081836103a3565b810190612235565b3861083b565b503d610916565b61093d610dc8565b610834565b6109629150873d8911610968575b61095a81836103a3565b8101906121bd565b386107b2565b503d610950565b610977610dc8565b6107ab565b503461013a57600080600319360112610a605780546109b260ff8260081c161580928193610a52575b8115610a32575b50611252565b806109c5600160ff196000541617600055565b610a19575b6109d26113f8565b6109d95780f35b6109e961ff001960005416600055565b604051600181527f7f26b83ff96e1f2b6a682f133852f6798a09c465da95921460cefb384740249890602090a180f35b610a2d61010061ff00196000541617600055565b6109ca565b303b15915081610a44575b50386109ac565b6001915060ff161438610a3d565b600160ff82161091506109a5565b80fd5b503461013a57600036600319011261013a5760206001600160a01b037f3c344650e40c6608a176dc19a4b7c111d92b7e4d03081787ac55837ca120d11b5416604051908152f35b503461013a57600036600319011261013a5760207f3c344650e40c6608a176dc19a4b7c111d92b7e4d03081787ac55837ca120d11b5460a01c604051908152f35b9181601f8401121561013a5782359167ffffffffffffffff831161013a576020838186019501011161013a57565b503461013a5760031960c03682011261013a57602435610b388161013f565b60443590610b458261013f565b60643590610b528261013f565b6084359167ffffffffffffffff9485841161013a57606090843603011261013a5760a43594851161013a57610b8e610021953690600401610aeb565b949093600401926004356125e6565b503461013a57608036600319011261013a5767ffffffffffffffff60043581811161013a573660238201121561013a57806004013582811161013a573660248260051b8401011161013a5760243592831161013a57610c03610021933690600401610aeb565b90610c0c610150565b9260246064359501611741565b503461013a57602036600319011261013a57600435610c378161013f565b610c7960005491610c5d60ff8460081c161580948195610a52578115610a325750611252565b82610c70600160ff196000541617600055565b610cbe576112c3565b610c7f57005b610c8f61ff001960005416600055565b604051600181527f7f26b83ff96e1f2b6a682f133852f6798a09c465da95921460cefb384740249890602090a1005b610cd261010061ff00196000541617600055565b6112c3565b15610cde57565b608460405162461bcd60e51b815260206004820152602c60248201527f46756e6374696f6e206d7573742062652063616c6c6564207468726f7567682060448201527f64656c656761746563616c6c00000000000000000000000000000000000000006064820152fd5b15610d4f57565b608460405162461bcd60e51b815260206004820152602c60248201527f46756e6374696f6e206d7573742062652063616c6c6564207468726f7567682060448201527f6163746976652070726f787900000000000000000000000000000000000000006064820152fd5b9081602091031261013a575190565b506040513d6000823e3d90fd5b15610ddc57565b608460405162461bcd60e51b815260206004820152602960248201527f45524331393637557067726164653a20756e737570706f727465642070726f7860448201527f6961626c655555494400000000000000000000000000000000000000000000006064820152fd5b803b15610e96576001600160a01b037f360894a13ba1a3210667c828492db98dca3e2076cc3735a920a3ca505d382bbc911673ffffffffffffffffffffffffffffffffffffffff19825416179055565b608460405162461bcd60e51b815260206004820152602d60248201527f455243313936373a206e657720696d706c656d656e746174696f6e206973206e60448201527f6f74206120636f6e7472616374000000000000000000000000000000000000006064820152fd5b90610f0a82610e46565b6001600160a01b0382167fbc7cd75a20ee27fd9adebab32041f755214dbc6bffa90cc0225b39da2e5c2d3b600080a2805115801590610fca575b610f4c575050565b610fc79160008060405193610f608561032e565b602785527f416464726573733a206c6f772d6c6576656c2064656c65676174652063616c6c60208601527f206661696c6564000000000000000000000000000000000000000000000000006040860152602081519101845af4610fc1611025565b916110a0565b50565b506000610f44565b90610fdc82610e46565b6001600160a01b0382167fbc7cd75a20ee27fd9adebab32041f755214dbc6bffa90cc0225b39da2e5c2d3b600080a280511580159061101d57610f4c575050565b506001610f44565b3d15611050573d90611036826103e5565b9161104460405193846103a3565b82523d6000602084013e565b606090565b1561105c57565b606460405162461bcd60e51b815260206004820152601d60248201527f416464726573733a2063616c6c20746f206e6f6e2d636f6e74726163740000006044820152fd5b919290156110c057508151156110b4575090565b610462903b1515611055565b8251909150156110d35750805190602001fd5b6044604051809262461bcd60e51b8252602060048301526111038151809281602486015260208686019101611111565b601f01601f19168101030190fd5b60005b8381106111245750506000910152565b8181015183820152602001611114565b7f454344534157616c6c6574000000000000000000000000000000000000000000602060405161116381610387565b600b815201527f302e302e31000000000000000000000000000000000000000000000000000000602060405161119881610387565b60058152015260405160208101917f8b73c3c69bb8fe3d512ecc4cf759cc79239f7b179b0ffacaa9a75d522b39400f83527fa493ff226186ed9712809d71f428d7f274876a4f2b9236f1762ec84b059ae32b60408301527fae209a0b48f21c054280f2455d32cf309387644879d9acbd8ffc199163811885606083015260808201523060a082015260a0815260c0810181811067ffffffffffffffff821117611245575b60405251902090565b61124d610317565b61123c565b1561125957565b608460405162461bcd60e51b815260206004820152602e60248201527f496e697469616c697a61626c653a20636f6e747261637420697320616c72656160448201527f647920696e697469616c697a65640000000000000000000000000000000000006064820152fd5b6112e260ff60005460081c166112d881611359565b4761132b57611359565b6001600160a01b037f3c344650e40c6608a176dc19a4b7c111d92b7e4d03081787ac55837ca120d11b911673ffffffffffffffffffffffffffffffffffffffff19825416179055565b476040519081527f3317af6e3247959c45cb6051f9153437a9072683e21eda1f9b52c5bcec0e89c260203392a25b1561136057565b608460405162461bcd60e51b815260206004820152602b60248201527f496e697469616c697a61626c653a20636f6e7472616374206973206e6f74206960448201527f6e697469616c697a696e670000000000000000000000000000000000000000006064820152fd5b6040513481527f3317af6e3247959c45cb6051f9153437a9072683e21eda1f9b52c5bcec0e89c260203392a2565b61140960ff60005460081c16611359565b4761141057565b476040519081527f3317af6e3247959c45cb6051f9153437a9072683e21eda1f9b52c5bcec0e89c260203392a2565b1561144657565b606460405162461bcd60e51b815260206004820152601060248201527f676173207072636520746f6f206c6f77000000000000000000000000000000006044820152fd5b60209067ffffffffffffffff81116114a4575b60051b0190565b6114ac610317565b61149d565b909291926114be8161148a565b916040916114ce835194856103a3565b839581855260208095019160051b83019381851161013a5783925b8584106114f95750505050505050565b67ffffffffffffffff90843582811161013a5786019060608286031261013a5783516115248161032e565b823561152f8161013f565b8152898301358a8201528483013593841161013a57611552868b95869501610447565b858201528152019301926114e9565b50634e487b7160e01b600052601160045260246000fd5b60019063ffffffff80911690811461158e570190565b611596611561565b0190565b50634e487b7160e01b600052603260045260246000fd5b90600110156115d3575b602081013590605e198136030182121561013a570190565b6115db61159a565b6115bb565b9190811015611603575b60051b81013590605e198136030182121561013a570190565b61160b61159a565b6115ea565b1561161757565b608460405162461bcd60e51b815260206004820152602c60248201527f536d61727457616c6c65743a20696e73756666696369656e742062617365206160448201527f737365742062616c616e636500000000000000000000000000000000000000006064820152fd5b356104628161013f565b903590601e198136030182121561013a570180359067ffffffffffffffff821161013a5760200191813603831361013a57565b60020390600282116116cc57565b61015d611561565b919082039182116116cc57565b90816003029160038304036116cc57565b90811560018380041417156116cc57565b908160071b91808304608014901517156116cc57565b818102929181159184041417156116cc57565b9081602091031261013a575161046281610717565b93919561177b63ffffffff969461177584996117626359682f00891161143f565b61176d36878b6114b1565b923691610410565b90611bfa565b92611784611b15565b5a604080517f70a08231000000000000000000000000000000000000000000000000000000008082523060048301526020989297936001600160a01b03938685169391929091908b82602481885afa918215611b08575b600092611ae9575b50919395979d50919395979b5060005b63ffffffff81168d81101561189357916118818e9f999795939263ffffffff9f9b999795938f8f8f8f9061186b61187c9561187493611841478761183885858c6115e0565b01351115611610565b6118576107e061185284848b6115e0565b611681565b9561186383838a6115e0565b0135966115e0565b9081019061168b565b92909161213d565b611578565b919395979950919395979d9c506117f3565b50509a6119268861192161190c88999b9f966119078f9c9f8f988161192c9c9d6118ff936107e09d6118529d51928391825281806118e430600483019190916001600160a01b036020820193169052565b03915afa918215611adc575b600092611abf575b50506116d4565b9a5a906116d4565b611719565b6fffffffffffffffffffffffffffffffff1690565b6122b9565b9a6115b1565b82036119c05750505061194a6107e06065546001600160a01b031690565b91823b1561013a5751631b63c28b60e11b81526001600160a01b03938416600482015233602482015293168216604484015292166064820152906000908290608490829084905af180156119b3575b6119a05750565b806119ad61015d92610357565b8061060d565b6119bb610dc8565b611999565b8297506000919350956119d981611a4f989794976116d4565b85517fa9059cbb0000000000000000000000000000000000000000000000000000000080825233600483015260248201939093529095908781604481878a5af18015611ab2575b611a95575b505196879586948593845260048401602090939291936001600160a01b0360408201951681520152565b03925af18015611a88575b611a62575050565b81610fc792903d10611a81575b611a7981836103a3565b81019061172c565b503d611a6f565b611a90610dc8565b611a5a565b611aab90883d8a11611a8157611a7981836103a3565b5038611a25565b611aba610dc8565b611a20565b611ad59250803d106103105761030181836103a3565b8f806118f8565b611ae4610dc8565b6118f0565b611b019192508c8d3d106103105761030181836103a3565b90386117e3565b611b10610dc8565b6117db565b7f3c344650e40c6608a176dc19a4b7c111d92b7e4d03081787ac55837ca120d11b80546001600160a01b0373ffffffffffffffffffffffffffffffffffffffff1960018360a01c6bffffffffffffffffffffffff8114611b7c575b0160a01b169116179055565b611b84611561565b611b70565b15611b9057565b608460405162461bcd60e51b815260206004820152602760248201527f454344534157616c6c65743a206661696c656420746f2076657269667920736960448201527f676e6174757265000000000000000000000000000000000000000000000000006064820152fd5b81908151820160208101906040948591031261013a57602083015192848101519067ffffffffffffffff821161013a57019181603f8401121561013a57602083015190611c46826103e5565b92611c53875194856103a3565b82845286838601011161013a5761046294611c7b611d5293611d579689602088019101611111565b611d08611d16611c93611c8d84611134565b94612034565b7f3c344650e40c6608a176dc19a4b7c111d92b7e4d03081787ac55837ca120d11b5499517f7b253295b5dfff9d0fc334143cf4781476ceb0801f093453e989c297bcb5da4660208201908152604082019290925260a08b811c60608301524660808301528101949094529291829060c0820190565b03601f1981018352826103a3565b51902090604291604051917f19010000000000000000000000000000000000000000000000000000000000008352600283015260228201522090565b611d6b565b916001600160a01b03808416911614611b89565b61046291611d7891611edb565b919091611da0565b60051115611d8a57565b634e487b7160e01b600052602160045260246000fd5b611da981611d80565b80611db15750565b611dba81611d80565b60018103611e075760405162461bcd60e51b815260206004820152601860248201527f45434453413a20696e76616c6964207369676e617475726500000000000000006044820152606490fd5b611e1081611d80565b60028103611e5d5760405162461bcd60e51b815260206004820152601f60248201527f45434453413a20696e76616c6964207369676e6174757265206c656e677468006044820152606490fd5b80611e69600392611d80565b14611e7057565b60405162461bcd60e51b815260206004820152602260248201527f45434453413a20696e76616c6964207369676e6174757265202773272076616c60448201527f75650000000000000000000000000000000000000000000000000000000000006064820152608490fd5b906041815114600014611f0957611f05916020820151906060604084015193015160001a90611f13565b9091565b5050600090600290565b9291907f7fffffffffffffffffffffffffffffff5d576e7357a4501ddfe92f46681b20a08311611f975791608094939160ff602094604051948552168484015260408301526060820152600093849182805260015afa15611f8a575b81516001600160a01b03811615611f84579190565b50600190565b611f92610dc8565b611f6f565b50505050600090600390565b90611fad8261148a565b611fba60405191826103a3565b8281528092611fcb601f199161148a565b0190602036910137565b600190600019811461158e570190565b6020918151811015611ffa575b60051b010190565b61200261159a565b611ff2565b805160208092019160005b828110612020575050505090565b835185529381019392810192600101612012565b9061203f8251611fa3565b60005b83518110156120fd578061206a61205c6120f89387611fe5565b51516001600160a01b031690565b60206120e58161207a858a611fe5565b51015191611d0860408061208e888d611fe5565b5101518381519101209051948593840196876060919493926001600160a01b0360808301967f8de9c86fbdd52e2efe5d4e29fd947a8389e0d8945fed5eef2d0dff9745e601c7845216602083015260408201520152565b5190206120f28285611fe5565b52611fd5565b612042565b5090915060405161211681611d08602082018095612007565b51902090565b908060209392818452848401376000828201840152601f01601f1916010190565b6001600160a01b037f202ca0633e9bf52b1d9ffc5784badd7db89fdd8a05bea524c99853429017f7ae919492939416916000806040518388823780848101838152039087875af1936121aa612190611025565b96604051938493845260406020850152604084019161211c565b0390a2156121b55750565b602081519101fd5b9060408282031261013a5780601f8301121561013a57604051916040830183811067ffffffffffffffff821117612228575b60405282906040810192831161013a57905b82821061220e5750505090565b60208091835161221d8161013f565b815201910190612201565b612230610317565b6121ef565b9081602091031261013a57516104628161013f565b519061ffff8216820361013a57565b91908260c091031261013a5781516122708161013f565b9160208101518060020b810361013a579161228d6040830161224a565b9161229a6060820161224a565b9160a06122a96080840161224a565b92015160ff8116810361013a5790565b60408051639bc527bd60e01b815246600482015291929190808260248173EA01BF64cb7705c504aE1e5Fc4a86911FC887cc85af491821561246c575b600092612446575b5061236960c09160206001600160a01b03958561232d6107e0898581809b5116940151166001600160a01b031690565b8451630b4c774160e11b81526001600160a01b0392831660048201529190921660248201526109c4604482015293849190829081906064820190565b03915afa918215612439575b600092612416575b506004905180948193633850c7bd60e01b8352165afa908115612409575b6000916123e6575b5016906fffffffffffffffffffffffffffffffff8083116123d2576123cb8361046294611719565b91166129a8565b6123df83610462946127cf565b911661282e565b6123fe915060c03d81116108f4576108e181836103a3565b5050505050386123a3565b612411610dc8565b61239b565b60049192506124329060203d811161092e5761092081836103a3565b919061237d565b612441610dc8565b612375565b8192506124646123699160c0933d86116109685761095a81836103a3565b9291506122fd565b612474610dc8565b6122f5565b604051906080820182811067ffffffffffffffff8211176124b0575b60405260006060838281528260208201528260408201520152565b6124b8610317565b612495565b359065ffffffffffff8216820361013a57565b949391949290926001600160a01b0380941681526060602090808284015260c08301958835601e198a36030181121561013a5789019183833593019767ffffffffffffffff841161013a578360071b3603891361013a57928193828294938801525260e0850197926000915b8383106125815750505050508661256d61255d604093610462999a0161015f565b6001600160a01b03166080850152565b013560a0820152604081850391015261211c565b9091929398600190828b356125958161013f565b16815282878c01356125a68161013f565b168188015265ffffffffffff6040816125c0828f016124bd565b16908301526125d0858d016124bd565b168185015260809081019a01949301919061253c565b9190939592956126236001600160a01b038098166001600160a01b031673ffffffffffffffffffffffffffffffffffffffff196065541617606555565b61262b612479565b506126346103c5565b6001600160a01b0383168152933060208601908152976126639060408701951685906001600160a01b03169052565b61267a606086019687906001600160a01b03169052565b61268f6107e06065546001600160a01b031690565b803b1561013a576126d6916040519485809481937f2a2d80d100000000000000000000000000000000000000000000000000000000835260009c8d988995600486016124d0565b03925af180156127ad575b61279a575b506127406127326127246127166127086107e06065546001600160a01b031690565b95516001600160a01b031690565b97516001600160a01b031690565b92516001600160a01b031690565b93516001600160a01b031690565b94823b1561279657604051631b63c28b60e11b81526001600160a01b039182166004820152918116602483015292831660448201529390911660648401528290608490829084905af180156119b3576119a05750565b8480fd5b806119ad6127a792610357565b386126e6565b6127b5610dc8565b6126e1565b1561013a57565b90600182018092116116cc57565b600019828209908281029081808410930392808403931461282457680100000000000000008381111561013a576104629461281092099282841190036116f2565b9167ffffffffffffffff1991030417611703565b5091505060401c90565b70010000000000000000000000000000000090600019818309908060801b92838084109303928084039314612916579380916104629561286f8584116127ba565b0961290d61289861288084196127c1565b80940494600185806000030401908785119003611719565b936128cc6128c76129066128f96128ec6128df6128d260026128b9896116e1565b186128cc6128c7828b611719565b6116be565b90611719565b6128cc6128c7828a611719565b6128cc6128c78289611719565b6128cc6128c78288611719565b6128cc6128c78287611719565b8093611719565b93030417611719565b5050506129248215156127ba565b0490565b90600019818309908083029182808210910390808203911461299e57700100000000000000000000000000000000938185111561013a57610462947fffffffffffffffffffffffffffffffff000000000000000000000000000000009361299592099184831190036116f2565b92030417611703565b5050905060801c90565b600160c01b90600019818309908060c01b92838084109303928084039314612916579380916104629561286f8584116127ba565b906000198183099080830291828082109103908082039114612a3c57600160c01b938185111561013a57610462947fffffffffffffffff0000000000000000000000000000000000000000000000009361299592099184831190036116f2565b5050905060c01c9056fea2646970667358221220dc1c3986dac7fadffb3c9ffc1e39798335f4f5a148830e8fff79f795538c580d64736f6c63430008110033",
  "libraries": {
    "ContractAddresses": "0xEA01BF64cb7705c504aE1e5Fc4a86911FC887cc8"
  },
  "devdoc": {
    "kind": "dev",
    "methods": {
      "owner()": {
        "details": "Returns the address of the current owner."
      },
      "renounceOwnership()": {
        "details": "Leaves the contract without owner. It will not be possible to call `onlyOwner` functions. Can only be called by the current owner. NOTE: Renouncing ownership will leave the contract without an owner, thereby disabling any functionality that is only available to the owner."
      },
      "transferOwnership(address)": {
        "details": "Transfers ownership of the contract to a new account (`newOwner`). Can only be called by the current owner."
      }
    },
    "version": 1
  },
  "userdoc": {
    "kind": "user",
    "methods": {},
    "version": 1
  },
  "storageLayout": {
    "storage": [
      {
        "astId": 2685,
        "contract": "contracts/ECDSAWalletFactory.sol:ECDSAWalletFactory",
        "label": "_owner",
        "offset": 0,
        "slot": "0",
        "type": "t_address"
      },
      {
        "astId": 4058,
        "contract": "contracts/ECDSAWalletFactory.sol:ECDSAWalletFactory",
        "label": "factory",
        "offset": 0,
        "slot": "1",
        "type": "t_contract(SmartWalletFactory)4954"
      },
      {
        "astId": 4061,
        "contract": "contracts/ECDSAWalletFactory.sol:ECDSAWalletFactory",
        "label": "wallet",
        "offset": 0,
        "slot": "2",
        "type": "t_contract(ECDSAWallet)4048"
      }
    ],
    "types": {
      "t_address": {
        "encoding": "inplace",
        "label": "address",
        "numberOfBytes": "20"
      },
      "t_contract(ECDSAWallet)4048": {
        "encoding": "inplace",
        "label": "contract ECDSAWallet",
        "numberOfBytes": "20"
      },
      "t_contract(SmartWalletFactory)4954": {
        "encoding": "inplace",
        "label": "contract SmartWalletFactory",
        "numberOfBytes": "20"
      }
    }
  }
}