{
  "address": "0xC8E146BB452e380DDf7E7DFF3D95FD7cEF7E155d",
  "abi": [
    {
      "inputs": [
        {
          "internalType": "address",
          "name": "_pancakeV2Factory",
          "type": "address"
        },
        {
          "internalType": "address",
          "name": "_pancakeV3Factory",
          "type": "address"
        },
        {
          "internalType": "address",
          "name": "_weth9",
          "type": "address"
        },
        {
          "internalType": "address[]",
          "name": "_initialFeeAssets",
          "type": "address[]"
        }
      ],
      "stateMutability": "nonpayable",
      "type": "constructor"
    },
    {
      "inputs": [
        {
          "internalType": "string",
          "name": "message",
          "type": "string"
        }
      ],
      "name": "SmartWalletCreationError",
      "type": "error"
    },
    {
      "inputs": [
        {
          "internalType": "string",
          "name": "message",
          "type": "string"
        }
      ],
      "name": "UnSupportedFeeAsset",
      "type": "error"
    },
    {
      "anonymous": false,
      "inputs": [
        {
          "indexed": true,
          "internalType": "address",
          "name": "_wallet",
          "type": "address"
        },
        {
          "indexed": true,
          "internalType": "bytes32",
          "name": "_callID",
          "type": "bytes32"
        }
      ],
      "name": "WalletCreated",
      "type": "event"
    },
    {
      "inputs": [],
      "name": "PANCAKE_V2_FACTORY",
      "outputs": [
        {
          "internalType": "address",
          "name": "",
          "type": "address"
        }
      ],
      "stateMutability": "view",
      "type": "function"
    },
    {
      "inputs": [],
      "name": "PANCAKE_V3_FACTORY",
      "outputs": [
        {
          "internalType": "address",
          "name": "",
          "type": "address"
        }
      ],
      "stateMutability": "view",
      "type": "function"
    },
    {
      "inputs": [],
      "name": "RELAYER",
      "outputs": [
        {
          "internalType": "address",
          "name": "",
          "type": "address"
        }
      ],
      "stateMutability": "view",
      "type": "function"
    },
    {
      "inputs": [],
      "name": "WETH9",
      "outputs": [
        {
          "internalType": "address",
          "name": "",
          "type": "address"
        }
      ],
      "stateMutability": "view",
      "type": "function"
    },
    {
      "inputs": [
        {
          "internalType": "address",
          "name": "_asset",
          "type": "address"
        },
        {
          "internalType": "bool",
          "name": "_isSuppoeted",
          "type": "bool"
        }
      ],
      "name": "addSupportedFeeAsset",
      "outputs": [],
      "stateMutability": "nonpayable",
      "type": "function"
    },
    {
      "inputs": [
        {
          "internalType": "address",
          "name": "_impl",
          "type": "address"
        },
        {
          "internalType": "bytes",
          "name": "_call",
          "type": "bytes"
        }
      ],
      "name": "createWallet",
      "outputs": [
        {
          "internalType": "contract IWallet",
          "name": "",
          "type": "address"
        }
      ],
      "stateMutability": "payable",
      "type": "function"
    },
    {
      "inputs": [
        {
          "internalType": "bytes32",
          "name": "",
          "type": "bytes32"
        }
      ],
      "name": "nonces",
      "outputs": [
        {
          "internalType": "uint256",
          "name": "",
          "type": "uint256"
        }
      ],
      "stateMutability": "view",
      "type": "function"
    },
    {
      "inputs": [
        {
          "internalType": "address",
          "name": "_feeAsset",
          "type": "address"
        }
      ],
      "name": "queryFeeAsset",
      "outputs": [
        {
          "internalType": "bool",
          "name": "",
          "type": "bool"
        }
      ],
      "stateMutability": "view",
      "type": "function"
    },
    {
      "inputs": [
        {
          "internalType": "address",
          "name": "",
          "type": "address"
        }
      ],
      "name": "supportedFeeAssets",
      "outputs": [
        {
          "internalType": "bool",
          "name": "",
          "type": "bool"
        }
      ],
      "stateMutability": "view",
      "type": "function"
    },
    {
      "inputs": [
        {
          "internalType": "address",
          "name": "_impl",
          "type": "address"
        },
        {
          "internalType": "bytes",
          "name": "_call",
          "type": "bytes"
        },
        {
          "internalType": "uint256",
          "name": "_nonce",
          "type": "uint256"
        }
      ],
      "name": "walletAddress",
      "outputs": [
        {
          "internalType": "address",
          "name": "",
          "type": "address"
        }
      ],
      "stateMutability": "view",
      "type": "function"
    }
  ],
  "transactionHash": "0x95f129b056765f0ddebf8f0b247a09b0f21cb002e2abf060e9ad9c9b8049fe93",
  "args": [
    "0x6725F303b657a9451d8BA641348b6761A6CC7a17",
    "0x0BFbCF9fa4f9C56B0F40a671Ad40E0805A091865",
    "0xCE79F78537f95a2256e76A3FE4b99D3af148833F",
    [
      "0x501B55184813f7a29eb98DECD8EC9B6D07DEB263",
      "0x6F451Eb92d7dE92DdF6939d9eFCE6799246B3a4b",
      "0xCE79F78537f95a2256e76A3FE4b99D3af148833F"
    ]
  ],
  "numDeployments": 14,
  "solcInputHash": "c1dc7bc8afb680ccf1b606203a219906",
  "bytecode": "0x60406080815234610184576111b58038038061001a8161019f565b92833981019060808183031261018457610033816101c4565b6020926100418484016101c4565b9361004d8685016101c4565b60608501516001600160401b039591939186821161018457019080601f830112156101845781519586116101895760059186831b90848061008f81850161019f565b809a8152019282010192831161018457969897968401905b8282106101655750505060018060a01b039687918260018060a01b03199781600097168988541617875560019a8b9816898954161788551687600254161760025584985b610109575b87873390600354161760035551610fdc90816101d98239f35b815160ff8a1610156101605788811b611fe01682018401518316855260048452878520805460ff19168717905560ff98891698891461014c5797850197856100eb565b634e487b7160e01b85526011600452602485fd5b6100f0565b848091610175849c9a9b9c6101c4565b815201910190989796986100a7565b600080fd5b634e487b7160e01b600052604160045260246000fd5b6040519190601f01601f191682016001600160401b0381118382101761018957604052565b51906001600160a01b03821682036101845756fe60806040818152600490813610156200001757600080fd5b600092833560e01c9081632483e71514620005e8575080633315389a1462000537578063396abe06146200050d5780634aa4a4fc14620004e557806354b14a9214620004945780639e317f12146200046a578063b111d4a4146200042b578063bcd292c71462000401578063d1e64ad714620002895763eebc8e19146200009d57600080fd5b806003193601126200028557620000b36200060f565b916024359367ffffffffffffffff948581116200028157620000d990369084016200069e565b9384519560209687870120958684526005885285842080549060001982146200026e57600182019055865189810191898352888201528781526200011d816200062b565b5190209286519261042c80850191858310908311176200025b57918493916200014c936200074f863962000710565b039083f580156200024f576001600160a01b031693847fc71ce9687e4bf252667e23b2b1cb9433c5357a590c7f9ff6db754257a0be60c18380a38080808034885af1903d1562000248573d90620001a38262000681565b91620001b2865193846200065e565b8252863d92013e5b15620001c7575051908152f35b8360849251917f2ea26826000000000000000000000000000000000000000000000000000000008352820152602360248201527f536d61727457616c6c65743a204661696c656420746f206372656174696f6e2060448201527f46656500000000000000000000000000000000000000000000000000000000006064820152fd5b50620001ba565b508251903d90823e3d90fd5b60248760418a634e487b7160e01b835252fd5b602486601189634e487b7160e01b835252fd5b5080fd5b8280fd5b508234620003fe576060366003190112620003fe57620002a86200060f565b9167ffffffffffffffff916024358381116200028157620002cd90369087016200069e565b9182519462000374620003816020809881880120855182810191825260443587820152868152620002fe816200062b565b5190209661042c946200033c6200034b8851936200031f868a01866200065e565b8885528585019862000b7b8a398951928391878301958662000710565b03601f1981018352826200065e565b875195869362000364868601998a9251928391620006eb565b84019151809386840190620006eb565b010380845201826200065e565b51902091815192868401947fff0000000000000000000000000000000000000000000000000000000000000086523060601b60218601526035850152605584015260558352608083019483861090861117620003eb57508390525190206001600160a01b03168152f35b80604188634e487b7160e01b6024945252fd5b80fd5b83823462000281578160031936011262000281576020906001600160a01b03600254169051908152f35b5090346200028557602036600319011262000285578160209360ff926001600160a01b03620004596200060f565b168252855220541690519015158152f35b50903462000285576020366003190112620002855760209282913581526005845220549051908152f35b50346200028557806003193601126200028557620004b16200060f565b9160243592831515809403620004e1576001600160a01b0316845260205282209060ff8019835416911617905580f35b8480fd5b83823462000281578160031936011262000281576001600160a01b0360209254169051908152f35b83823462000281578160031936011262000281576020906001600160a01b03600154169051908152f35b508234620003fe576020366003190112620003fe576001600160a01b036200055e6200060f565b168082528360205260ff8383205416156200058b5781602094849260ff9452855220541690519015158152f35b60648460208551917f980d5f43000000000000000000000000000000000000000000000000000000008352820152601560248201527f756e7375707075727465642046656520417373657400000000000000000000006044820152fd5b84903462000281578160031936011262000281576020906001600160a01b03600354168152f35b600435906001600160a01b03821682036200062657565b600080fd5b6060810190811067ffffffffffffffff8211176200064857604052565b634e487b7160e01b600052604160045260246000fd5b90601f8019910116810190811067ffffffffffffffff8211176200064857604052565b67ffffffffffffffff81116200064857601f01601f191660200190565b81601f820112156200062657803590620006b88262000681565b92620006c860405194856200065e565b828452602083830101116200062657816000926020809301838601378301015290565b60005b838110620006ff5750506000910152565b8181015183820152602001620006ee565b90916001600160a01b0360609316825260406020830152620007428151809281604086015260208686019101620006eb565b601f01601f191601019056fe60406080815261042c908138038061001681610218565b93843982019181818403126102135780516001600160a01b038116808203610213576020838101516001600160401b0394919391858211610213570186601f820112156102135780519061007161006c83610253565b610218565b918083528583019886828401011161021357888661008f930161026e565b813b156101b9577f360894a13ba1a3210667c828492db98dca3e2076cc3735a920a3ca505d382bbc80546001600160a01b031916841790556000927fbc7cd75a20ee27fd9adebab32041f755214dbc6bffa90cc0225b39da2e5c2d3b8480a28051158015906101b2575b61010b575b855160e790816103458239f35b855194606086019081118682101761019e578697849283926101889952602788527f416464726573733a206c6f772d6c6576656c2064656c65676174652063616c6c87890152660819985a5b195960ca1b8a8901525190845af4913d15610194573d9061017a61006c83610253565b91825281943d92013e610291565b508038808080806100fe565b5060609250610291565b634e487b7160e01b84526041600452602484fd5b50826100f9565b855162461bcd60e51b815260048101859052602d60248201527f455243313936373a206e657720696d706c656d656e746174696f6e206973206e60448201526c1bdd08184818dbdb9d1c9858dd609a1b6064820152608490fd5b600080fd5b6040519190601f01601f191682016001600160401b0381118382101761023d57604052565b634e487b7160e01b600052604160045260246000fd5b6001600160401b03811161023d57601f01601f191660200190565b60005b8381106102815750506000910152565b8181015183820152602001610271565b919290156102f357508151156102a5575090565b3b156102ae5790565b60405162461bcd60e51b815260206004820152601d60248201527f416464726573733a2063616c6c20746f206e6f6e2d636f6e74726163740000006044820152606490fd5b8251909150156103065750805190602001fd5b6044604051809262461bcd60e51b825260206004830152610336815180928160248601526020868601910161026e565b601f01601f19168101030190fdfe60806040523615605f5773ffffffffffffffffffffffffffffffffffffffff7f360894a13ba1a3210667c828492db98dca3e2076cc3735a920a3ca505d382bbc54166000808092368280378136915af43d82803e15605b573d90f35b3d90fd5b73ffffffffffffffffffffffffffffffffffffffff7f360894a13ba1a3210667c828492db98dca3e2076cc3735a920a3ca505d382bbc54166000808092368280378136915af43d82803e15605b573d90f3fea2646970667358221220f08ce7dd14103bc23c9fba4a6ee08a9026888781d077b452ca4c90a9829b994564736f6c6343000811003360406080815261042c908138038061001681610218565b93843982019181818403126102135780516001600160a01b038116808203610213576020838101516001600160401b0394919391858211610213570186601f820112156102135780519061007161006c83610253565b610218565b918083528583019886828401011161021357888661008f930161026e565b813b156101b9577f360894a13ba1a3210667c828492db98dca3e2076cc3735a920a3ca505d382bbc80546001600160a01b031916841790556000927fbc7cd75a20ee27fd9adebab32041f755214dbc6bffa90cc0225b39da2e5c2d3b8480a28051158015906101b2575b61010b575b855160e790816103458239f35b855194606086019081118682101761019e578697849283926101889952602788527f416464726573733a206c6f772d6c6576656c2064656c65676174652063616c6c87890152660819985a5b195960ca1b8a8901525190845af4913d15610194573d9061017a61006c83610253565b91825281943d92013e610291565b508038808080806100fe565b5060609250610291565b634e487b7160e01b84526041600452602484fd5b50826100f9565b855162461bcd60e51b815260048101859052602d60248201527f455243313936373a206e657720696d706c656d656e746174696f6e206973206e60448201526c1bdd08184818dbdb9d1c9858dd609a1b6064820152608490fd5b600080fd5b6040519190601f01601f191682016001600160401b0381118382101761023d57604052565b634e487b7160e01b600052604160045260246000fd5b6001600160401b03811161023d57601f01601f191660200190565b60005b8381106102815750506000910152565b8181015183820152602001610271565b919290156102f357508151156102a5575090565b3b156102ae5790565b60405162461bcd60e51b815260206004820152601d60248201527f416464726573733a2063616c6c20746f206e6f6e2d636f6e74726163740000006044820152606490fd5b8251909150156103065750805190602001fd5b6044604051809262461bcd60e51b825260206004830152610336815180928160248601526020868601910161026e565b601f01601f19168101030190fdfe60806040523615605f5773ffffffffffffffffffffffffffffffffffffffff7f360894a13ba1a3210667c828492db98dca3e2076cc3735a920a3ca505d382bbc54166000808092368280378136915af43d82803e15605b573d90f35b3d90fd5b73ffffffffffffffffffffffffffffffffffffffff7f360894a13ba1a3210667c828492db98dca3e2076cc3735a920a3ca505d382bbc54166000808092368280378136915af43d82803e15605b573d90f3fea2646970667358221220f08ce7dd14103bc23c9fba4a6ee08a9026888781d077b452ca4c90a9829b994564736f6c63430008110033a26469706673582212209becf0411f4993e9b23086db6239b57dfa586116721a454741b7c1c0096f508964736f6c63430008110033",
  "devdoc": {
    "kind": "dev",
    "methods": {},
    "version": 1
  },
  "userdoc": {
    "kind": "user",
    "methods": {},
    "version": 1
  },
  "storageLayout": {
    "storage": [
      {
        "astId": 7071,
        "contract": "contracts/SmartWalletFactory.sol:SmartWalletFactory",
        "label": "WETH9",
        "offset": 0,
        "slot": "0",
        "type": "t_address"
      },
      {
        "astId": 7073,
        "contract": "contracts/SmartWalletFactory.sol:SmartWalletFactory",
        "label": "PANCAKE_V2_FACTORY",
        "offset": 0,
        "slot": "1",
        "type": "t_address"
      },
      {
        "astId": 7075,
        "contract": "contracts/SmartWalletFactory.sol:SmartWalletFactory",
        "label": "PANCAKE_V3_FACTORY",
        "offset": 0,
        "slot": "2",
        "type": "t_address"
      },
      {
        "astId": 7077,
        "contract": "contracts/SmartWalletFactory.sol:SmartWalletFactory",
        "label": "RELAYER",
        "offset": 0,
        "slot": "3",
        "type": "t_address"
      },
      {
        "astId": 7089,
        "contract": "contracts/SmartWalletFactory.sol:SmartWalletFactory",
        "label": "supportedFeeAssets",
        "offset": 0,
        "slot": "4",
        "type": "t_mapping(t_address,t_bool)"
      },
      {
        "astId": 7093,
        "contract": "contracts/SmartWalletFactory.sol:SmartWalletFactory",
        "label": "nonces",
        "offset": 0,
        "slot": "5",
        "type": "t_mapping(t_bytes32,t_uint256)"
      }
    ],
    "types": {
      "t_address": {
        "encoding": "inplace",
        "label": "address",
        "numberOfBytes": "20"
      },
      "t_bool": {
        "encoding": "inplace",
        "label": "bool",
        "numberOfBytes": "1"
      },
      "t_bytes32": {
        "encoding": "inplace",
        "label": "bytes32",
        "numberOfBytes": "32"
      },
      "t_mapping(t_address,t_bool)": {
        "encoding": "mapping",
        "key": "t_address",
        "label": "mapping(address => bool)",
        "numberOfBytes": "32",
        "value": "t_bool"
      },
      "t_mapping(t_bytes32,t_uint256)": {
        "encoding": "mapping",
        "key": "t_bytes32",
        "label": "mapping(bytes32 => uint256)",
        "numberOfBytes": "32",
        "value": "t_uint256"
      },
      "t_uint256": {
        "encoding": "inplace",
        "label": "uint256",
        "numberOfBytes": "32"
      }
    }
  }
}