{
  "address": "0x518B14d78DF55F51508281F58352E1607177B685",
  "abi": [
    {
      "inputs": [
        {
          "internalType": "address",
          "name": "_pancakeV2Factory",
          "type": "address"
        },
        {
          "internalType": "address",
          "name": "_pancakeV3Factory",
          "type": "address"
        },
        {
          "internalType": "address",
          "name": "_weth9",
          "type": "address"
        },
        {
          "internalType": "address[]",
          "name": "_initialFeeAssets",
          "type": "address[]"
        }
      ],
      "stateMutability": "nonpayable",
      "type": "constructor"
    },
    {
      "inputs": [
        {
          "internalType": "string",
          "name": "message",
          "type": "string"
        }
      ],
      "name": "SmartWalletCreationError",
      "type": "error"
    },
    {
      "inputs": [
        {
          "internalType": "string",
          "name": "message",
          "type": "string"
        }
      ],
      "name": "UnSupportedFeeAsset",
      "type": "error"
    },
    {
      "anonymous": false,
      "inputs": [
        {
          "indexed": true,
          "internalType": "address",
          "name": "_wallet",
          "type": "address"
        },
        {
          "indexed": true,
          "internalType": "bytes32",
          "name": "_callID",
          "type": "bytes32"
        }
      ],
      "name": "WalletCreated",
      "type": "event"
    },
    {
      "inputs": [],
      "name": "PANCAKE_V2_FACTORY",
      "outputs": [
        {
          "internalType": "address",
          "name": "",
          "type": "address"
        }
      ],
      "stateMutability": "view",
      "type": "function"
    },
    {
      "inputs": [],
      "name": "PANCAKE_V3_FACTORY",
      "outputs": [
        {
          "internalType": "address",
          "name": "",
          "type": "address"
        }
      ],
      "stateMutability": "view",
      "type": "function"
    },
    {
      "inputs": [],
      "name": "WETH9",
      "outputs": [
        {
          "internalType": "address",
          "name": "",
          "type": "address"
        }
      ],
      "stateMutability": "view",
      "type": "function"
    },
    {
      "inputs": [
        {
          "internalType": "address",
          "name": "_asset",
          "type": "address"
        },
        {
          "internalType": "bool",
          "name": "_isSuppoeted",
          "type": "bool"
        }
      ],
      "name": "addSupportedFeeAsset",
      "outputs": [],
      "stateMutability": "nonpayable",
      "type": "function"
    },
    {
      "inputs": [
        {
          "internalType": "address",
          "name": "_impl",
          "type": "address"
        },
        {
          "internalType": "bytes",
          "name": "_call",
          "type": "bytes"
        }
      ],
      "name": "createWallet",
      "outputs": [
        {
          "internalType": "contract IWallet",
          "name": "",
          "type": "address"
        }
      ],
      "stateMutability": "payable",
      "type": "function"
    },
    {
      "inputs": [
        {
          "internalType": "bytes32",
          "name": "",
          "type": "bytes32"
        }
      ],
      "name": "nonces",
      "outputs": [
        {
          "internalType": "uint256",
          "name": "",
          "type": "uint256"
        }
      ],
      "stateMutability": "view",
      "type": "function"
    },
    {
      "inputs": [
        {
          "internalType": "address",
          "name": "_feeAsset",
          "type": "address"
        }
      ],
      "name": "queryFeeAsset",
      "outputs": [
        {
          "internalType": "bool",
          "name": "",
          "type": "bool"
        }
      ],
      "stateMutability": "view",
      "type": "function"
    },
    {
      "inputs": [
        {
          "internalType": "address",
          "name": "",
          "type": "address"
        }
      ],
      "name": "supportedFeeAssets",
      "outputs": [
        {
          "internalType": "bool",
          "name": "",
          "type": "bool"
        }
      ],
      "stateMutability": "view",
      "type": "function"
    },
    {
      "inputs": [
        {
          "internalType": "address",
          "name": "_impl",
          "type": "address"
        },
        {
          "internalType": "bytes",
          "name": "_call",
          "type": "bytes"
        },
        {
          "internalType": "uint256",
          "name": "_nonce",
          "type": "uint256"
        }
      ],
      "name": "walletAddress",
      "outputs": [
        {
          "internalType": "address",
          "name": "",
          "type": "address"
        }
      ],
      "stateMutability": "view",
      "type": "function"
    }
  ],
  "transactionHash": "0x4590a1936b87afeb79afc7fbff93079d5e9134cec5cce7f45b256f883672672b",
  "args": [
    "0x6725F303b657a9451d8BA641348b6761A6CC7a17",
    "0x0BFbCF9fa4f9C56B0F40a671Ad40E0805A091865",
    "0xCE79F78537f95a2256e76A3FE4b99D3af148833F",
    [
      "0x501B55184813f7a29eb98DECD8EC9B6D07DEB263",
      "0x6F451Eb92d7dE92DdF6939d9eFCE6799246B3a4b",
      "0xCE79F78537f95a2256e76A3FE4b99D3af148833F"
    ]
  ],
  "numDeployments": 20,
  "solcInputHash": "e19069992a7c36fcfd744f12175c08e2",
  "bytecode": "0x60406080815234610175576111788038038061001a81610190565b92833981019060808183031261017557610033816101b5565b9060206100418183016101b5565b61004c8684016101b5565b606084015190936001600160401b03919082821161017557019580601f8801121561017557865191821161017a5760059682881b90858061008e818501610190565b809681520192820101928311610175579798978501905b8282106101585750505060018060a01b039687928360018060a01b03199181600098168389541617885560019a8b9916838a54161789551690600254161760025584975b6100fc575b8651610fae90816101ca8239f35b815160ff891610156101535787811b611fe01682018401518316855260038452868520805460ff19168717905560ff97881697881461013f5796850196856100e9565b634e487b7160e01b85526011600452602485fd5b6100ee565b858091610167849c9b9c6101b5565b8152019101909897986100a5565b600080fd5b634e487b7160e01b600052604160045260246000fd5b6040519190601f01601f191682016001600160401b0381118382101761017a57604052565b51906001600160a01b03821682036101755756fe60806040818152600490813610156200001757600080fd5b600092833560e01c9081633315389a146200052d57508063396abe0614620005035780634aa4a4fc14620004db57806354b14a9214620004875780639e317f12146200045e578063b111d4a4146200041e578063bcd292c714620003f4578063d1e64ad7146200027c5763eebc8e19146200009157600080fd5b806003193601126200027857620000a7620005e1565b916024359367ffffffffffffffff948581116200027457620000cd903690840162000670565b93845195602096878701209586845284885285842080549060001982146200026157600182019055865189810191898352888201528781526200011081620005fd565b5190209286519261042c80850191858310908311176200024e57918493916200013f93620007218639620006e2565b039083f5801562000242576001600160a01b031693847fc71ce9687e4bf252667e23b2b1cb9433c5357a590c7f9ff6db754257a0be60c18380a38080808034885af1903d156200023b573d90620001968262000653565b91620001a58651938462000630565b8252863d92013e5b15620001ba575051908152f35b8360849251917f2ea26826000000000000000000000000000000000000000000000000000000008352820152602360248201527f536d61727457616c6c65743a204661696c656420746f206372656174696f6e2060448201527f46656500000000000000000000000000000000000000000000000000000000006064820152fd5b50620001ad565b508251903d90823e3d90fd5b60248760418a634e487b7160e01b835252fd5b602486601189634e487b7160e01b835252fd5b5080fd5b8280fd5b508234620003f1576060366003190112620003f1576200029b620005e1565b9167ffffffffffffffff916024358381116200027457620002c0903690870162000670565b9182519462000367620003746020809881880120855182810191825260443587820152868152620002f181620005fd565b5190209661042c946200032f6200033e88519362000312868a018662000630565b8885528585019862000b4d8a3989519283918783019586620006e2565b03601f19810183528262000630565b875195869362000357868601998a9251928391620006bd565b84019151809386840190620006bd565b0103808452018262000630565b51902091815192868401947fff0000000000000000000000000000000000000000000000000000000000000086523060601b60218601526035850152605584015260558352608083019483861090861117620003de57508390525190206001600160a01b03168152f35b80604188634e487b7160e01b6024945252fd5b80fd5b83823462000274578160031936011262000274576020906001600160a01b03600254169051908152f35b83823462000274576020366003190112620002745760ff816020936001600160a01b036200044b620005e1565b1681526003855220541690519015158152f35b509034620002785760203660031901126200027857602092818392358252845220549051908152f35b8382346200027457806003193601126200027457620004a5620005e1565b9060243591821515809303620004d7576001600160a01b03168352600360205282209060ff8019835416911617905580f35b8380fd5b83823462000274578160031936011262000274576001600160a01b0360209254169051908152f35b83823462000274578160031936011262000274576020906001600160a01b03600154169051908152f35b849150346200027457602036600319011262000274576001600160a01b0362000555620005e1565b1690818352600360205260ff848420541615620005865760208460ff81868681526003855220541690519015158152f35b806020867f980d5f430000000000000000000000000000000000000000000000000000000060649452820152601560248201527f756e7375707075727465642046656520417373657400000000000000000000006044820152fd5b600435906001600160a01b0382168203620005f857565b600080fd5b6060810190811067ffffffffffffffff8211176200061a57604052565b634e487b7160e01b600052604160045260246000fd5b90601f8019910116810190811067ffffffffffffffff8211176200061a57604052565b67ffffffffffffffff81116200061a57601f01601f191660200190565b81601f82011215620005f8578035906200068a8262000653565b926200069a604051948562000630565b82845260208383010111620005f857816000926020809301838601378301015290565b60005b838110620006d15750506000910152565b8181015183820152602001620006c0565b90916001600160a01b0360609316825260406020830152620007148151809281604086015260208686019101620006bd565b601f01601f191601019056fe60406080815261042c908138038061001681610218565b93843982019181818403126102135780516001600160a01b038116808203610213576020838101516001600160401b0394919391858211610213570186601f820112156102135780519061007161006c83610253565b610218565b918083528583019886828401011161021357888661008f930161026e565b813b156101b9577f360894a13ba1a3210667c828492db98dca3e2076cc3735a920a3ca505d382bbc80546001600160a01b031916841790556000927fbc7cd75a20ee27fd9adebab32041f755214dbc6bffa90cc0225b39da2e5c2d3b8480a28051158015906101b2575b61010b575b855160e790816103458239f35b855194606086019081118682101761019e578697849283926101889952602788527f416464726573733a206c6f772d6c6576656c2064656c65676174652063616c6c87890152660819985a5b195960ca1b8a8901525190845af4913d15610194573d9061017a61006c83610253565b91825281943d92013e610291565b508038808080806100fe565b5060609250610291565b634e487b7160e01b84526041600452602484fd5b50826100f9565b855162461bcd60e51b815260048101859052602d60248201527f455243313936373a206e657720696d706c656d656e746174696f6e206973206e60448201526c1bdd08184818dbdb9d1c9858dd609a1b6064820152608490fd5b600080fd5b6040519190601f01601f191682016001600160401b0381118382101761023d57604052565b634e487b7160e01b600052604160045260246000fd5b6001600160401b03811161023d57601f01601f191660200190565b60005b8381106102815750506000910152565b8181015183820152602001610271565b919290156102f357508151156102a5575090565b3b156102ae5790565b60405162461bcd60e51b815260206004820152601d60248201527f416464726573733a2063616c6c20746f206e6f6e2d636f6e74726163740000006044820152606490fd5b8251909150156103065750805190602001fd5b6044604051809262461bcd60e51b825260206004830152610336815180928160248601526020868601910161026e565b601f01601f19168101030190fdfe60806040523615605f5773ffffffffffffffffffffffffffffffffffffffff7f360894a13ba1a3210667c828492db98dca3e2076cc3735a920a3ca505d382bbc54166000808092368280378136915af43d82803e15605b573d90f35b3d90fd5b73ffffffffffffffffffffffffffffffffffffffff7f360894a13ba1a3210667c828492db98dca3e2076cc3735a920a3ca505d382bbc54166000808092368280378136915af43d82803e15605b573d90f3fea2646970667358221220f08ce7dd14103bc23c9fba4a6ee08a9026888781d077b452ca4c90a9829b994564736f6c6343000811003360406080815261042c908138038061001681610218565b93843982019181818403126102135780516001600160a01b038116808203610213576020838101516001600160401b0394919391858211610213570186601f820112156102135780519061007161006c83610253565b610218565b918083528583019886828401011161021357888661008f930161026e565b813b156101b9577f360894a13ba1a3210667c828492db98dca3e2076cc3735a920a3ca505d382bbc80546001600160a01b031916841790556000927fbc7cd75a20ee27fd9adebab32041f755214dbc6bffa90cc0225b39da2e5c2d3b8480a28051158015906101b2575b61010b575b855160e790816103458239f35b855194606086019081118682101761019e578697849283926101889952602788527f416464726573733a206c6f772d6c6576656c2064656c65676174652063616c6c87890152660819985a5b195960ca1b8a8901525190845af4913d15610194573d9061017a61006c83610253565b91825281943d92013e610291565b508038808080806100fe565b5060609250610291565b634e487b7160e01b84526041600452602484fd5b50826100f9565b855162461bcd60e51b815260048101859052602d60248201527f455243313936373a206e657720696d706c656d656e746174696f6e206973206e60448201526c1bdd08184818dbdb9d1c9858dd609a1b6064820152608490fd5b600080fd5b6040519190601f01601f191682016001600160401b0381118382101761023d57604052565b634e487b7160e01b600052604160045260246000fd5b6001600160401b03811161023d57601f01601f191660200190565b60005b8381106102815750506000910152565b8181015183820152602001610271565b919290156102f357508151156102a5575090565b3b156102ae5790565b60405162461bcd60e51b815260206004820152601d60248201527f416464726573733a2063616c6c20746f206e6f6e2d636f6e74726163740000006044820152606490fd5b8251909150156103065750805190602001fd5b6044604051809262461bcd60e51b825260206004830152610336815180928160248601526020868601910161026e565b601f01601f19168101030190fdfe60806040523615605f5773ffffffffffffffffffffffffffffffffffffffff7f360894a13ba1a3210667c828492db98dca3e2076cc3735a920a3ca505d382bbc54166000808092368280378136915af43d82803e15605b573d90f35b3d90fd5b73ffffffffffffffffffffffffffffffffffffffff7f360894a13ba1a3210667c828492db98dca3e2076cc3735a920a3ca505d382bbc54166000808092368280378136915af43d82803e15605b573d90f3fea2646970667358221220f08ce7dd14103bc23c9fba4a6ee08a9026888781d077b452ca4c90a9829b994564736f6c63430008110033a2646970667358221220b4f7520fe9bb5397e7100afeef428766cfce1fd0a71c611757566b294d034fd664736f6c63430008110033",
  "devdoc": {
    "kind": "dev",
    "methods": {},
    "version": 1
  },
  "userdoc": {
    "kind": "user",
    "methods": {},
    "version": 1
  },
  "storageLayout": {
    "storage": [
      {
        "astId": 6646,
        "contract": "contracts/SmartWalletFactory.sol:SmartWalletFactory",
        "label": "WETH9",
        "offset": 0,
        "slot": "0",
        "type": "t_address"
      },
      {
        "astId": 6648,
        "contract": "contracts/SmartWalletFactory.sol:SmartWalletFactory",
        "label": "PANCAKE_V2_FACTORY",
        "offset": 0,
        "slot": "1",
        "type": "t_address"
      },
      {
        "astId": 6650,
        "contract": "contracts/SmartWalletFactory.sol:SmartWalletFactory",
        "label": "PANCAKE_V3_FACTORY",
        "offset": 0,
        "slot": "2",
        "type": "t_address"
      },
      {
        "astId": 6662,
        "contract": "contracts/SmartWalletFactory.sol:SmartWalletFactory",
        "label": "supportedFeeAssets",
        "offset": 0,
        "slot": "3",
        "type": "t_mapping(t_address,t_bool)"
      },
      {
        "astId": 6666,
        "contract": "contracts/SmartWalletFactory.sol:SmartWalletFactory",
        "label": "nonces",
        "offset": 0,
        "slot": "4",
        "type": "t_mapping(t_bytes32,t_uint256)"
      }
    ],
    "types": {
      "t_address": {
        "encoding": "inplace",
        "label": "address",
        "numberOfBytes": "20"
      },
      "t_bool": {
        "encoding": "inplace",
        "label": "bool",
        "numberOfBytes": "1"
      },
      "t_bytes32": {
        "encoding": "inplace",
        "label": "bytes32",
        "numberOfBytes": "32"
      },
      "t_mapping(t_address,t_bool)": {
        "encoding": "mapping",
        "key": "t_address",
        "label": "mapping(address => bool)",
        "numberOfBytes": "32",
        "value": "t_bool"
      },
      "t_mapping(t_bytes32,t_uint256)": {
        "encoding": "mapping",
        "key": "t_bytes32",
        "label": "mapping(bytes32 => uint256)",
        "numberOfBytes": "32",
        "value": "t_uint256"
      },
      "t_uint256": {
        "encoding": "inplace",
        "label": "uint256",
        "numberOfBytes": "32"
      }
    }
  }
}